:1064280012784512746E12000E1278821238E31236
:106438006F441277611275551278A112771F1200F6
:106448000E900346122D0F196563787B017A057942
:10645800DB75360C7D1512431490037F7401F0A38D
:1064680074F4F012000E12788DD2AF124D9D900385
:1064780070E0FFEF4404FF900370EFF09003A1E099
:10648800FFEF54BFFF9003A1EFF09006BCE4F0903B
:1064980006BAE4F07F0612674BD2A3C2A212000E1E
:1064A8009006BAE0FF7E00EF4E60031270CC9003B6
:1064B80050E0FEA3E0FFEF4E7003120BC2121E3E27
:1064C8007F007E007D007C00900040E0F8A3E0F9AA
:1064D800A3E0FAA3E0FBC3122C8E6003121695907A
:1064E8000370E0FFEF1313543FFFEF5401FF7E00EA
:1064F800EF64014E700612630112654212707090CB
:1065080003A1E0FFEFC413135403FFEF5401FF7E10
:1065180000EF64014E7004D2B580829003A1E0FFC1
:10652800EFC413135403FFEF5401FF7E00EF4E60D6
:0A653800030264A5C2B50264A522A7
:10746E0075C75075E78075E30075E44075E50475E2
:10747E00E21875E64675E6B90075E50075E7007524
:10748E00E78075E30075E44175E50475E20675E67F
:0C749E004675E6B90075E50075E70022B0
:10784500439701E5E154F8FFEF4404F5E143E18096
:0478550043E12022C9
:04000E0043E1102298
:106F44005391F0439107D29343B4044391B05391C6
:106F5400BFD29643B4085395FDD2A14395AD539542
:106F6400EFD2A443B41043B420C2A053B1CF43B270
:106F74003053B3FCD2E8D2E943B440900372E0FF4B
:106F8400EF4420FF900372EFF0900372E0FFEF54A0
:106F9400BFFF900372EFF0C2A7C2B5C2A5C292C2EE
:066FA40091C290C2B4226C
:0C00160053C1CFD28853A1FE43C1012288
:0C78760053C13FD28A53A1FD43C102223E
:030003000271C1C6
:1071C100C0E0C0F0C083C082C0D075D000C000C094
:1071D10001C002C003C004C005C006C007786FE645
:1071E100FFEF5401FF7E00EF4E7005125C3180030A
:1071F100126D63D007D006D005D004D003D002D0E1
:0E72010001D000D0D0D082D083D0F0D0E032C7
:0300130002720F67
:10720F00C0E0C0F0C083C082C0D075D000C000C045
:10721F0001C002C003C004C005C006C007786FE6F6
:10722F00FFEF5401FF7E00EF4E7005125C318003BB
:10723F00126D63D007D006D005D004D003D002D092
:0E724F0001D000D0D0D082D083D0F0D0E03279
:0A788D00127876D2AAD2A9D2AC225A
:0433300002D00000C7
:10776100E58954FCFFEF4401F58953A1EF53A3FBD5
:0F7771005389FB5389F7758ACB758CFAD28C221A
:03000B00025F672A
:105F6700C0E0C083C082C0D075D000C000C006C0EA
:105F770007758CFA758ACB90034EE0FEA3E0FFEF1E
:105F87004E600E90034FE024FFF090034EE034FF85
:105F9700F090037FE0FEA3E0FFEF4E600E900380DA
:105FA700E024FFF090037FE034FFF09003B3E0FEBE
:105FB700A3E0FFEF4E600E9003B4E024FFF09003E0
:105FC700B3E034FFF07871E6FE08E6FFEF4E6008B5
:105FD7007872E61618700116900344E0FEA3E0FFFE
:105FE700EF4E600E900345E024FFF0900344E03449
:105FF700FFF07873E6FFEF60057873168012787309
:10600700760A900372E0FFEF4480FF900372EFF08F
:106017009006B1E0FFEF60069006B1E014F0900043
:106027001BE0FFEF600690001BE014F0900371E0A7
:10603700FFEF6006900371E014F090034AE0FEA3BF
:10604700E0FFEF4E600E90034BE024FFF090034A11
:10605700E034FFF0900028E0FEA3E0FFEF4E600E73
:10606700900029E024FFF0900028E034FFF078D07A
:10607700E6FE08E6FFEF4E600878D1E616187001D5
:1060870016900389E0FEA3E0FFEF4E600E90038AAF
:10609700E024FFF0900389E034FFF0D007D006D06A
:0A60A70000D0D0D082D083D0E032C8
:1072A700E5D954F1FFEF440AF5D975AC0175DA0257
:1072B70075AC0075AC01E5F244C0F5F275AC00534E
:1072C700BC7F75AC01800543F203800975EA6D75D3
:1072D700FAF453F2FC75AC0075F9E875E9DA75CF85
:0572E700E875CEDA227B
:0478A1001272A72296
:0378A500D2DE220E
:05000600C2DEC2A022D1
:10781B008F1FAF1F7E00EF4E600A000000000000BC
:05782B00151F80EE2294
:107741008F60AF601560EF60167FC812781B7FC82D
:1077510012781B7FC812781B7FC812781B80E32226
:0E78680000000000000000000000284F4B2927
:103334004106B9004106BB00C1014106B200410685
:10334400B4004106B3006029065F000000000000DD
:103354000000000000000000000000000000000069
:103364000000000000000000000000000000000059
:103374000000006029068800000000000000000032
:103384000000000000000000000000000000000039
:103394000000000000000000000000000000000029
:1033A400440659000000004106BD0003CD0203009D
:1033B4004106B1004106BC004106BA0041065D0069
:0B33C40041065E004406B5000000005A
:10755500539CEFD29FD29ED29CC2CDC2CC539C7F6E
:10756500438780539CBFE58954CFFFEF4420F589BD
:1075750043A3085389BF53897F758D98758B98D21E
:027585008E2254
:0300230002683A36
:10683A00C0E0C0F0C083C082C0D075D000C000C024
:0D684A0001C002C003C004C005C006C007A5
:1068570078D87600C0AC75AC00309902C299209800
:106867000302690AC29878D8A699786FE6FFEF54B1
:1068770001FF7E00EF4E700A78D8E6FF12664F02DE
:10688700690A78D8E6FFEFB42805900027E4F07886
:10689700D8E6FF900027E0FE74A22EF582E43403C9
:1068A700F583EFF0900027E0FFEF04FFEF541FFFA1
:1068B700900027EFF078D8E6FFEF6429704578D885
:1068C7007600900027E0FF78D8E6FEEEC39F5025BC
:1068D70078D8E6FF74A22FF582E43403F583E0FF4E
:1068E70078D8E6FE748D2EF582E43403F583EFF055
:1068F70078D80680CD9003A1E0FFEF4401FF900315
:05690700A1EFF0D0AC8F
:10690C00D007D006D005D004D003D002D001D000DF
:0B691C00D0D0D082D083D0F0D0E03289
:027830008F6166
:10783200A2AC9200C2AC8561993099FDC299A200B6
:0278420092AC06
:017844002221
:087431008B378A3889398D3A46
:10743900900643E4F0900643E4F0900643E0FFEF42
:10744900C3953A501FAB37AA38A939900643E0FFD4
:107459008F82758300122A4FFF127830900643E01D
:0474690004F080D6D5
:01746D0022FC
:027679008F621E
:10767B00AF627E00C3EF943AEE64809480500CE5C9
:10768B0062540FFF900644EFF0800AE56224C9FFB5
:0A769B00900644EFF0900644E0FF73
:0176A50022C2
:0275EA008F63AD
:1075EC0053630FAF637E00C3EF940AEE6480948004
:1075FC00500CE5634430FF900645EFF0800AE563DC
:0D760C002437FF900645EFF0900645E0FFA3
:01761900224E
:047780008F538D5442
:10778400AF53127679EFC454F0FDAF54127679EF0B
:09779400540FFFED2FF555AF5520
:01779D0022C9
:10664F008F649006B2E0FFEF122D4C66640066C7B0
:10665F0001000066FA900660E0FF90065FEFF09091
:10666F000661E0FF900660EFF0900661E564F09040
:10667F00065FE0FF7E00EF64024E7079900661E0E6
:10668F00FF7E00EF64114E706C9006BD7401F090A8
:10669F0006B2E004F0900660E0FF9006B4EFF090D1
:1066AF0006B4E0FF7E00C3EF9429EE64809480402F
:1066BF00449006B2E4F0803D9006B3E0FF74622F81
:1066CF00F582E43406F583E564F09006B3E004F058
:1066DF009006B4E0FFEF24FDFF9006B3E0FEEEC39B
:1066EF009F40129006B2E004F0800A9006B2E4F0E8
:1066FF009006BDE4F09006B2E0FF7E00EF64024E1C
:10670F007039124A729006B2E4F09006B3E4F0903A
:10671F000659E0FF7E00EF64934E600D900659E03E
:10672F00FF7E00EF64984E70069006BDE4F0229055
:0C673F0006BD7402F09006B17402F02256
:104A720078D9760078D9760078D9E6FF7E00C3EF40
:104A82009404EE64809480502578D9E6FF74622FF6
:104A9200F582E43406F583E0FF78D9E6FE74592EF8
:104AA200F582E43406F583EFF078D90680CA9006E1
:104AB20059E0FF7E00EF64924E6003024C0F9003B8
:104AC20073E0FFEF4404FF900373EFF090034EE0B6
:104AD200FEA3E0FFEF4E700E90002BE0FFEF541F9D
:104AE200FF90002BEFF078D9760078D9E6FF7E00B0
:104AF200C3EF9402EE64809480503D78D9E6FF744F
:104B02005A2FF582E43406F583E0FF78D9E6FEEE0B
:104B12005401FE78D9E6FDEDC313FDED25E0242C0A
:104B2200F582E43400F583E5822EF582E43583F5DF
:104B320083EFF078D90680B290065AE0FFEF540F67
:104B4200FF7E00EF64034E601190065AE0FFEF54BF
:104B52000FFF7E00EF64044E7010900374E0FFEFCD
:104B62004404FF900374EFF0800E900374E0FFEFB3
:104B720054FBFF900374EFF078CF760090065AE072
:104B8200FFEFC4540FFFEF540FFFEF122D4C4BAD4C
:104B9200034BAD044BAD054BAD064BAD074BAD081A
:104BA20000004BA8800578CF76012290065AE0FFDC
:104BB200EF540FFFEF122D4C4BD7014BD7024BD7BF
:104BC200034BD7044BD7054BD70600004BD28005C9
:104BD20078CF76012290065BE0FFEF122D4C4D9CC0
:104BE200004D9C044D9C064D9C454D9C464D9C475A
:104BF2004D9C484D9C494D9C4A4D9C4B4D9C4C4D67
:104C02009C4D00004C092278CF7601222290065951
:104C1200E0FF7E00EF64984E6003024CA0900354C4
:104C2200E4F090038CE4F078D9760078D9E6FF7E40
:104C320000C3EF9429EE64809480502578D9E6FF72
:104C4200745F2FF582E43406F583E0FF78D9E6FE3F
:104C520074882EF582E43406F583EFF078D9068065
:104C6200CA900374E0FFEF4408FF900374EFF090E2
:104C72000689E0FF7E00EF2401FFEE3400FE7C0097
:104C82007D07122AB0900017EEF0A3EFF0900353C5
:104C9200E4F090000BE4F09003567426F0229006A4
:104CA20059E0FF7E00EF64914E7075900376E0FE4E
:104CB200A3E0FFEF4E704E7F007E007D007C0090EF
:104CC2000040E0F8A3E0F9A3E0FAA3E0FBC3122C52
:104CD2008E703278CF76009006BC7401F090065D3B
:104CE200E0FF7E00C3EF9403EE6480948050069050
:104CF200065DE004F090065EE4F09003877403F032
:104D0200A374E8F02278CF76019006BC7402F0908A
:104D120003877403F0A374E8F09006BA7401F022DA
:104D2200900659E0FF7E00EF64934E706990065A38
:104D3200E0FFEF122D4C4D4E014D5F024D70044DC0
:104D420081FA4D88FB4D8FFC00004D9C90003D7414
:104D520008F090034E7403F0A374E8F02290003D33
:104D62007404F090034E7403F0A374E8F0229000F0
:104D72003D7402F090034E7403F0A374E8F02290A5
:104D820006BA7401F0229006BA7402F0229006BAB2
:0A4D92007403F022222278CF76018C
:014D9C0022F4
:107070009006BDE0FF7E00EF64024E70219006B1E5
:10708000E0FF7E00EF4E70169006BD7403F07B00AB
:107090007A0079CD7D031274319006BDE4F090033F
:1070A00054E0FF7E00EF64014E702090038CE0FFFF
:1070B0007E00EF4E70157B017A0379787D0712749C
:0C70C00031900354E4F090038CE4F022C3
:100026007BFF7A787968C003C002C0017B017A063B
:100036007946A801AC02AD03D001D002D0037E0000
:100046007F0A122A107BFF7A787972C003C002C039
:10005600017B017A067950A801AC02AD03D001D02C
:1000660002D0037E007F04122A10900658E4F09016
:1000760003A1E0FFEF20E003020BA89003A1E0FF3D
:10008600EF54FEFF9003A1EFF090038EE0FFEF64C4
:1000960054600302011990038FE0FFEF644570730B
:1000A600900390E0FFEF64537069900391E0FFEFD7
:1000B6006454705F900392E0FFEF64297055786F87
:1000C600E6FFEF4408FF786FA607786FE6FFEF5468
:1000D600FBFF786FA607786FE6FFEF54FDFF786F9A
:1000E600A607C2A5C2A7C2B5C291C290C29290038A
:1000F60066E4F0A3E4F090003EE4F0A3E4F090039D
:100106009DE4F07F0312674B7B017A0679507D04EC
:10011600127431786FE6FFEF131313541FFFEF5479
:1001260001FF7E00EF64014E6003020BA890038E70
:10013600E0FFEF122D4C01B94502774608594B08EE
:10014600D750055D520155530B275700000BA89059
:10015600038FE0FFEF64296003020BA8786FE6FFC8
:10016600EF1313543FFFEF5401FF7E00EF64014E7F
:100176007002C2B5786FE6FFEF54FBFF786FA607F3
:10018600786FE6FFEF54FDFF786FA607C2A3D2A2F1
:100196007F0312674B7B017A0579EB7D01125DEFD8
:1001A6007F001271727B017A0679507D04127431D8
:1001B600020BA890038FE0FFEF644E706C900390E3
:1001C600E0FFEF64447062900391E0FFEF642970F2
:1001D60058786FE6FFEF54F7FF786FA607786FE65B
:1001E600FFEF54FBFF786FA607786FE6FFEF54FD2D
:1001F600FF786FA607C2A5C2A7C2B5C291C290C2B8
:1002060092900366E4F0A3E4F090003EE4F0A3E4E9
:10021600F090039DE4F07F0312674B7B017A067929
:10022600507D04127431020BA890038FE0FFEF6437
:10023600486003020BA8900390E0FFEF6429600377
:10024600020BA8900376E4F0A3E4F0127371900019
:1002560040122D0F000000007F007E007D007C0014
:10026600126ED07B017A0679507D04127431020B2E
:10027600A890038FE0FFEF644D7061900390E0FF5C
:10028600EF64297057786FE6FFEF1313543FFFEFC3
:100296005401FF7E00EF64014E7002C2B5786FE62E
:1002A600FFEF54FBFF786FA607786FE6FFEF440277
:1002B600FF786FA607C2A3D2A27F0312674B7B010A
:1002C6007A0579EB7D01125DEF7F011271727B0178
:1002D6007A0679507D04127431020BA890038FE0E0
:1002E600FFEF6443705D900390E0FFEF643F70534F
:1002F600900391E0FFEF642970499006467428F058
:100306009006477446F09006487443F09005FCE06A
:10031600FFEFC4540FFF1275EA900649EFF09005FF
:10032600FCE0FFEF540FFF1275EA90064AEFF090DB
:10033600064B7429F07B017A0679467D06127431E4
:10034600020BA890038FE0FFEF64436003020BA843
:10035600900392E0FFEF64296003020BA8786FE632
:10036600FFEFC313FFEF5401FF7E00EF64014E6001
:1003760003020BA8786FE6FFEF54FBFF786FA60722
:100386009003A5E0FF9003A6E0FD12778090065843
:10039600EFF07F0312674BC2A3D2A2900658E0FF8C
:1003A6007E00D3EF940AEE648094804003020468D2
:1003B600900658E0FF9005FCEFF07B017A0579FC8A
:1003C600751D00751E017FFA7E7F12581390065820
:1003D600E0FF7E96EF8EF0A4FFAEF0E4FCFDEF2486
:1003E600D8FFEE34B0FEED3494FDEC3419FC9006E3
:1003F600B5122CEA9006B5E0FCA3E0FDA3E0FEA34F
:10040600E0FF7B017A0579EB1250AF7B017A057923
:10041600EB7D01125DEF900658E0FF7E96EF8EF0C1
:10042600A4FFAEF0E4FCFDEF2430FFEE34B0FEEDA9
:10043600346FFDEC3419FC9006B5122CEA9006B523
:10044600E0FCA3E0FDA3E0FEA3E0FF7B017A0579D3
:10045600D31250AF7B017A0679507D0412743102B3
:100466000555900658E0FF7E00C3740A9FEE64802F
:10047600F8E46480984003020555900658E0FF7E34
:1004860000D3EF9414EE64809480400302055590E7
:100496000658E0FF9005FCEFF07B017A0579FC75C4
:1004A6001D00751E017FFA7E7F125813900658E0D4
:1004B60024F6F0900658E0FF7E96EF8EF0A4FFAE8D
:1004C600F0AB07AA06E4F9F8C374D89BFF74B09A98
:1004D600FE749499FD741998FC9006B5122CEA9056
:1004E60006B5E0FCA3E0FDA3E0FEA3E0FF7B017AF6
:1004F6000579EB1250AF7B017A0579EB7D01125D30
:10050600EF900658E0FF7E96EF8EF0A4FFAEF0ABBC
:1005160007AA06E4F9F8C374309BFF74B09AFE7418
:100526006F99FD741998FC9006B5122CEA9006B5E1
:10053600E0FCA3E0FDA3E0FEA3E0FF7B017A0579E2
:10054600D31250AF7B017A0679507D041274317F45
:1005560001127172020BA890038FE0FFEF645360E3
:10056600030205FA900390E0FFEF6453600302056F
:10057600FA900391E0FFEF64497079900392E0FFEF
:10058600EF6429706F786FE6FFEF1313543FFFEFA8
:100596005401FF7E00EF64014E70599006467428A0
:1005A600F09006477452F09006487453F09006494E
:1005B6007453F090064A7449F090039DE0FFEF549F
:1005C600FFFFEFC4540FFF1275EA90064BEFF09051
:1005D600039DE0FFEF540FFF1275EA90064CEFF013
:1005E60090064D7429F07B017A0679467D081274CF
:1005F60031020BA890038FE0FFEF6453706D9003F8
:1006060090E0FFEF64297063C2B5786FE6FFEF54A0
:10061600FDFF786FA607900366E4F0A3E4F0900070
:100626003EE4F0A3E4F090039DE4F0D2A3C2A27FDF
:100636000312674B900346122D0F196FB0307B01E2
:100646007A0579D37D01125DEF1273B17F061267C9
:100656004B786FE6FFEF4404FF786FA6077B017ABD
:100666000679507D04127431020BA890038FE0FFC7
:10067600EF644E6003020718900390E0FFEF6429D1
:1006860060030207187F007E007D007C009000401A
:10069600E0F8A3E0F9A3E0FAA3E0FBC3122C8E6016
:1006A60012900376E0FEA3E0FFEF04FF900658EFFA
:1006B600F0800D900376E0FEA3E0FF900658EFF081
:1006C6009006467428F09006477452F090064874D7
:1006D6004EF0900658E0FFEF54FFFFEFC4540FFFB3
:1006E6001275EA900649EFF0900658E0FFEF540FB6
:1006F600FF1275EA90064AEFF090064B7429F090C7
:100706000658E4F07B017A0679467D0612743102BA
:100716000BA890038FE0FFEF64476003020BA890DD
:100726000392E0FFEF64296003020BA8900390E0B8
:10073600FFEF64306003020BA8900391E0FFEF64C3
:10074600306003020BA8900654E4F0907FFBE4931C
:10075600FF900655EFF0907FFCE493FF900656EF6E
:10076600F0907FFDE493FF900657EFF07F007E0048
:100776007D007C00900654E0F8A3E0F9A3E0FAA31C
:10078600E0FBC3122C8E601C7FFF7EFF7DFF7C008A
:10079600900654E0F8A3E0F9A3E0FAA3E0FBC31245
:1007A6002C8E700C900040122D0F0000000080145B
:1007B600900654E0FCA3E0FDA3E0FEA3E0FF90005A
:1007C60040122CEA9006467428F09006477452F0C0
:1007D6009006487447F0900655E0FFEFC4540FFFAB
:1007E6001275EA900649EFF0900655E0FFEF540FB8
:1007F600FF1275EA90064AEFF0900656E0FFEFC446
:10080600540FFF1275EA90064BEFF0900656E0FF84
:10081600EF540FFF1275EA90064CEFF0900657E082
:10082600FFEFC4540FFF1275EA90064DEFF09006E5
:1008360057E0FFEF540FFF1275EA90064EEFF09067
:10084600064F7429F07B017A0679467D0A127431C7
:10085600020BA890038FE0FFEF64596003020BA818
:10086600900390E0FFEF64296003020BA890064610
:100876007428F0900647744BF09006487459F0902F
:10088600064DE4F0A2A1E433FF90064DE0FEEF4EE4
:10089600FF90064DEFF090064DE0FFEF54FFFFEF9F
:1008A600C4540FFF1275EA900649EFF090064DE02A
:1008B600FFEF540FFF1275EA90064AEFF090064BD1
:1008C6007429F07B017A0679467D06127431020B93
:1008D600A890038FE0FFEF644860030209FF9003CE
:1008E60093E0FFEF642960030209FF900390E0FFA5
:1008F600EFB44222900391E0FFEFB43019900392D7
:10090600E0FFEFB43110D2A57B017A0679507D0461
:10091600127431020BA8900390E0FFEFB4422290CC
:100926000391E0FFEFB43019900392E0FFEFB43289
:1009360010D2A77B017A0679507D04127431020B1E
:10094600A8900390E0FFEFB44222900391E0FFEFFE
:10095600B43019900392E0FFEFB43310D2B57B01A7
:100966007A0679507D04127431020BA8900390E048
:10097600FFEFB44422900391E0FFEFB430199003E7
:1009860092E0FFEFB43110D2917B017A0679507D67
:1009960004127431020BA8900390E0FFEFB44422D6
:1009A600900391E0FFEFB43019900392E0FFEFB4AB
:1009B6003210D2907B017A0679507D04127431028E
:1009C6000BA8900390E0FFEF64446003020BA8902D
:1009D6000391E0FFEF64306003020BA8900392E0FE
:1009E600FFEF64336003020BA8D2927B017A06798B
:1009F600507D04127431020BA890038FE0FFEF6460
:100A06004C6003020BA8900393E0FFEF6429600398
:100A1600020BA8900390E0FFEFB44222900391E00E
:100A2600FFEFB43019900392E0FFEFB43110C2A586
:100A36007B017A0679507D04127431020BA890036B
:100A460090E0FFEFB44222900391E0FFEFB430193B
:100A5600900392E0FFEFB43210C2A77B017A0679C9
:100A6600507D04127431020BA8900390E0FFEFB49E
:100A76004222900391E0FFEFB43019900392E0FF19
:100A8600EFB43310C2B57B017A0679507D04127437
:100A960031020BA8900390E0FFEFB444229003913B
:100AA600E0FFEFB43019900392E0FFEFB43110C2CB
:100AB600917B017A0679507D04127431020BA8905D
:100AC6000390E0FFEFB44422900391E0FFEFB430CF
:100AD60019900392E0FFEFB43210C2907B017A06C0
:100AE60079507D04127431020BA8900390E0FFEF59
:100AF60064446003020BA8900391E0FFEF6430604A
:100B060003020BA8900392E0FFEF64336003020B2D
:100B1600A8C2927B017A0679507D04127431020BC9
:100B2600A890038FE0FFEF64477077900396E0FF8D
:100B3600EF6429706D900654E4F09003A5E0FF90F1
:100B460003A6E0FD127780900655EFF09003A7E02C
:100B5600FF9003A8E0FD127780900656EFF0900311
:100B6600A9E0FF9003AAE0FD127780900657EFF008
:100B76007B017A067955751D00751E037FFB7E7F06
:100B8600125813900654E0FCA3E0FDA3E0FEA3E098
:100B9600FF900040122CEA7B017A0679507D041200
:100BA6007431786FE6FFEF1313543FFFEF5401FFE4
:0B0BB6007E00EF64014E7003126E59C8
:010BC1002211
:0F78590000000000000000000000000000000020
:0B78820075BF0B7D7C7F031276A622F1
:0476A6008F5C8D5D0B
:1076AA00A2AF9202C2AF75E300855CE4855DE27524
:1076BA00E50475E78075E64675E6B90075E5007577
:0676CA00E700A20292AFEE
:0176D0002297
:0276F9008F659B
:1076FB00A2AF92038565E375E400C2AF75E5037530
:10770B00E78075E64675E6B90075E50075E700A2FA
:03771B000392AF27
:01771E002248
:0A5813008E188F198B1A8A1B891C4E
:10581D00A2AF9204C2AF9005B7E4F0E51854FEFEB6
:10582D007F009005B8EEF0A3EFF09005B5E4F0A37E
:10583D00E4F09005B5E0FEA3E0FFC3EE94025056F0
:10584D009005B8E0FF8FE39005B9E0FF8FE475E5B3
:10585D000175E78075E64675E6B975E50075E700F3
:10586D009005B9E004F070069005B8E004F09005DD
:10587D00B5E0FEA3E0FF74B52FF58274033EF5830A
:10588D00E5E2F012000E9005B6E004F0700690050A
:10589D00B5E004F0809CE5185401FEAF199005B5F4
:1058AD00EEF0A3EFF0E51E451D6041AB1AAA1BA952
:1058BD001C122A36FF9005B5E0FCA3E0FD74B52D52
:1058CD00F58274033CF583EFF07401251CF51CE49F
:1058DD00351BF51B9005B6E004F070069005B5E09C
:1058ED0004F0E51E151E7002151D80B9E51854FE55
:1058FD00FE7F009005B8EEF0A3EFF09005B8E0FF45
:10590D008FE375E40075E50375E78075E64675E68A
:10591D00B90075E50075E7009005B5E4F0A3E4F076
:10592D009005B5E0FEA3E0FFC3EE9402505890053C
:10593D00B5E0FEA3E0FF74B52FF58274033EF58349
:10594D00E0FF8FE29005B8E0FF8FE39005B9E0FF2F
:10595D008FE475E50275E78075E64675E6B9007565
:10596D00E50075E7009005B9E004F070069005B804
:10597D00E004F012000E9005B6E004F070069005FC
:10598D00B5E004F0809AE51854FEFE7F009005B84E
:10599D00EEF0A3EFF09005B5E4F0A3E4F09005B5BB
:1059AD00E0FEA3E0FFC3EE940250789005B8E0FF4F
:1059BD008FE39005B9E0FF8FE475E50175E780751C
:1059CD00E64675E6B975E50075E7009005B9E004A2
:1059DD00F070069005B8E004F012000E9005B5E0E9
:1059ED00FEA3E0FF74B52FF58274033EF583E0FF4F
:1059FD00EF65E2601D9005B7E004F09005B7E0FF9C
:105A0D007E00C3EF9403EE64809480501B0258F91E
:105A1D0080169005B6E004F070069005B5E004F030
:105A2D000259AA9005B7E4F0A20492AF9005B7E031
:015A3D00FF69
:015A3E002245
:06751D008E568F578D58B9
:10752300A2AF9205C2AF8558E2E556FF7E00EF5445
:10753300FFF5E3AF57EF54FFF5E475E50275E78018
:1075430075E64675E6B90075E50075E700A2059294
:01755300AF88
:017554002214
:106C40009005BAE4F07BFF7A787959C003C002C09E
:106C5000017B017A0579BBA801AC02AD03D001D05C
:106C600002D0037E007F03122A10907FFAE493FF84
:106C70009005BAEFF0907FFBE493FF9005BBEFF037
:106C8000907FFCE493FF9005BCEFF0907FFDE493D0
:106C9000FF9005BDEFF07F7C1276F912000E7F7E2B
:106CA0001276F912000E9005BAE0FD7FFA7E7F128F
:106CB000751D9005BBE0FD7FFB7E7F12751D900565
:106CC000BCE0FD7FFC7E7F12751D9005BDE0FD7F61
:066CD000FD7E7F12751D20
:016CD600229B
:1038E30078B076007BFF7A78795CC003C002C001B0
:1038F3007B007A0079B7A801AC02AD03D001D002F6
:10390300D0037E007F03122A10907FFBE493FF789D
:10391300B7A607907FFCE493FF78B8A607907FFDD6
:10392300E493FF78B9A60778BA760078B7E6FF780C
:10393300BBA60778B8E6FF78BCA60778B9E6FF7898
:10394300BDA6077F007E007D007C0078BA122CD1D3
:10395300C3122C8E60137FFF7EFF7DFF7C0078BA3D
:10396300122CD1C3122C8E700C900040122D0F001C
:10397300000000800B78BA122CC5900040122CEA8C
:10398300907FFEE493FF78B7A607907FFFE493FF51
:1039930078B8A60778B7E6FF7E00EF7F00FE78B819
:1039A300E6FD7C00EF2DFFEE3CFE900376EEF0A3E8
:1039B300EFF0900376E0FEA3E0FFEFB4FF0EEEB46A
:1039C300FF0A900376E4F0A3E4F0801A900376E014
:1039D300FEA3E0FFD3EF94FFEE940040099003763B
:1039E300E4F0A374FFF0900376E0FEA3E0FF78B366
:1039F300A60608A60778B5760008760078B17600A3
:103A030008760078B3E6FE08E6FF78B1E6FC08E640
:103A1300FDC3ED9FEC9E4003023B5378B1E6FE08E5
:103A2300E6FF907C0075F003EF122D40EE75F00376
:103A3300A42583F583E493FF78B7A60778B1E6FE60
:103A430008E6FF907C0175F003EF122D40EE75F050
:103A530003A42583F583E493FF78B8A60778B1E63A
:103A6300FE08E6FF907C0275F003EF122D40EE7521
:103A7300F003A42583F583E493FF78B9A60778BA06
:103A8300760078B7E6FF78BBA60778B8E6FF78BC80
:103A9300A60778B9E6FF78BDA6077F007E007D0004
:103AA3007C0078BA122CD1C3122C8E60137FFF7E58
:103AB300FF7DFF7C0078BA122CD1C3122C8E700AC2
:103AC30078B406E618700106802078BBE6FF78B567
:103AD300E6FC08E6FD90004475F003ED122D40EC82
:103AE30075F003A42583F583EFF078BCE6FF78B582
:103AF300E6FC08E6FD90004575F003ED122D40EC61
:103B030075F003A42583F583EFF078BDE6FF78B560
:103B1300E6FC08E6FD90004675F003ED122D40EC3F
:103B230075F003A42583F583EFF078B606E61870E5
:103B3300010678B3E6FE08E6FFD3EF9404EE9401A2
:103B4300500E12000E78B206E618700106023A060D
:103B5300907FFAE493FF78B0A60778B0E6FF7E0083
:103B6300C3E49FEE6480F8E46480984003023CC29F
:103B730078B0E6FF7E00D3EF940AEE648094804031
:103B830003023CC278B0E6FF9005FCEFF078B0E6A4
:103B9300FF7E96EF8EF0A4FFAEF0E4FCFDEF2478F9
:103BA300FFEE3463FEED3465FDEC3419FC900346FF
:103BB300122CEA900346E0FCA3E0FDA3E0FEA3E0A1
:103BC300FF7B017A0579DB1250AF78B0E6FF7E9672
:103BD300EF8EF0A4FFAEF0E4FCFDEF2430FFEE34F3
:103BE300B0FEED346FFDEC3419FC900346122CEA61
:103BF300900346E0FCA3E0FDA3E0FEA3E0FF7B010E
:103C03007A0579D31250AF78B0E6FF7E96EF8EF047
:103C1300A4FFAEF0E4FCFDEF24D8FFEE34B0FEEDDC
:103C23003494FDEC3419FC900346122CEA900346BD
:103C3300E0FCA3E0FDA3E0FEA3E0FF7B017A0579AE
:103C4300EB1250AF78B0E6FF7E96EF8EF0A4FFAE96
:103C5300F0E4FCFDEF2470FFEE345CFEED3497FDE1
:103C6300EC3419FC900346122CEA900346E0FCA3C3
:103C7300E0FDA3E0FEA3E0FF7B017A0579CB1250C0
:103C8300AF78B0E6FF7E96EF8EF0A4FFAEF0E4FCD3
:103C9300FDEF24B0FFEE3469FEED349AFDEC3419E8
:103CA300FC900346122CEA900346E0FCA3E0FDA33C
:103CB300E0FEA3E0FF7B017A0579E31250AF22789F
:103CC300B0E6FF7E00C3740A9FEE6480F8E464806C
:103CD300984003023E4678B0E6FF7E00D3EF94148B
:103CE300EE648094804003023E4678B0E6FF900580
:103CF300FCEFF078B074F626F678B0E6FF7E96EF28
:103D03008EF0A4FFAEF0AB07AA06E4F9F8C374780B
:103D13009BFF74639AFE746599FD741998FC900374
:103D230046122CEA900346E0FCA3E0FDA3E0FEA3C9
:103D3300E0FF7B017A0579DB1250AF78B0E6FF7EB6
:103D430096EF8EF0A4FFAEF0AB07AA06E4F9F8C332
:103D530074309BFF74B09AFE746F99FD741998FCCC
:103D6300900346122CEA900346E0FCA3E0FDA3E097
:103D7300FEA3E0FF7B017A0579D31250AF78B0E65A
:103D8300FF7E96EF8EF0A4FFAEF0AB07AA06E4F930
:103D9300F8C374D89BFF74B09AFE749499FD741998
:103DA30098FC900346122CEA900346E0FCA3E0FD46
:103DB300A3E0FEA3E0FF7B017A0579EB1250AF7815
:103DC300B0E6FF7E96EF8EF0A4FFAEF0AB07AA0637
:103DD300E4F9F8C374709BFF745C9AFE749799FDC1
:103DE300741998FC900346122CEA900346E0FCA356
:103DF300E0FDA3E0FEA3E0FF7B017A0579CB12503F
:103E0300AF78B0E6FF7E96EF8EF0A4FFAEF0AB077F
:103E1300AA06E4F9F8C374B09BFF74699AFE749A16
:103E230099FD741998FC900346122CEA900346E01E
:103E3300FCA3E0FDA3E0FEA3E0FF7B017A0579E3A9
:033E43001250AF6B
:013E46002259
:105331007BFF7A78795FC003C002C0017B007A00ED
:105341007990A801AC02AD03D001D002D0037E0058
:105351007F03122A10900377E004F0700690037621
:10536100E004F0900376E0FEA3E0FFEEFF7E00781C
:1053710090A607900376E0FEA3E0FF7E007891A659
:10538100077B007A007990751D00751E027FFE7EF5
:105391007F12581390000DE0FCA3E0FDA3E0FEA3F3
:1053A100E0FF7810122C9FEF54FFFFEE5400FEED4A
:1053B1005400FDEC5400FC900376E0FCA3E0FD906A
:1053C100004175F003ED122D40EC75F003A4258327
:1053D100F583EFF090000DE0FCA3E0FDA3E0FEA358
:1053E100E0FF7808122C9FEF54FFFFEE5400FEED12
:1053F1005400FDEC5400FC900376E0FCA3E0FD902A
:10540100004275F003ED122D40EC75F003A42583E5
:10541100F583EFF090000DE0FCA3E0FDA3E0FEA317
:10542100E0FFEF54FFFFEE5400FEED5400FDEC549D
:1054310000FC900376E0FCA3E0FD90004375F003CF
:10544100ED122D40EC75F003A42583F583EFF09068
:10545100000DE0FCA3E0FDA3E0FEA3E0FF789912BC
:105461002CDE789376000876007893E6FE08E6FF56
:10547100C3EE940140030255367893E6FE08E6FF39
:105481007C007D03122AB07895A60608A6077895B8
:10549100E6FE08E6FFE42FF582747C3EF583E49393
:1054A100FF7890A607789606E6187001067895E6CB
:1054B100FE08E6FFE42FF582747C3EF583E493FF5A
:1054C1007891A607789606E6187001067895E6FEAB
:1054D10008E6FFE42FF582747C3EF583E493FF78C0
:1054E10092A607789D76007890E6FF789EA60778C9
:1054F10091E6FF789FA6077892E6FF78A0A6077F3E
:10550100007E007D007C00789D122CD1C3122C8E70
:1055110060237FFF7EFF7DFF7C00789D122CD1C32D
:10552100122C8E7002800E12000E789406E618700E
:10553100010602546A789AE6FF7890A607789BE6FE
:10554100FF7891A607789CE6FF7892A6077895E602
:10555100FE08E6FFEF24FEFFEE34FFFE7897A60675
:1055610008A6077897E6FE08E6FFEF2400FFEE3471
:105571007CFE7B007A007990751D00751E03125820
:1055810013900376E0FEA3E0FFC3EF94FFEE9400D7
:1055910040111269FE90003DE4F0900350E4F0A345
:0355A100746EF035
:0155A40022E4
:1069FE00900370E0FFEFC4540FFFEF5401FF7E00D1
:106A0E00EF64014E70237D847C037F2C7E0112691E
:106A1E00277D847C037F2C7E011269277D017C00FB
:106A2E007F087E07126927802E900370E0FFEFC467
:106A3E0013135403FFEF5401FF7E00EF64014E70F9
:106A4E00167D847C037F2C7E011269277D017C00DC
:106A5E007F087E07126927120006900372E0FFEF8F
:106A6E004402FF900372EFF0900370E0FFEF547F4B
:106A7E00FF900370EFF0900372E0FFEF54FBFF9076
:106A8E000372EFF0900370E0FFEF54BFFF900370BE
:106A9E00EFF0900370E0FFEF54EFFF900370EFF014
:106AAE00900373E0FFEF54FEFF900373EFF0C2A567
:066ABE0090000CE4F02240
:086ED0008F3E8E3D8D3C8C3B92
:106ED8007BFF7A787962C003C002C0017B007A0028
:106EE80079C6A801AC02AD03D001D002D0037E0060
:106EF8007F03122A10AF3EAE3DAD3CAC3B78C912C1
:106F08002CDEAF3EAE3DAD3CAC3B900040122CEACF
:106F180078CAE6FF78C6A60778CBE6FF78C7A60743
:106F280078CCE6FF78C8A6077B007A0079C6751D7D
:0B6F380000751E037FFB7E7F125813C4
:016F4300222B
:0855A5008F428E418D408C3FC6
:1055AD0078A776000876007BFF7A787965C003C00E
:1055BD0002C0017B007A0079A9A801AC02AD03D02D
:1055CD0001D002D0037E007F03122A10900376E0F3
:1055DD00FEA3E0FF78A7A60608A60778A176000827
:1055ED007600900376E0FEA3E0FF78A1E6FC08E6E6
:1055FD00FDC3ED9FEC9E400302575E78A1E6FE08C9
:10560D00E6FF126FAAAB42AA41A940A83FC3122CD4
:10561D008E60030257507FFE7EFF7DFF7C00AB4204
:10562D00AA41A940A83FC3122C8E70030257507F88
:10563D00007E007D007C00AB42AA41A940A83FC37B
:10564D00122C8E700302575078A1E6FE08E6FF7803
:10565D00A3A60608A607900376E0FEA3E0FF78A3B5
:10566D00E6FC08E6FDC3ED9FEC9E40030257327841
:10567D00A3E6FE08E6FF90004775F003EF122D40FC
:10568D00EE75F003A42583F583E0FF78A3E6FC080F
:10569D00E6FD90004475F003ED122D40EC75F0031E
:1056AD00A42583F583EFF078A3E6FE08E6FF9000CE
:1056BD004875F003EF122D40EE75F003A42583F528
:1056CD0083E0FF78A3E6FC08E6FD90004575F00346
:1056DD00ED122D40EC75F003A42583F583EFF078E2
:1056ED00A3E6FE08E6FF90004975F003EF122D408A
:1056FD00EE75F003A42583F583E0FF78A3E6FC089F
:10570D00E6FD90004675F003ED122D40EC75F003AB
:10571D00A42583F583EFF012000E78A406E6187029
:10572D000106025663900377E024FFF0900376E0C4
:10573D0034FFF0900376E0FEA3E0FFEF4E7004120D
:10574D0073712212000E78A206E61870010602553A
:10575D00EF900376E0FEA3E0FFEEFF7E0078A9A6B2
:10576D0007900376E0FEA3E0FF7E0078AAA6077BF4
:10577D00007A0079A9751D00751E027FFE7E7F12CD
:10578D00581378A1760008760078A7E6FE08E6FFA4
:10579D0078A1E6FC08E6FDC3ED9FEC9E506778A16D
:1057AD00E6FE08E6FF126FAA78AC122CDE78ADE6A5
:1057BD00FF78A9A60778AEE6FF78AAA60778AFE628
:1057CD00FF78ABA60778A1E6FE08E6FF7C007D0317
:1057DD00122AB078A5A60608A60778A5E6FE08E663
:1057ED00FFEF2400FFEE347CFE7B007A0079A97573
:1057FD001D00751E0312581312000E78A206E6182E
:05580D0070010680841B
:015812002273
:10737100900376E4F0A3E4F078D276000876007802
:10738100D2E6FE08E6FFC3EE9403502078D2E6FE73
:1073910008E6FF74442FF58274003EF583E4F01291
:0F73A100000E78D306E61870010680D3126C40F8
:0173B00022BA
:101E3E00900372E0FFEF20E7030225E2900372E0C9
:101E4E00FFEF547FFF900372EFF0900387E0FEA345
:101E5E00E0FFEF4E6010900388E024FFF0900387C0
:101E6E00E034FFF080059006BCE4F090038CE0FFB8
:101E7E00EF600690038CE014F0900017E0FEA3E0F4
:101E8E00FFEF4E600E900018E024FFF0900017E078
:101E9E0034FFF0900356E0FFEF6006900356E01417
:101EAE00F090001CE0FEA3E0FFEF4E600E90001DD0
:101EBE00E024FFF090001CE034FFF0900011E0FEF3
:101ECE00A3E0FFEF4E600E900012E024FFF09000B2
:101EDE0011E034FFF090036CE0FEA3E0FFEF4E60E4
:101EEE000E90036DE024FFF090036CE034FFF09051
:101EFE0003B2E0FFEF60069003B2E014F0900385AA
:101F0E00E0FEA3E0FFEF4E600E900386E024FFF0AC
:101F1E00900385E034FFF0900015E0FEA3E0FFEFA4
:101F2E004E600E900016E024FFF0900015E034FF96
:101F3E00F0900019E0FEA3E0FFEF4E600E90001A45
:101F4E00E024FFF0900019E034FFF0900350E0FE23
:101F5E00A3E0FFEF4E600E900351E024FFF09003DC
:101F6E0050E034FFF0900008E0FEA3E0FFEF4E607B
:101F7E0010900009E024FFF0900008E034FFF0809C
:101F8E004E900370E0FFEFC4540FFFEF5401FF7E3D
:101F9E0000EF64014E6038900370E0FFEFC413133E
:101FAE005403FFEF5401FF7E00EF64014E6020905A
:101FBE000373E0FFEF5401FF7E00EF64014E7002E9
:101FCE00800D90034CE4F0A3E4F090000CE4F030AC
:101FDE00A10302210B900373E0FFEF5401FF7E007B
:101FEE00EF64014E600E90034DE004F07006900316
:101FFE004CE004F09000087401F0A3745EF09000C1
:10200E000CE0FF7E00C3EF9402EE64809480407B70
:10201E00900370E0FFEFC4540FFFEF5401FF7E00FA
:10202E00EF4E7067900370E0FFEFC413135403FF7D
:10203E00EF5401FF7E00EF4E7051900376E0FEA349
:10204E00E0FFC3EF94FFEE94005040900370E0FF6A
:10205E00EF4440FF900370EFF07D847C037F087E99
:10206E00071269277D017C007F2C7E011269279063
:10207E00000CE004F090036E7415F0A37404F0905D
:10208E0000157401F0A374F4F08072900370E0FFF9
:10209E00EFC4540FFFEF5401FF7E00EF64014E704A
:1020AE001290000CE0FF7E00C3EF9401EE6480946A
:1020BE0080503B900373E0FFEF5401FF7E00EF640E
:1020CE00014E602A900370E0FFEFC413135403FF18
:1020DE00EF5401FF7E00EF64014E702190000CE082
:1020EE00FF7E00C3EF9403EE64809480400F900057
:1020FE0015E0FEA3E0FFEF4E70031269FE30A1590A
:10210E0090034CE0FEA3E0FFD3EF9403EE94004067
:10211E001890000CE0FF7E00C3EF940AEE648094EA
:10212E0080500690000CE004F0900372E0FFEFC3C5
:10213E0013FFEF5401FF7E00EF64014E7013900306
:10214E0072E0FFEF54FDFF900372EFF090000CE48D
:10215E00F090034CE4F0A3E4F090034CE0FEA3E017
:10216E00FFC3EF94C2EE9401405A900373E0FFEF69
:10217E004401FF900373EFF0900370E0FFEF54EF14
:10218E00FF900370EFF090034CE4F0A3E4F0120024
:10219E0006900373E0FFEF54FDFF900373EFF09092
:1021AE000028E4F0A37482F090036E7415F0A3740B
:1021BE0004F090000CE4F09000157401F0A374F498
:1021CE00F002225D90034CE0FEA3E0FFC3EF94FA11
:1021DE00EE9400407A900370E0FFEFC4540FFFEFCF
:1021EE005401FF7E00EF4E7066900373E0FFEF54D4
:1021FE0001FF7E00EF4E7057900370E0FFEF44102A
:10220E00FF900370EFF0900370E0FFEF4420FF901B
:10221E000370EFF07D847C037F087E071269277DB3
:10222E00847C037F2C7E011269277D017C007F2C2C
:10223E007E0112692790000CE004F090036E741575
:10224E00F0A37404F09000157401F0A374F4F090F0
:10225E000373E0FFEF5401FF7E00EF64014E706BDD
:10226E00900028E0FEA3E0FFEF4E705F900373E056
:10227E00FFEFC313FFEF5401FF7E00EF4E701D9072
:10228E000373E0FFEF4402FF900373EFF09000281A
:10229E007401F0A37486F0120006802F900373E091
:1022AE00FFEFC313FFEF5401FF7E00EF64014E708A
:1022BE001A900373E0FFEF54FDFF900373EFF0905D
:1022CE000028E4F0A37482F01278A5900370E0FF6A
:1022DE00EFC4540FFFEF5401FF7E00EF64014E6018
:1022EE002C900370E0FFEFC413135403FFEF54015F
:1022FE00FF7E00EF64014E6014900373E0FFEF5415
:10230E0001FF7E00EF64014E60030225E29003623E
:10231E00E004F07006900361E004F0900361E0FECB
:10232E00A3E0FFC3EF942EEE9400401F900361E4F0
:10233E00F0A3E4F0900385E0FEA3E0FFD3EF94005A
:10234E00EE94004004D2A58002B2A5900370E0FF87
:10235E00EFC41313135401FFEF5401FF7E00EF641B
:10236E00014E60030225C4900372E0FFEF13135475
:10237E003FFFEF5401FF7E00EF4E60030225C47F46
:10238E00FE7EFF7DFF7C0090000DE0F8A3E0F9A338
:10239E00E0FAA3E0FBC3122C8E7024900370E0FFD2
:1023AE00EFC4540FFFEF5401FF7E00EF64014E7037
:1023BE000E900372E0FFEF4404FF900372EFF09073
:1023CE000370E0FFEF547FFF900370EFF090037304
:1023DE00E0FFEF5401FF7E00EF64014E6003022424
:1023EE0078900373E0FFEF54FEFF900373EFF090CD
:1023FE000373E0FFEF54FDFF900373EFF090037053
:10240E00E0FFEF54BFFF900370EFF0900370E0FF1A
:10241E00EF54EFFF900370EFF01276D190000DE0C5
:10242E00FCA3E0FDA3E0FEA3E0FF126ED0900370CC
:10243E00E0FFEF131313541FFFEF5401FF7E00EF65
:10244E0064014E701F900370E0FFEF54F7FF90038E
:10245E0070EFF0900040E0FCA3E0FDA3E0FEA3E0EF
:10246E00FF1255A51269FE0225C4900370E0FFEF1E
:10247E00131313541FFFEF5401FF7E00EF64014E40
:10248E007011900370E0FFEF54F7FF900370EFF0C0
:10249E000225C41276D190036E7415F0A37404F065
:1024AE00900370E0FFEFC413135403FFEF5401FFCA
:1024BE007E00EF64014E70527FFE7EFF7DFF7C003A
:1024CE0090000DE0F8A3E0F9A3E0FAA3E0FBC3123D
:1024DE002C8E60367F007E007D007C00900040E0F8
:1024EE00F8A3E0F9A3E0FAA3E0FBC3122C8E70145C
:1024FE0090000DE0FCA3E0FDA3E0FEA3E0FF126E52
:10250E00D00225C41253310225C4900370E0FFEFB0
:10251E00C4540FFFEF5401FF7E00EF64014E6003C1
:10252E000225C4900370E0FFEFC4135407FFEF546D
:10253E0001FF7E00EF64014E705D900370E0FFEFCF
:10254E0054DFFF900370EFF0900376E4F0A3E4F015
:10255E00127371900040122D0F000000007F007E5C
:10256E00007D007C00126ED07FFE7EFF7DFF7C0022
:10257E0090000DE0F8A3E0F9A3E0FAA3E0FBC3128C
:10258E002C8E603290000DE0FCA3E0FDA3E0FEA3D4
:10259E00E0FF126ED0801F7FFE7EFF7DFF7C0090DD
:1025AE00000DE0F8A3E0F9A3E0FAA3E0FBC3122CC0
:1025BE008E600312533190036EE0FEA3E0FFEF4EE8
:1025CE00600F90036FE024FFF090036EE034FFF095
:0525DE00221269FE223B
:10771F00438540438590E58554FCFFEF4401F58593
:10772F007584005385F75385DF5385FB53A2DFD252
:02773F00942292
:1077BB008F66E58420E5FB856686E5845480FF7E35
:0B77CB0000EF4E60F5438480AF862283
:1075B9008F5E8D5F7F0112781BC2947F0112781B49
:1075C900E55E25E0FFEF4401F55EAF5E1277BBAFE4
:1075D9005F1277BB7F0112781BD2947F0112781B4F
:0175E900227F
:0274AA008F67EA
:1074AC009006E4E4F07F0112781BC2947F011278FD
:1074BC001BE56725E0F567AF671277BB7FFF127797
:1074CC00BB9006E4EFF07F0112781BD2947F01127F
:0774DC00781B9006E4E0FFBD
:0174E3002286
:086DE2008F288B298A2A892BD6
:106DEA009006E5E4F07F0112781BC2947F011278C5
:106DFA001BE52825E0FFEF4401F528AF281277BBF1
:106E0A00AB29AA2AA92B122A36FF1277BB9006E5CC
:106E1A007401F09006E5E0FFEFC3952C50247F0241
:106E2A0012781BAB29AA2AA92B9006E5E0FF8F82CC
:106E3A00758300122A4FFF1277BB9006E5E004F033
:0E6E4A0080D17F0112781BD2947F0112781B39
:016E58002217
:08700E008F2D8B2E8A2F893093
:107016009006E6E4F07F0112781BC2947F01127895
:107026001BE52D25E0F52DAF2D1277BB9006E6E486
:10703600F09006E6E0FFEFC3953150217FFF12770F
:10704600BBAB2EAA2FA9309006E6E0FE8E82758392
:1070560000EF122A8E9006E6E004F080D47F01123B
:09706600781BD2947F0112781B03
:01706F0022FE
:1033CF00016E00016F00410352034103A10041034D
:1033DF007000410372004103600041037300410319
:1033EF0074001C749555555555555655955556554C
:1033FF00955555559555555595555555955555556E
:10340F00420366000042003E000041039D0042035C
:10341F004A0000410027005003A2000000000000F6
:10342F000000000000000000000050038D000000AD
:10343F000000000000000000000000000041000A32
:10344F0000420389000001730042034E0000420353
:10345F00B30000027100004203440000420011005B
:10346F000042036C000063000044000000000000F5
:10347F00000000000000000000000000000000003D
:10348F00000000000000000000000000000000002D
:10349F00000000000000000000000000000000001D
:1034AF00000000000000000000000000000000000D
:10376F0000000000000000000000440040000000C6
:10377F000042037600004403680000000041003D52
:10378F00004103750044000D0000000042000800D6
:10379F000041000C0042034C000042036E00004247
:1037AF000361000042002800004103B2004203857C
:1037BF0000004200150000420019000042035000B3
:1037CF0000420387000042037F00004203640000B1
:1037DF004403810000000041038B00440346196538
:1037EF00637801700141036300420013000042033C
:1037FF009F00004103550041002A0042001C0000B9
:10380F004103710041001B00C10641038C004703B7
:10381F0078020711980952464103560042001700DB
:10382F00004103530041000B0041035400480000C6
:0C383F00000000000000000041039E009B
:102D7200900370E0FFEF20E00302332F900370E036
:102D8200FFEF54FEFF900370EFF09005FDE0FF7E31
:102D920000EF64014E70077F001246E38012900537
:102DA200FDE0FF7E00EF64024E70057F021246E3F3
:102DB200900370E0FFEFC313FFEF5401FF7E00EFBB
:102DC20064014E600302332F9005FDE0FF9006423E
:102DD200EFF0125A3F900370E0FFEFC4540FFFEF81
:102DE2005401FF7E00EF64014E602C900370E0FFFF
:102DF200EFC413135403FFEF5401FF7E00EF64018D
:102E02004E6014900373E0FFEF5401FF7E00EF6405
:102E1200014E6003022EF6900370E0FFEFC413131D
:102E2200135401FFEF5401FF7E00EF4E60030233A3
:102E32002F900375E0FF7E00EF64404E7003023373
:102E42002F7F007E007D007C00900368E0F8A3E005
:102E5200F9A3E0FAA3E0FBC3122C8E700302332F16
:102E6200900642E0FF7E00EF64014E600302332FC2
:102E7200900370E0FFEFC4540FFFEF5401FF7E0098
:102E8200EF64014E604B900370E0FFEFC4131354E4
:102E920003FFEF5401FF7E00EF64014E60149003C4
:102EA20073E0FFEF5401FF7E00EF64014E60030206
:102EB200332F7FFE7EFF7DFF7C00900368E0F8A346
:102EC200E0F9A3E0FAA3E0FBC3122C8E70030233F5
:102ED2002F900370E0FFEF4480FF900370EFF090BB
:102EE2000368E0FCA3E0FDA3E0FEA3E0FF90000D79
:102EF200122CEA22900370E0FFEF131313541FFF0A
:102F0200EF5401FF7E00EF64014E601F7FFE7EFFE3
:102F12007DFF7C00900368E0F8A3E0F9A3E0FAA348
:102F2200E0FBC3122C8E600302332F900370E0FF8C
:102F3200EF54F7FF900370EFF0900642E0FF7E003F
:102F4200EF64014E600302320E7FFE7EFF7DFF7C46
:102F520000900368E0F8A3E0F9A3E0FAA3E0FBC362
:102F6200122C8E700A900375E0FF90003DEFF090F6
:102F7200062AE0FCA3E0FDA3E0FEA3E0FFEF54FF7E
:102F8200FFEE54FFFEED5400FDEC5400FC7B567A3C
:102F92005579007800C3122C8E60030230ECD20601
:102FA2007F011246E3900370E0FFEFC313FFEF547B
:102FB20001FF7E00EF64014E600302332F125A3F7D
:102FC200900375E0FF7E00EF64FF4E705690037031
:102FD200E0FFEF131313541FFFEF5401FF7E00EFC6
:102FE20064014E700F900370E0FFEF54F7FF9003FF
:102FF20070EFF022900376E0FEA3E0FFC3EF94FFB0
:10300200EE9400400302332F1276D1900368E0FC65
:10301200A3E0FDA3E0FEA3E0FF90000D122CEA1254
:1030220053312290003DE0FF7E00EF4E60030233F9
:103032002F900370E0FFEF131313541FFFEF54019F
:10304200FF7E00EF64014E600302332F900370E0B5
:10305200FFEF54F7FF900370EFF01276D190036800
:10306200E0FCA3E0FDA3E0FEA3E0FF900040E0F857
:10307200A3E0F9A3E0FAA3E0FBC3122C8E705990EF
:103082000040122D0F000000007F007E007D007CBA
:1030920000126ED07F00126FAA7B007A007900784E
:1030A20000C3122C8E700302332F7F00126FAA907E
:1030B2000040122CEA900040E0FCA3E0FDA3E0FEF9
:1030C200A3E0FF126ED0900040E0FCA3E0FDA3E07D
:1030D200FEA3E0FF1255A522900368E0FCA3E0FDE9
:1030E200A3E0FEA3E0FF1255A522C20690003DE038
:1030F200FF7E00EF64404E7059900019E0FEA3E09D
:10310200FFEF4E704D9003A1E0FFEF4420FF9003CC
:10311200A1EFF09000117403F0A3747AF09003A170
:10312200E0FFEFC41313135401FFEF5401FF7E00BD
:10313200EF4E60030231F59003A1E0FFEF4480FF00
:103142009003A1EFF090034E740BF0A374B8F00259
:1031520031F590003DE0FF7E00EF64404E700302C7
:1031620031F59003A1E0FFEF54FDFF9003A1EFF0D2
:1031720090036CE4F0A3E4F09003A1E0FFEF54EFBE
:10318200FF9003A1EFF09003A1E0FFEFC4135407F7
:10319200FFEF5401FF7E00EF64014E700A900019A8
:1031A200746AF0A37440F090003DE0FFEF5414FF06
:1031B2007E00EF64144E701890034EE0FEA3E0FF11
:1031C200EF4E702F90034E740EF0A374BAF080236A
:1031D2009006BCE0FF7E00EF64014E700C90034E3F
:1031E2007402F0A37458F0800A90034E7403F0A3A3
:1031F20074E8F09003B37402F0A37458F09003A142
:10320200E0FFEF4440FF9003A1EFF022900642E07E
:10321200FF7E00EF64024E600302332F90003DE414
:10322200F0900034E0FFEFC4135407FFEF5407FFA0
:10323200900363EFF0900034E0FFEF541FFF7E0035
:10324200EF64014E700A900035E0FF90003DEFF010
:1032520090003DE0FFEF54A0FF7E00EF64204E603F
:103262001190003DE0FFEF54C0FF7E00EF64404E3E
:10327200700D90034E7401F0A374F4F002330A90BF
:10328200003DE0FFEF54DFFF7E00D3EF9480EE6459
:10329200809480406990003DE0FFEF5420FF7E0063
:1032A200EF4E705A90034E7403F0A374E8F090004E
:1032B2003DE0FFEF54DFFF7E00C3EF94C0EE648079
:1032C2009480501D90003DE0FFEF541FFF7E00EF01
:1032D2002404FFEE3400FE900013EEF0A3EFF08022
:1032E2002790003DE0FFEF541FFF7E00EF2404FF14
:1032F200EE3400FE90039FEEF0A3EFF0800A9003FD
:103302004E7403F0A374E8F0900373E0FFEF4440BF
:10331200FF900373EFF09003B3E4F0A37464F090B2
:0E33220003A1E0FFEF4440FF9003A1EFF02273
:0246E3008F68DE
:1046E500AF687E00EF4E600AAF687E00EF64014E52
:1046F50070089006D47403F08010AF687E00EF64F4
:10470500024E70069006D47407F09006D2E4F0903D
:1047150006D4E0FF9006D2E0FEEEC39F40030248B8
:104725004BAF687E00EF4E600AAF687E00EF640213
:104735004E70269006D2E0FFEF25E025E02426F511
:1047450082E43406F583E0FCA3E0FDA3E0FEA3E0EC
:10475500FF9006BE122CEA80249006D2E0FFEF25DA
:10476500E025E02432F582E43406F583E0FCA3E09D
:10477500FDA3E0FEA3E0FF9006BE122CEA9006C260
:10478500E4F0A3E4F09006BEE0FCA3E0FDA3E0FEA8
:10479500A3E0FF7801122C9F9006BE122CEA90062A
:1047A500D3E4F09006D3E0FF7E00C3EF9410EE64EF
:1047B500809480506A9006C2E0FEA3E0FFEF25E0FA
:1047C500FFEE33FE9006C2EEF0A3EFF09006BEE0DA
:1047D500FCA3E0FDA3E0FEA3E0FFEF5401FFEE54D0
:1047E50000FEED5400FDEC5400FCEC4D4E4F600E08
:1047F5009006C3E004F070069006C2E004F090064F
:10480500BEE0FCA3E0FDA3E0FEA3E0FF7802122CCE
:104815009F9006BE122CEA9006D3E004F0808490A7
:1048250006C2E0FEA3E0FF9006D2E0FDED25E02400
:10483500C4F582E43406F583EEF0A3EFF09006D2DA
:10484500E004F0024714AF687E00EF4E600DAF68DC
:104855007E00EF64014E60030249219006C6E0FE2A
:10486500A3E0FF9006C4E0FCA3E0FDED2FFFEC3EC6
:10487500FE9006C8E0FCA3E0FDEF6D7002EE6C60F3
:1048850003024912900370E0FFEF4402FF900370AA
:10489500EFF09006C6E0FEA3E0FF7E00E4FCFD7BA2
:1048A500007A0079017800122B63A804A905AA06ED
:1048B500AB079006C4E0FEA3E0FFE4FCFDEB2FFF91
:1048C500EA3EFEE93DFDE83CFC900368122CEA7FD8
:1048D500007E007D007C00900368E0F8A3E0F9A36A
:1048E500E0FAA3E0FBC3122C8E700E900370E0FF7C
:1048F500EF54FDFF900370EFF09006C6E0FEA3E0D5
:10490500FF7F00EEFF7E00900375EFF022900370AD
:10491500E0FFEF54FDFF900370EFF022AF687E00DB
:10492500EF64024E6003024A719006C6E0FEA3E002
:10493500FF9006C4E0FCA3E0FDED2FFFEC3EFE90EA
:1049450006C8E0FCA3E0FDEF2DFFEE3CFE9006CA95
:10495500E0FCA3E0FDEF2DFFEE3CFE9006CCE0FC75
:10496500A3E0FDEF2DFFEE3CFE9006CEE0FCA3E0BC
:10497500FDEF2DFFEE3CFE9006D0E0FCA3E0FDEF41
:104985006D7002EE6C6003024A63900370E0FFEF06
:104995004402FF900370EFF09006C6E0FEA3E0FF2F
:1049A5007E00E4FCFD7B007A0079017800122B6320
:1049B500A804A905AA06AB079006C4E0FEA3E0FF7C
:1049C500E4FCFDEB2FFFEA3EFEE93DFDE83CFC90F3
:1049D5000368122CEA7F007E007D007C009003684E
:1049E500E0F8A3E0F9A3E0FAA3E0FBC3122C8E7074
:1049F5000E900370E0FFEF54FDFF900370EFF09011
:104A050006C6E0FEA3E0FF7F00EEFF7E00900357A1
:104A1500EFF09006D2E4F09006D2E0FF7E00C3EFFF
:104A25009404EE6480948050439006D2E0FFEF2515
:104A3500E024C8F582E43406F583E0FEA3E0FF90A8
:104A450006D2E0FDED25E02458F582E43403F58334
:104A5500EEF0A3EFF09006D2E004F080BA229003C6
:0C4A650070E0FFEF54FDFF900370EFF0D5
:014A71002222
:105A3F009006BCE0FF7E00EF64014E70189003707B
:105A4F00E0FFEF4408FF900370EFF0900375E0FF65
:105A5F0090003DEFF0900642E0FF7E00EF64014EB4
:105A6F006003025BCE9006D5E4F0A3E4F09006D578
:105A7F00E0FEA3E0FF126FAA900368E0F8A3E0F93D
:105A8F00A3E0FAA3E0FBC3122C8E706B900376E0B9
:105A9F00FEA3E0FF9006D5EEF0A3EFF0900370E0C9
:105AAF00FFEF4408FF900370EFF0900642E0FF7E97
:105ABF0000EF64014E700C900375E0FF90003DEF16
:105ACF00F0807E900642E0FF7E00EF64024E707120
:105ADF007B017A037957C003C002C0017B017A00B2
:105AEF007934A801AC02AD03D001D002D0037E00FF
:105AFF007F09122A10804A900040E0FCA3E0FDA32A
:105B0F00E0FEA3E0FF900368E0F8A3E0F9A3E0FA5A
:105B1F00A3E0FBC3122C8E7028900376E0FEA3E067
:105B2F00FF9006D5EEF0A3EFF0900370E0FFEF4487
:105B3F0008FF900370EFF0900375E0FF90003DEFCA
:105B4F00F0900370E0FFEFC4540FFFEF5401FF7E9E
:105B5F0000EF64014E703F900370E0FFEFC41354E9
:105B6F0007FFEF5401FF7E00EF64014E7028900392
:105B7F0076E0FEA3E0FF9006D5EEF0A3EFF09003E2
:105B8F0070E0FFEF54F7FF900370EFF0900375E0B4
:105B9F00FF90003DEFF09006D6E004F070069006FF
:105BAF00D5E004F0900376E0FEA3E0FF9006D5E089
:105BBF00FCA3E0FDC3ED9FEC9E5003025A7C2290A4
:105BCF000642E0FF7E00EF64024E7055900040E009
:105BDF00FCA3E0FDA3E0FEA3E0FF900368E0F8A3C1
:105BEF00E0F9A3E0FAA3E0FBC3122C8E703390030D
:105BFF0070E0FFEF4408FF900370EFF07B017A0332
:105C0F007957C003C002C0017B017A007934A80123
:105C1F00AC02AD03D001D002D0037E007F09122A5F
:015C2F001064
:015C30002251
:086927008E438F448C458D4620
:10692F0078D4760008760078D4E6FE08E6FFC3EF49
:10693F009544EE95435051900372E0FFEF131313FC
:10694F00541FFFEF5401FF7E00EF4E701F90037234
:10695F00E0FFEF4408FF900372EFF0900372E0FF47
:10696F00EF54EFFF900372EFF01278A57F5012787B
:10697F001B7F5012781B7F5012781B12000E78D598
:10698F0006E618700106809F78D4760008760078A6
:10699F00D4E6FE08E6FFC3EF9546EE9545504F90BF
:1069AF000372E0FFEFC4540FFFEF5401FF7E00EFBF
:1069BF004E701F900372E0FFEF4410FF900372EFD1
:1069CF00F0900372E0FFEF54F7FF900372EFF012B5
:1069DF0000067F5012781B7F5012781B7F50127861
:0E69EF001B12000E78D506E61870010680A176
:0169FD002277
:1076D100D2A57D007C007FFC7E0812692790037291
:1076E100E0FFEF54F7FF900372EFF01200069003F2
:0876F10085E4F0A374B9F02256
:10725D00900372E0FFEF5401FF7E00EF4E703A9005
:10726D000372E0FFEF4401FF900372EFF078D676E2
:10727D000008760078D6E6FE08E6FFC3EF9403EE2D
:10728D00940050157D1A7C047F1A7E0412692778AC
:09729D00D706E61870010680DB3B
:0172A60022C5
:1070CC009006BAE0FF7E00EF64014E700D7D017CEE
:1070DC00007F2C7E0112692780359006BAE0FF7E76
:1070EC0000EF64024E70187D847C037F2C7E0112AD
:1070FC0069277D017C007F2C7E011269278010900E
:10710C0006BAE0FF7E00EF64034E70031278A59080
:05711C0006BAE4F022B8
:100BC20090003DE0FFEF54FFFF9006D7EFF0900357
:100BD2004EE0FEA3E0FFEF4E70030213C89006BC86
:100BE200E0FF7E00EF64014E60109006BCE0FF7EE5
:100BF20000EF64024E6003020C8490065EE0FF7E0A
:100C020000EF4E600302167A9006BCE0FF7E00EF12
:100C120064014E600302167A9006D7E0FFEF122DB0
:100C22004C0C64020C4A040C30080000167AD2A55F
:100C320078CF76A17B007A0079CD7D031274319052
:100C4200065E7401F002167AD2A578CF76A27B00F6
:100C52007A0079CD7D0312743190065E7401F00240
:100C6200167AD2A578CF76A47B007A0079CD7D035F
:100C720012743190065E7401F002167A02167A023C
:100C8200167A9006D7E0FFEF122D4C0DEA010E5BAB
:100C9200021042030E8F040F6A060EC308100F09DA
:100CA2000FDD0A0EF70C0CB2140D04400000107395
:100CB200D2A5900344E4F0A374FAF0900372E0FF2B
:100CC200EFC4135407FFEF13929190034EE0FEA37B
:100CD200E0FFC3EF94DEEE940D4003021073900325
:100CE20072E0FFEFC4135407FFEF13929290037266
:100CF200E0FFEFC4135407FFEF13929012725D02EC
:100D020010739003A1E0FFEFC313FFEF5401FF7EC6
:100D120000EF4E6003021073900019E0FEA3E0FFA3
:100D2200EF4E6003021073900642E0FF7E00EF6414
:100D3200014E6003021073D2A5900344E4F0A3E4D1
:100D4200F0900372E0FFEFC413135403FFEF13920A
:100D52009090034EE0FEA3E0FFD3EF94D0EE940711
:100D62004022900372E0FFEFC4135407FFEF139287
:100D720091900372E0FFEFC413135403FFEF139239
:100D82009202107390034EE0FEA3E0FFD3EF94E8CB
:100D9200EE94034023900372E0FFEFC41313540355
:100DA200FFEF139291900372E0FFEFC41313540309
:100DB200FFEF1392920210739003A1E0FFEF441031
:100DC200FF9003A1EFF0900372E0FFEFC4131354FE
:100DD20003FFEF139291900372E0FFEFC4135407E5
:100DE200FFEF139292021073D2A59005C9E0FF7E25
:100DF20000EF4E7031900372E0FFEFC413135403FF
:100E0200FFEF139291900372E0FFEFC4135407FFB8
:100E1200EF139292900372E0FFEFC4135407FFEFB7
:100E2200139290021073900372E0FFEFC4131354F5
:100E320003FFEF139291900372E0FFEFC413135478
:100E420003FFEF139292900372E0FFEFC413135467
:100E520003FFEF139290021073D2A5900372E0FF8A
:100E6200EFC413135403FFEF139292900372E0FF47
:100E7200EFC413135403FFEF139291900372E0FF38
:100E8200EFC4135407FFEF139290021073D2A59090
:100E92000372E0FFEFC413135403FFEF1392929017
:100EA2000372E0FFEFC413135403FFEF1392909009
:100EB2000372E0FFEFC4135407FFEF139291021085
:100EC20073D2A5900372E0FFEFC413135403FFEF34
:100ED200139291900372E0FFEFC413135403FFEFD8
:100EE200139290900372E0FFEFC4135407FFEF13C5
:100EF2009292021073D2A5900344E4F0A374FAF024
:100F0200900372E0FFEFC413135403FFEF139290A8
:100F1200900372E0FFEFC4135407FFEF1392919016
:100F220003A1E0FFEF1313543FFFEF5401FF7E00D4
:100F3200EF4E70149003A1E0FFEF4404FF9003A171
:100F4200EFF09003B27419F09003B2E0FF7E00EF6D
:100F52004E6003021073900372E0FFEFC413540754
:100F6200FFEF139292021073D2A5900344E4F0A310
:100F720074FAF0900372E0FFEFC413135403FFEF0F
:100F8200139292900372E0FFEFC4135407FFEF1322
:100F920092919003A1E0FFEF1313543FFFEF54012E
:100FA200FF7E00EF4E70149003A1E0FFEF4404FFB8
:100FB2009003A1EFF09003B27419F09003B2E0FF36
:100FC2007E00EF4E6003021073900372E0FFEFC4E5
:100FD200135407FFEF139290021073D2A59003727D
:100FE200E0FFEFC413135403FFEF139291900372C7
:100FF200E0FFEFC4135407FFEF139292900372E0E5
:10100200FFEFC4135407FFEF1392908064D2A590B0
:101012000372E0FFEFC413135403FFEF1392919096
:101022000372E0FFEFC413135403FFEF1392909087
:101032000372E0FFEFC4135407FFEF139292803163
:10104200D2A5900372E0FFEFC413135403FFEF1312
:101052009291900372E0FFEFC413135403FFEF1356
:101062009292900372E0FFEFC4135407FFEF1392C2
:1010720090900642E0FF7E00EF64024E600302128F
:101082000590003DE0FFEF54DFFF7E00D3EF948038
:10109200EE64809480500302119890003DE0FFEFCF
:1010A2005420FF7E00EF4E600302119890003DE055
:1010B200FFEF54DFFF7E00C3EF94C0EE64809480A4
:1010C200506B9003557401F090002AE4F0D2A59081
:1010D2000372E0FFEFC413135403FFEF13929190D6
:1010E2000372E0FFEFC413135403FFEF13929090C7
:1010F2000372E0FFEFC4135407FFEF1392929000C4
:1011020013E0FEA3E0FFEF2401FFEE3400FE7C03B8
:101112007DE8122AB07C007D6B122AC27C007D64BD
:10112200122AB0900344EEF0A3EFF08069900355C9
:10113200E4F090002A7401F0D2A5900372E0FFEF70
:10114200C413135403FFEF139291900372E0FFEF65
:10115200C4135407FFEF139290900372E0FFEFC4A1
:1011620013135403FFEF13929290039FE0FEA3E048
:10117200FFEF2401FFEE3400FE7C037DE8122AB06B
:101182007C007D6B122AC27C007D64122AB090031F
:1011920044EEF0A3EFF090003DE0FF7E00EF647FAD
:1011A2004E7060900374E0FFEF5401FF7E00EF4E3B
:1011B2007051900374E0FFEF1313543FFFEF54019B
:1011C200FF7E00EF4E703C900374E0FFEF4401FF9E
:1011D200900374EFF0900374E0FFEF54F7FF900375
:1011E20074EFF07B017A0379787D071274319003F2
:1011F200547401F090038C7411F0900017E4F0A382
:101202007464F0900355E0FF7E00EF64014E6010BD
:1012120090002AE0FF7E00EF64014E60030212C6D6
:1012220090003DE0FF7E00EF64024E70030212B4B4
:1012320090003DE0FF7E00EF64044E607590003D3B
:10124200E0FF7E00EF64084E606890003DE0FF7EA4
:1012520000EF64014E605B90003DE0FF7E00EF64B2
:10126200204E604E90003DE0FF7E00EF64404E60F5
:101272004190003DE0FF7E00EF64094E6034900033
:101282003DE0FF7E00EF64034E602790003DE0FFEB
:101292007E00EF640C4E601A90003DE0FF7E00EF8E
:1012A20064064E600D90003DE0FF7E00EF640A4E42
:1012B2007012900355E4F090002AE4F0900344E4A5
:1012C200F0A3E4F090003DE0FF7E00EF4E606B90F3
:1012D200003DE0FF7E00EF64024E605E90003DE064
:1012E200FF7E00EF64044E605190003DE0FF7E00FF
:1012F200EF64084E604490003DE0FF7E00EF640121
:101302004E603790003DE0FF7E00EF64204E602A81
:1013120090003DE0FF7E00EF64404E601D9003555B
:10132200E0FF7E00EF64014E601090002AE0FF7E35
:1013320000EF64014E600302167A900373E0FFEF40
:10134200131313541FFFEF5401FF7E00EF4E60038F
:1013520002167A900642E0FF7E00EF64024E6003BE
:1013620002167A900373E0FFEFC4540FFFEF5401AB
:10137200FF7E00EF4E600302167A900373E0FFEFE8
:10138200C413135403FFEF5401FF7E00EF64014EB8
:10139200600302167A900373E0FFEF4408FF9003A4
:1013A20073EFF090003DE0FF7E00EF4E700C900076
:1013B2001CE4F0A37423F002167A90001CE4F0A35C
:1013C2007423F002167A9003A1E0FFEFC313FFEF3C
:1013D2005401FF7E00EF64014E7026900011E0FE82
:1013E200A3E0FFEF4E701A9003A1E0FFEF54FDFF60
:1013F2009003A1EFF090036C7401F0A3740EF0D28D
:10140200A590036CE0FEA3E0FFEF4E700302149878
:1014120090036CE0FEA3E0FFD3EF94B4EE9400409F
:1014220021900372E0FFEFC4135407FFEF13929170
:10143200900372E0FFEFC413135403FFEF13929073
:10144200807290036CE0FEA3E0FFD3EF945AEE9417
:10145200004022900372E0FFEFC413135403FFEF26
:10146200139291900372E0FFEFC413135403FFEF42
:10147200139290803F900372E0FFEFC41313540362
:10148200FFEF139291900372E0FFEFC4135407FF32
:10149200EF139290801E9003A1E0FFEF54DFFF90C4
:1014A20003A1EFF0900372E0FFEFC413135403FFA4
:1014B200EF1392909003A1E0FFEF547FFF9003A1FE
:1014C200EFF0900372E0FFEF54FEFF900372EFF033
:1014D200900372E0FFEFC413135403FFEF139292D1
:1014E200900370E0FFEFC4540FFFEF5401FF7E0042
:1014F200EF64014E605A900370E0FFEFC41313547F
:1015020003FFEF5401FF7E00EF64014E604290033F
:101512006CE0FEA3E0FFEF4E7036900373E0FFEF46
:101522005401FF7E00EF64014E7002802390038518
:10153200E0FEA3E0FFD3EF9400EE94004004D2A5B6
:10154200800E90037FE0FEA3E0FFEF4E7002C2A583
:10155200900355E0FF7E00EF64014E600D90002A7B
:10156200E0FF7E00EF64014E705D900344E0FEA355
:10157200E0FFC3EF94E8EE94035024900344E0FEAE
:10158200A3E0FFD3EF9400EE94004013900372E0C7
:10159200FFEFC4135407FFEF139291D2A5805E9020
:1015A2000344E0FEA3E0FFEF4E7052900372E0FFAF
:1015B200EFC413135403FFEF139291900355E4F019
:1015C20090002AE4F08036900344E0FEA3E0FFEFAF
:1015D2004E702A90036CE0FEA3E0FFEF4E701E9067
:1015E2000372E0FFEFC413135403FFEF13929190C1
:1015F20003A1E0FFEF54FBFF9003A1EFF09003A1E2
:10160200E0FFEFC4540FFFEF5401FF7E00EF6401CF
:101612004E702A9003A1E0FFEF547FFF9003A1EFE9
:10162200F09003A1E0FFEF4402FF9003A1EFF090DE
:1016320003A1E0FFEF54EFFF9003A1EFF09003440A
:10164200E0FEA3E0FFEF4E702A90036CE0FEA3E001
:10165200FFEF4E701E900372E0FFEFC413135403AA
:10166200FFEF1392919003A1E0FFEF54FBFF900371
:10167200A1EFF090065EE4F09003B3E0FEA3E0FF7A
:10168200EF4E700E9003A1E0FFEF54BFFF9003A155
:02169200EFF077
:011694002233
:026FAA008F69ED
:106FAC0078BE122CF60000000078C27600AF69752E
:106FBC00F003EFA42444F582E5F03400F583E0FF00
:106FCC0078C3A607AF6975F003EFA42445F582E5F5
:106FDC00F03400F583E0FF78C4A607AF6975F003C1
:106FEC00EFA42446F582E5F03400F583E0FF78C584
:106FFC00A60778C2122CC578BE122CDE78BE122CD5
:01700C00C5BE
:01700D002260
:10384B004805DB23081999230791114805CB230C55
:10385B007777230BEEEF4805E3230CBBBC230C332C
:10386B00334805D323090000230877774805EB235A
:10387B000C3BBC230BB3334105C900602805FE008C
:10388B00000000000000000000000000000000002D
:10389B00000000000000000000000000000000001D
:1038AB00000000000000004105FD014105CA004178
:1038BB000642014105C8004105FB004105C7004117
:1038CB0005FC004805F30000000000000000015952
:0738DB0000015A00015B002F
:104314008B328A3389348D351278977F0D1274AAC3
:104324007E00EF30E0F5800280F17D117F00127590
:10433400B97DFF7F011275B97D9F7F021275B97D2A
:10434400C37F031275B97D037F041275B97D107F95
:10435400051275B97D007F061275B97D157F0712A8
:1043640075B97D007F081275B97D007F091275B992
:104374007D187F0A1275B97D887F0B1275B97D008F
:104384007F0C1275B97D087F0D1275B97D007F0E03
:104394001275B97D007F0F1275B97D007F101275FB
:1043A400B97D007F111275B97D007F121275B97D38
:1043B400007F131275B97D007F141275B97D007FDB
:1043C400151275B97D007F161275B97D007F17121D
:1043D40075B97D007F181275B97D007F191275B902
:1043E4007D007F1A1275B97D067F2D1275B97D0582
:1043F4007F3F1275B97D8B7F411275B97D007F4275
:104404001275B97D347F431275B97D087F451275E5
:10441400B97D007F4E1275B97D007F4F1275B97D4D
:10442400007F501275B97D007F511275B97D147FDC
:10443400541275B97D067F601275B97D887F631249
:1044440075B97D167F671275B97D107F681275B9CD
:104454007D037F691275B97D5B7F6E1275B97D002E
:104464007F7A1275B97D0C7F7B1275B97D007F7DD3
:104474001275B9AD367F7E1275B97D227F00127533
:10448400B97D077F021275B97DD07F031275B97D9E
:10449400007F041275B97D507F051275B97D277FA1
:1044A400111275B97D0C7F131275B97D027F1A1232
:1044B40075B9AB32AA33A934122A36FD7F1B1275A3
:1044C400B9AB32AA33A934758201758300122A4F1D
:1044D400FD7F1C1275B9AB32AA33A93475820275FB
:1044E4008300122A4FFD7F1D1275B9AB32AA33A97E
:1044F40034758203758300122A4FFD7F1E1275B92D
:10450400AB32AA33A934122A36FD7F1F1275B9AB18
:1045140032AA33A934758201758300122A4FFD7FB4
:10452400201275B9AB32AA33A9347582027583009F
:10453400122A4FFD7F211275B9AB32AA33A9347503
:104544008203758300122A4FFD7F221275B97D08FC
:104554007F231275B97D887F241275B97D087F2564
:104564001275B97D0F7F261275B97D007F271275EC
:10457400B97D007F281275B97D007F291275B9AD08
:10458400357F2A1275B97D087F2F1275B97D007F9A
:10459400301275B97DAE7F311275B9AB32AA33A929
:1045A40034758204758300122A4FFD7F4D1275B94C
:1045B400AB32AA33A934758205758300122A4FFDE4
:1045C4007F4E1275B9AB32AA33A93475820675834E
:1045D40000122A4FFD7F4F1275B9AB32AA33A934AA
:1045E400758207758300122A4FFD7F501275B97DBD
:1045F400047F511275B97D5A7F521275B97D667F59
:10460400531275B97D157F5C1275B97D1B7F5D12E0
:1046140075B97D057F5E1275B97D677F5F1275B9C7
:104624007D0C7F601275B91275877D447F00127509
:10463400B97D0F7F2A1275B97D447F001275B97D4B
:10464400007F4F1275B97D887F001275B97D3F7F59
:104654002F1275B97D417F0C1275B97D337F0D1210
:1046640075B97D547F0E1275B97D107F141275B91A
:104674007D037F241275B97D007F7E1275B97F702A
:104684007E5C7D977C19900346E0F8A3E0F9A3E0F3
:10469400FAA3E0FBC3122C8E601C7FB07E697D9A66
:1046A4007C19900346E0F8A3E0F9A3E0FAA3E0FB49
:1046B400C3122C8E7005126AC48003126B897D119B
:1046C4007F001275B97D017F6F1275B97F0D127469
:0F46D400AA7E00EF30E1F5800280F112779E227E
:1073B1007D227F001275B97D007F0E1275B97D881F
:1073C1007F001275B97D337F0D1275B97D117F0074
:1073D1001275B97D407F0C1275B97D807F4D127594
:1073E100B97D057F4E1275B97D047F511275B922A1
:106D6300E559122D4C6D75006D94016DD202000032
:106D73006DE1E55A25E0F55A30A402055AAF5A7E73
:106D830000EF64554E7057755901755B00755A00D5
:106D930022A2A4E433FFEF655B600E90003FE004A2
:106DA300F0700690003EE004F0900367E004F0709A
:106DB30006900366E004F0635B01900366E0FEA3C4
:106DC300E0FFC3EF94E8EE94034013755902229059
:0E6DD3000366E0FEA3E0FFEF4E70037559006B
:016DE100228F
:107172008F6A7D117F001275B9E56A122D4C7190EC
:107182000071990171A20271AB03000071B47D21FB
:107192007F761275B980227D117F761275B98019BA
:1071A2007D097F761275B980107D057F761275B9DB
:0F71B20080077D037F761275B97F0912674B2224
:10712100900366E0FEA3E0FFC3EF94E8EE94034012
:107131003190003EE0FEA3E0FFC3EF9432EE9400F5
:107141004004C2B58002D2B590003EE4F0A3E4F061
:10715100900366E4F0A3E4F090034A7404F0A3748E
:10716100E2F090034AE0FEA3E0FFEF4E7002C2B5E9
:0171710022FB
:106E5900900366E0FEA3E0FFC3EF94E8EE940340DD
:106E69005790003EE0FEA3E0FFD3EF94FFEE9400BD
:106E7900400890039D74FFF0800D90003EE0FEA352
:106E8900E0FF90039DEFF090003EE0FEA3E0FFC31A
:106E9900EF9432EE94004004C2B58002D2B590005E
:106EA9003EE4F0A3E4F0900366E4F0A3E4F0900379
:106EB9004A7404F0A374E2F090034AE0FEA3E0FFF1
:076EC900EF4E7002C2B5227A
:101695009005BF7402F09005C0E4F020E8259003A2
:1016A50073E0FFEFC41313135401FFEF5401FF7EE2
:1016B50000EF4E700E900373E0FFEF4480FF900340
:1016C50073EFF0900017E0FEA3E0FFEF4E702D9052
:1016D5000374E0FFEF5401FF7E00EF64014E701CC0
:1016E500900374E0FFEF54FEFF900374EFF0900356
:1016F50074E0FFEF54F7FF900374EFF0786EE6FFA8
:10170500EFC313FFEF5401FF7E00EF4E6003021994
:10171500187F707E5C7D977C19900346E0F8A3E006
:10172500F9A3E0FAA3E0FBC3122C8E601F7FB07E05
:10173500697D9A7C19900346E0F8A3E0F9A3E0FAE5
:10174500A3E0FBC3122C8E6003021918900374E00A
:10175500FFEF131313541FFFEF5401FF7E00EF64D7
:10176500014E6003021918900374E0FFEF5401FF66
:101775007E00EF64014E6003021918900356E0FFE6
:101785007E00EF4E6003021918900370E0FFEF131F
:1017950013543FFFEF5401FF7E00EF64014E601AC2
:1017A500900373E0FFEFC4135407FFEF5401FF7E6E
:1017B50000EF64014E6003021918900642E0FF7EB7
:1017C50000EF64024E60030219189005C0E4F09022
:1017D50005C0E0FF7E00C3EF9408EE64809480505E
:1017E500329005C0E0FFEF5401FF9005C0E0FEEE2A
:1017F500C313FEEE25E0241FF582E43400F583E5EE
:10180500822FF582E43583F583E4F09005C0E0048A
:10181500F080BC90001EE0FFEF441FFF90001EEF1C
:10182500F090001F7498F090000BE004F090000B0E
:10183500E0FF900020EFF0900689E0FFEF24FCFF29
:10184500900353E0FEEEC39F5058900353E0FF749E
:101855008C2FF582E43406F583E0FF9005BFE0FEAA
:10186500EE5401FE9005BFE0FDEDC313FDED25E04F
:10187500241FF582E43400F583E5822EF582E435F4
:1018850083F583EFF0900353E004F09005BFE00487
:10189500F09005BFE0FF7E00EF64084E709980026E
:1018A5008095900689E0FFEF24FCFF900353E0FE4E
:1018B500EFB5062A900020E0FFEF4480FF9000205E
:1018C500EFF0900374E0FFEF54F7FF900374EFF02F
:1018D500900374E0FFEF54FEFF900374EFF0900364
:1018E500527403F0900373E0FFEF4410FF9003730D
:1018F500EFF0900370E0FFEF54FBFF900370EFF003
:101905009005C8E4F09005FB7401F09005C7E4F07C
:10191500021B2C786EE6FFEFC313FFEF5401FF7E29
:1019250000EF4E6003021B2C7F707E5C7D977C1957
:10193500900346E0F8A3E0F9A3E0FAA3E0FBC312A5
:101945002C8E601F7FB07E697D9A7C19900346E0DE
:10195500F8A3E0F9A3E0FAA3E0FBC3122C8E600321
:10196500021B2C900373E0FFEF131313541FFFEFBB
:101975005401FF7E00EF64014E700C90001CE0FEE8
:10198500A3E0FFEF4E606B900373E0FFEFC413130A
:10199500135401FFEF5401FF7E00EF64014E6052C6
:1019A500900373E0FFEF1313543FFFEF5401FF7EE5
:1019B50000EF64014E6003021B2C90001CE0FEA3A7
:1019C500E0FFEF4E700D900642E0FF7E00EF6402EF
:1019D5004E601F9003B3E0FEA3E0FFEF4E600302ED
:1019E5001B2C900642E0FF7E00EF64014E6003026F
:1019F5001B2C900373E0FFEF54FBFF900373EFF094
:101A0500900373E0FFEF547FFF900373EFF07B01CA
:101A15007A00792BC003C002C0017B017A00791ED0
:101A2500A801AC02AD03D001D002D0037E007F092E
:101A3500122A1090001EE0FFEF54E0FFEF4401FF73
:101A450090001EEFF0900364E0FEA3E0FFEF240199
:101A5500FFEE34FFFE7C007D03122B17EF24CDFF34
:101A65009005BEEFF09005BEE0FFEFF404FF900592
:101A7500BEEFF0900642E0FF7E00EF64024E700E6E
:101A85009005BEE0FFEF4480FF9005BEEFF09005A6
:101A9500BEE0FF900021EFF0900373E0FFEF13131A
:101AA50013541FFFEF5401FF7E00EF64014E7020B9
:101AB500900363E0FFEF5407FFEFC43354E0FF905A
:101AC500001EE0FEEE541FFEEE4FFF90001EEFF0ED
:101AD500900373E0FFEF54F7FF900373EFF090006E
:101AE5001CE4F0A3E4F09003527403F0900373E058
:101AF500FFEF4410FF900373EFF0900370E0FFEFEA
:101B050054FBFF900370EFF09005C8E4F09005FBDF
:101B15007401F09005C7E4F090038BE4F090038125
:101B2500122D0F00000000900373E0FFEFC4540F67
:101B3500FFEF5401FF7E00EF64014E6003021CEDD0
:101B45009005FBE0FF7E00EF64014E70069005FBFB
:101B55007402F09005FBE0FF7E00EF64024E600327
:101B6500021CED9005C8E0FF7E00EF4E6003021CED
:101B750015786EE6FFEF4420FF786EA6077871763C
:101B85000108762CD2A7900040E0FCA3E0FDA3E07D
:101B9500FEA3E0FFC004C005C006C0077B017A00B4
:101BA500791EC003C002C0017B007A00790CA80130
:101BB500AC02AD03D001D002D0037E007F09122A0A
:101BC500107B007A0079748B158A168917D007D097
:101BD50006D005D004123E477F0312674B7D227F56
:101BE500001275B97D157F2A1275B97D117F001216
:101BF50075B91277EF7B007A0079747D1C1273F149
:101C050078D076000876649005C87401F0021CED62
:101C1500900352E0FF9005C8E0FEEEC39F5049785F
:101C25006EE6FFEFC413135403FFEF5401FF7E006C
:101C3500EF64014E7032900371E0FF7E00EF4E704D
:101C450027786EE6FFEF54BFFF786EA6077B007A14
:101C55000079747D1C1273F178D076000876649053
:101C650005C8E004F0021CED900352E0FF9005C8A2
:101C7500E0FEEE6F7072786EE6FFEFC41313540347
:101C8500FFEF5401FF7E00EF64014E705B9003711E
:101C9500E0FF7E00EF4E7050786EE6FFEF54BFFF19
:101CA500786EA6079005C8E004F0900373E0FFEF97
:101CB5004420FF900373EFF0900373E0FFEF54EFC0
:101CC500FF900373EFF090001B7401F0C2A790031F
:101CD50073E0FFEF54BFFF900373EFF0786EE6FFFC
:101CE500EF54DFFF786EA607900373E0FFEFC41390
:101CF5005407FFEF5401FF7E00EF64014E703E90E4
:101D0500001BE0FF7E00EF4E7033900374E0FFEFA1
:101D1500131313541FFFEF5401FF7E00EF4E701D88
:101D2500900373E0FFEF54DFFF900373EFF0900330
:101D350070E0FFEF4404FF900370EFF022786EE649
:101D4500FFEFC4135407FFEF5401FF7E00EF64015A
:101D55004E6003021E3D78D0E6FE08E6FFEF4E60BA
:101D650003021E3D786EE6FFEFC413135403FFEF25
:101D75005401FF7E00EF4E6003021E3D900373E0A9
:101D8500FFEFC4135407FFEF5401FF7E00EF4E60D1
:101D950003021E3D7F707E5C7D977C19900346E0B3
:101DA500F8A3E0F9A3E0FAA3E0FBC3122C8E7010B0
:101DB5007B017A0579CB75361C7D15124314802A73
:101DC5007FB07E697D9A7C19900346E0F8A3E0F91F
:101DD500A3E0FAA3E0FBC3122C8E700E7B017A05FB
:101DE50079E375361C7D151243141277EF7B007A63
:101DF5000079747D1C1273F178D0760008766490B2
:101E0500039EE004F090039EE0FF7E00C3EF940381
:101E1500EE64809480402190039EE4F0786EE6FFA6
:101E2500EF54DFFF786EA607900370E0FFEF4404E0
:081E3500FF900370EFF0C2A75B
:011E3D002282
:104D9D00D2A5786FE6FFEF54FEFF786FA607786F08
:104DAD00E6FFEF54F7FF786FA60730930302502309
:104DBD00786FE6FFEF5401FF7E00EF4E700DC2A538
:104DCD007D017C007FF47E01126927786FE6FFEF8D
:104DDD004401FF786FA60712000E786FE6FFEF1300
:104DED001313541FFFEF5401FF7E00EF4E600302BB
:104DFD00501D20E91220E80790000AE4F080199078
:104E0D00000A7401F0801120E80890000A7402F085
:104E1D00800690000A7403F090000AE0FF7E00EF18
:104E2D004E601090000AE0FF7E00EF64014E6003BB
:104E3D00024F49C2A3D2A2900360E0FFEF547FFF5F
:104E4D00900360EFF0C2B5900360E0FFEF54EFFF09
:104E5D00900360EFF0786FE6FFEF54FBFF786FA6DD
:104E6D0007900346122D0F1994B0D890000AE0FF59
:104E7D007E00EF4E705CD2A7900360E0FFEF54DF31
:104E8D00FF900360EFF0900360E0FFEF54FDFF90A3
:104E9D000360EFF0900360E0FFEF131313541FFF57
:104EAD00EF5401FF7E00EF4E6003024F4990036007
:104EBD00E0FFEF4408FF900360EFF07F0312674BB4
:104ECD007B017A0579EB7D01125DEF7F0012717226
:104EDD00806A90034EE0FEA3E0FFEF4E700C90034E
:104EED004E7401F0A374F4F0B2A7900360E0FFEFED
:104EFD004420FF900360EFF0900360E0FFEF54F764
:104F0D00FF900360EFF0900360E0FFEFC313FFEF3E
:104F1D005401FF7E00EF4E7023900360E0FFEF44DD
:104F2D0002FF900360EFF07F0312674B7B017A0560
:104F3D0079EB7D01125DEF7F0112717290000AE035
:104F4D00FF7E00EF64024E601090000AE0FF7E00CD
:104F5D00EF64034E600302501DD2A3C2A290036002
:104F6D00E0FFEF4480FF900360EFF0C2A790036075
:104F7D00E0FFEF54DFFF900360EFF0900360E0FF80
:104F8D00EF54F7FF900360EFF0900360E0FFEF54F4
:104F9D00FDFF900360EFF0900360E0FFEFC4540F4E
:104FAD00FFEF5401FF7E00EF4E7030900360E0FF85
:104FBD00EF4410FF900360EFF07F0312674B9003F7
:104FCD0046122D0F196FB0307B017A0579D37D0113
