:1065200012789012729D12000E1278D51238A512B0
:106530006F9C1277A31275C81278F412776112005B
:106540000E900346122C9C196563787B017A0579BD
:10655000DB75360C7D151242D690037F7401F0A3D3
:1065600074F4F012000E1278E0D2AF124D5F900377
:1065700070E0FFEF4404FF900370EFF07F061268B5
:106580001CD2A3C2A212000E9006BAE0FF7E00EF5A
:106590004E60031270C2900350E0FEA3E0FFEF4E86
:1065A0007003120B4E121DCB7F007E007D007C001D
:1065B000900040E0F8A3E0F9A3E0FAA3E0FBC312E7
:1065C0002C1B6003121621900370E0FFEF1313548D
:1065D0003FFFEF5401FF7E00EF64014E7006126230
:1065E000EC1264131270669003A1E0FFEFC4131362
:1065F0005403FFEF5401FF7E00EF64014E7004D29C
:10660000B580829003A1E0FFEFC413135403FFEFA2
:106610005401FF7E00EF4E6003026585C2B502653E
:026620008522D1
:10729D0075C7507F6412784D75E78075E30075E40E
:1072AD004075E50475E21875E64675E6B90075E5B5
:1072BD000075E7007F6412784D75E78075E3007502
:1072CD00E44175E50475E20675E64675E6B90075A7
:0672DD00E50075E7002248
:10789000439701E5E154F8FFEF4404F5E143E1804B
:0478A00043E120227E
:04000E0043E1102298
:106F9C005391F0439107D29343B4044391B053916E
:106FAC00BFD29643B4085395FDD2A14395AD5395EA
:106FBC00EFD2A443B41043B420C2A075B10075B293
:106FCC000053B3FCD2E8D2E943B440900372E0FF23
:106FDC00EF4420FF900372EFF0900372E0FFEF5448
:106FEC00BFFF900372EFF0C2A7C2B5C2A5C292C296
:066FFC0091C290C2B42214
:0C00160053C13FD28A53A1FD43C1022216
:030003000271B7D0
:1071B700C0E0C0F0C083C082C0D075D000C000C09E
:1071C70001C002C003C004C005C006C0077871E64D
:1071D700FFEF5401FF7E00EF4E7005125BF6800350
:1071E700126DC8D007D006D005D004D003D002D086
:0E71F70001D000D0D0D082D083D0F0D0E032D2
:0300130002720571
:10720500C0E0C0F0C083C082C0D075D000C000C04F
:1072150001C002C003C004C005C006C0077871E6FE
:10722500FFEF5401FF7E00EF4E7005125BF6800301
:10723500126DC8D007D006D005D004D003D002D037
:0E72450001D000D0D0D082D083D0F0D0E03283
:0A78E000120016D2AAD2A9D2AC22DF
:042CFF0002D20000FD
:1077A300E58954FCFFEF4401F58953A1EF53A3FB93
:0F77B3005389FB5389F7758ACB758CFAD28C22D8
:03000B00025F523F
:105F5200C0E0C083C082C0D075D000C000C006C0FF
:105F620007758CFA758ACB90034EE0FEA3E0FFEF33
:105F72004E600E90034FE024FFF090034EE034FF9A
:105F8200F090037FE0FEA3E0FFEF4E600E900380EF
:105F9200E024FFF090037FE034FFF09003B3E0FED3
:105FA200A3E0FFEF4E600E9003B4E024FFF09003F5
:105FB200B3E034FFF07873E6FE08E6FFEF4E6008C8
:105FC2007874E61618700116900344E0FEA3E0FF11
:105FD200EF4E600E900345E024FFF0900344E0345E
:105FE200FFF07875E6FFEF60057875168012787518
:105FF200760A900372E0FFEF4480FF900372EFF0A5
:106002009006B1E0FFEF60069006B1E014F0900058
:106012001BE0FFEF600690001BE014F0900371E0BC
:10602200FFEF6006900371E014F090034AE0FEA3D4
:10603200E0FFEF4E600E90034BE024FFF090034A26
:10604200E034FFF0900028E0FEA3E0FFEF4E600E88
:10605200900029E024FFF0900028E034FFF078D28D
:10606200E6FE08E6FFEF4E600878D3E616187001E8
:1060720016900389E0FEA3E0FFEF4E600E90038AC4
:10608200E024FFF0900389E034FFF0D007D006D07F
:0A60920000D0D0D082D083D0E032DD
:1072E300E5D954F1FFEF440AF5D975AC0175DA021B
:1072F30075AC0075AC01E5F244C0F5F275AC005312
:10730300BC7F75AC01800543F203800975EA6D7596
:10731300FAF453F2FC75AC0075F9E875E9DA75CF48
:05732300E875CEDA223E
:0478F4001272E32207
:0378F800D2DE22BB
:05000600C2DEC2A022D1
:10784D008F1FAF1F7E00EF4E600C00000000000088
:07785D000000151F80EC2262
:107783008F62AF621562EF60167FC812784D7FC8B3
:1077930012784D7FC812784D7FC812784D80E3224E
:0E78C70000000000000000000000284F4B29C8
:102D03004106B9004106BB00C1014106B2004106BC
:102D1300B4004106B3006029065F00000000000014
:102D230000000000000000000000000000000000A0
:102D33000000000000000000000000000000000090
:102D43000000006029068800000000000000000069
:102D53000000000000000000000000000000000070
:102D63000000000000000000000000000000000060
:102D7300440659000000004106BD0003CF020300D2
:102D83004106B1004106BC004106BA0041065D00A0
:0B2D930041065E004406B50000000091
:10759600539CEFC29FD29ED29CC2CDC2CC539C7F3D
:1075A600438780539CBFE58954CFFFEF4420F5897C
:1075B60043A3085389BF53897F758D98758B98D2DD
:0275C6008E2213
:1075C800539CEFD29FD29ED29CC2CDC2CC539C7FFB
:1075D800438780539CBFE58954CFFFEF4420F5894A
:1075E80043A3085389BF53897F758D98758B98D2AB
:0275F8008E22E1
:0300230002662250
:10662200C0E0C0F0C083C082C0D075D000C000C03E
:0D66320001C002C003C004C005C006C007BF
:10663F0078DA7600C0AC75AC00309902C299209818
:10664F0003026703C29878DAA6997871E6FFEF54D0
:10665F0001FF7E00EF4E701B78DAE6FFEFA2D0B39A
:10666F00309A01B3500302670378DAE6FF1267200E
:10667F0002670378DAE6FFEFB42805900027E4F00D
:10668F0078DAE6FF900027E0FE74A22EF582E4345C
:10669F0003F583EFF0900027E0FFEF04FFEF541FA7
:1066AF00FF900027EFF078DAE6FFEF642970457866
:1066BF00DA7600900027E0FF78DAE6FEEEC39F500F
:1066CF002578DAE6FF74A22FF582E43403F583E030
:1066DF00FF78DAE6FE748D2EF582E43403F583EF4E
:1066EF00F078DA0680CD9003A1E0FFEF4401FF9030
:0666FF0003A1EFF0D0AC96
:10670500D007D006D005D004D003D002D001D000E8
:0B671500D0D0D082D083D0F0D0E03292
:0277FD008F6398
:1077FF00A2AC9200C2ACE563A2D0B3929B85639911
:09780F003099FDC299A20092AC6F
:01781800224D
:0874AF008B378A3889398D3AC8
:1074B700900643E4F0900643E4F0900643E0FFEFC4
:1074C700C3953A501FAB37AA38A939900643E0FF56
:1074D7008F827583001229DCFF1277FD900643E047
:0474E70004F080D657
:0174EB00227E
:0276BB008F64DA
:1076BD00AF647E00C3EF943AEE64809480500CE585
:1076CD0064540FFF900644EFF0800AE56424C9FF6F
:0A76DD00900644EFF0900644E0FF31
:0176E7002280
:02762C008F6568
:10762E0053650FAF657E00C3EF940AEE64809480BD
:10763E00500CE5654430FF900645EFF0800AE56595
:0D764E002437FF900645EFF0900645E0FF61
:01765B00220C
:0477C2008F538D5400
:1077C600AF531276BBEFC454F0FDAF541276BBEF45
:0977D600540FFFED2FF555AF55DE
:0177DF002287
:106720008F669006B2E0FFEF122CD96735006798AC
:1067300001000067CB900660E0FF90065FEFF090ED
:106740000661E0FF900660EFF0900661E566F0906C
:10675000065FE0FF7E00EF64024E7079900661E014
:10676000FF7E00EF64114E706C9006BD7401F090D6
:1067700006B2E004F0900660E0FF9006B4EFF090FF
:1067800006B4E0FF7E00C3EF9429EE64809480405D
:10679000449006B2E4F0803D9006B3E0FF74622FAF
:1067A000F582E43406F583E566F09006B3E004F084
:1067B0009006B4E0FFEF24FDFF9006B3E0FEEEC3C9
:1067C0009F40129006B2E004F0800A9006B2E4F016
:1067D0009006BDE4F09006B2E0FF7E00EF64024E4A
:1067E0007039124A349006B2E4F09006B3E4F090A7
:1067F0000659E0FF7E00EF64934E600D900659E06D
:10680000FF7E00EF64984E70069006BDE4F0229083
:0C68100006BD7402F09006B17402F02284
:104A340078DB760078DB760078DBE6FF7E00C3EF78
:104A44009404EE64809480502578DBE6FF74622F32
:104A5400F582E43406F583E0FF78DBE6FE74592E34
:104A6400F582E43406F583EFF078DB0680CA90061D
:104A740059E0FF7E00EF64924E6003024BD1900335
:104A840073E0FFEF4404FF900373EFF090034EE0F4
:104A9400FEA3E0FFEF4E700E90002BE0FFEF541FDB
:104AA400FF90002BEFF078DB760078DBE6FF7E00EA
:104AB400C3EF9402EE64809480503D78DBE6FF748B
:104AC4005A2FF582E43406F583E0FF78DBE6FEEE48
:104AD4005401FE78DBE6FDEDC313FDED25E0242C47
:104AE400F582E43400F583E5822EF582E43583F51E
:104AF40083EFF078DB0680B290065AE0FFEF540FA4
:104B0400FF7E00EF64034E601190065AE0FFEF54FD
:104B14000FFF7E00EF64044E7010900374E0FFEF0B
:104B24004404FF900374EFF0800E900374E0FFEFF1
:104B340054FBFF900374EFF078D1760090065AE0AE
:104B4400FFEFC4540FFFEF540FFFEF122CD94B6F3C
:104B5400034B6F044B6F054B6F064B6F074B6F088E
:104B640000004B6A800578D176012290065AE0FF56
:104B7400EF540FFFEF122CD94B99014B99024B992B
:104B8400034B99044B99054B990600004B948005FF
:104B940078D176012290065BE0FFEF122CD94D5EAE
:104BA400004D5E044D5E064D5E454D5E464D5E47CE
:104BB4004D5E484D5E494D5E4A4D5E4B4D5E4C4DDB
:104BC4005E4D00004BCB2278D1760122229006590B
:104BD400E0FF7E00EF64984E6003024C6290035441
:104BE400E4F090038CE4F078DB760078DBE6FF7E7B
:104BF40000C3EF9429EE64809480502578DBE6FFAF
:104C0400745F2FF582E43406F583E0FF78DBE6FE7B
:104C140074882EF582E43406F583EFF078DB0680A1
:104C2400CA900374E0FFEF4408FF900374EFF09020
:104C34000689E0FF7E00EF2401FFEE3400FE7C00D5
:104C44007D07122A3D900017EEF0A3EFF090035376
:104C5400E4F090000BE4F09003567426F0229006E2
:104C640059E0FF7E00EF64914E7075900376E0FE8C
:104C7400A3E0FFEF4E704E7F007E007D007C00902D
:104C84000040E0F8A3E0F9A3E0FAA3E0FBC3122C90
:104C94001B703278D176009006BC7401F090065DEA
:104CA400E0FF7E00C3EF9403EE648094805006908E
:104CB400065DE004F090065EE4F09003877403F070
:104CC400A374E8F02278D176019006BC7402F090C7
:104CD40003877403F0A374E8F09006BA7401F02219
:104CE400900659E0FF7E00EF64934E706990065A77
:104CF400E0FFEF122CD94D10014D21024D32044D2D
:104D040043FA4D4AFB4D51FC00004D5E90003D744A
:104D140008F090034E7403F0A374E8F02290003D71
:104D24007404F090034E7403F0A374E8F02290002E
:104D34003D7402F090034E7403F0A374E8F02290E3
:104D440006BA7401F0229006BA7402F0229006BAF0
:0A4D54007403F022222278D17601C8
:014D5E002232
:107066009006BDE0FF7E00EF64024E70219006B1EF
:10707600E0FF7E00EF4E70169006BD7403F07B00B5
:107086007A0079CF7D031274AF9006BDE4F09003C9
:1070960054E0FF7E00EF64014E702090038CE0FF09
:1070A6007E00EF4E70157B017A0379787D071274A6
:0C70B600AF900354E4F090038CE4F0224F
:100026007BFF7A7879C7C003C002C0017B017A06DC
:100036007946A801AC02AD03D001D002D0037E0000
:100046007F0A12299D7BFF7A7879D1C003C002C04E
:10005600017B017A067950A801AC02AD03D001D02C
:1000660002D0037E007F0412299D900658E4F0908A
:1000760003A1E0FFEF20E003020B349003A1E0FFB1
:10008600EF54FEFF9003A1EFF090038EE0FFEF64C4
:1000960054600302011990038FE0FFEF644570730B
:1000A600900390E0FFEF64537069900391E0FFEFD7
:1000B6006454705F900392E0FFEF64297055787185
:1000C600E6FFEF4408FF7871A6077871E6FFEF5464
:1000D600FBFF7871A6077871E6FFEF54FDFF787194
:1000E600A607C2A5C2A7C2B5C291C290C29290038A
:1000F60066E4F0A3E4F090003EE4F0A3E4F090039D
:100106009DE4F07F0312681C7B017A0679507D041A
:100116001274AF7871E6FFEF131313541FFFEF54F9
:1001260001FF7E00EF64014E6003020B3490038EE4
:10013600E0FFEF122CD901B94502774608594B0862
:10014600D750055D520155530AB35700000B349042
:10015600038FE0FFEF64296003020B347871E6FF3A
:10016600EF1313543FFFEF5401FF7E00EF64014E7F
:100176007002C2B57871E6FFEF54FBFF7871A607EF
:100186007871E6FFEF54FDFF7871A607C2A3D2A2ED
:100196007F0312681C7B017A0579EB7D01125DBC39
:1001A6007F001271687B017A0679507D041274AF64
:1001B600020B3490038FE0FFEF644E706C90039057
:1001C600E0FFEF64447062900391E0FFEF642970F2
:1001D600587871E6FFEF54F7FF7871A6077871E655
:1001E600FFEF54FBFF7871A6077871E6FFEF54FD29
:1001F600FF7871A607C2A5C2A7C2B5C291C290C2B6
:1002060092900366E4F0A3E4F090003EE4F0A3E4E9
:10021600F090039DE4F07F0312681C7B017A067957
:10022600507D041274AF020B3490038FE0FFEF642D
:10023600486003020B34900390E0FFEF64296003EB
:10024600020B34900376E4F0A3E4F01273EF90000F
:1002560040122C9C000000007F007E007D007C0088
:10026600126EBE7B017A0679507D041274AF020BC2
:100276003490038FE0FFEF644D7061900390E0FFD0
:10028600EF642970577871E6FFEF1313543FFFEFC1
:100296005401FF7E00EF64014E7002C2B57871E62C
:1002A600FFEF54FBFF7871A6077871E6FFEF440273
:1002B600FF7871A607C2A3D2A27F0312681C7B0136
:1002C6007A0579EB7D01125DBC7F011271687B01B5
:1002D6007A0679507D041274AF020B3490038FE0D6
:1002E600FFEF6443705D900390E0FFEF643F70534F
:1002F600900391E0FFEF642970499006467428F058
:100306009006477446F09006487443F09005FCE06A
:10031600FFEFC4540FFF12762C900649EFF09005BC
:10032600FCE0FFEF540FFF12762C90064AEFF09098
:10033600064B7429F07B017A0679467D061274AF66
:10034600020B3490038FE0FFEF64436003020B342B
:10035600900392E0FFEF64296003020B347871E6A4
:10036600FFEFC313FFEF5401FF7E00EF64014E6001
:1003760003020B347871E6FFEF54FBFF7871A60792
:100386009003A5E0FF9003A6E0FD1277C290065801
:10039600EFF07F0312681CC2A3D2A2900658E0FFBA
:1003A6007E00D3EF940AEE648094804003020468D2
:1003B600900658E0FF9005FCEFF07B017A0579FC8A
:1003C600751D00751E017FFA7E7F1257D89006585C
:1003D600E0FF7E96EF8EF0A4FFAEF0E4FCFDEF2486
:1003E600D8FFEE34B0FEED3494FDEC3419FC9006E3
:1003F600B5122C779006B5E0FCA3E0FDA3E0FEA3C2
:10040600E0FF7B017A0579EB1250747B017A05795E
:10041600EB7D01125DBC900658E0FF7E96EF8EF0F4
:10042600A4FFAEF0E4FCFDEF2430FFEE34B0FEEDA9
:10043600346FFDEC3419FC9006B5122C779006B596
:10044600E0FCA3E0FDA3E0FEA3E0FF7B017A0579D3
:10045600D31250747B017A0679507D041274AF0270
:100466000555900658E0FF7E00C3740A9FEE64802F
:10047600F8E46480984003020555900658E0FF7E34
:1004860000D3EF9414EE64809480400302055590E7
:100496000658E0FF9005FCEFF07B017A0579FC75C4
:1004A6001D00751E017FFA7E7F1257D8900658E010
:1004B60024F6F0900658E0FF7E96EF8EF0A4FFAE8D
:1004C600F0AB07AA06E4F9F8C374D89BFF74B09A98
:1004D600FE749499FD741998FC9006B5122C7790C9
:1004E60006B5E0FCA3E0FDA3E0FEA3E0FF7B017AF6
:1004F6000579EB1250747B017A0579EB7D01125D6B
:10050600BC900658E0FF7E96EF8EF0A4FFAEF0ABEF
:1005160007AA06E4F9F8C374309BFF74B09AFE7418
:100526006F99FD741998FC9006B5122C779006B554
:10053600E0FCA3E0FDA3E0FEA3E0FF7B017A0579E2
:10054600D31250747B017A0679507D041274AF7F02
:1005560001127168020B3490038FE0FFEF64536061
:10056600030205FA900390E0FFEF6453600302056F
:10057600FA900391E0FFEF64497079900392E0FFEF
:10058600EF6429706F7871E6FFEF1313543FFFEFA6
:100596005401FF7E00EF64014E70599006467428A0
:1005A600F09006477452F09006487453F09006494E
:1005B6007453F090064A7449F090039DE0FFEF549F
:1005C600FFFFEFC4540FFF12762C90064BEFF0900E
:1005D600039DE0FFEF540FFF12762C90064CEFF0D0
:1005E60090064D7429F07B017A0679467D081274CF
:1005F600AF020B3490038FE0FFEF6453706D9003EE
:1006060090E0FFEF64297063C2B57871E6FFEF549E
:10061600FDFF7871A607900366E4F0A3E4F090006E
:100626003EE4F0A3E4F090039DE4F0D2A3C2A27FDF
:100636000312681C900346122C9C196FB0307B0184
:100646007A0579D37D01125DBC12742F7F0612687C
:100656001C7871E6FFEF4404FF7871A6077B017AE8
:100666000679507D041274AF020B3490038FE0FFBD
:10067600EF644E6003020718900390E0FFEF6429D1
:1006860060030207187F007E007D007C009000401A
:10069600E0F8A3E0F9A3E0FAA3E0FBC3122C1B6089
:1006A60012900376E0FEA3E0FFEF04FF900658EFFA
:1006B600F0800D900376E0FEA3E0FF900658EFF081
:1006C6009006467428F09006477452F090064874D7
:1006D6004EF0900658E0FFEF54FFFFEFC4540FFFB3
:1006E60012762C900649EFF0900658E0FFEF540F73
:1006F600FF12762C90064AEFF090064B7429F09084
:100706000658E4F07B017A0679467D061274AF023C
:100716000B3490038FE0FFEF64476003020B3490C5
:100726000392E0FFEF64296003020B34900390E02C
:10073600FFEF64306003020B34900391E0FFEF6437
:10074600306003020B34900654E4F0907FFBE49390
:10075600FF900655EFF0907FFCE493FF900656EF6E
:10076600F0907FFDE493FF900657EFF07F007E0048
:100776007D007C00900654E0F8A3E0F9A3E0FAA31C
:10078600E0FBC3122C1B601C7FFF7EFF7DFF7C00FD
:10079600900654E0F8A3E0F9A3E0FAA3E0FBC31245
:1007A6002C1B700C900040122C9C00000000801442
:1007B600900654E0FCA3E0FDA3E0FEA3E0FF90005A
:1007C60040122C779006467428F09006477452F033
:1007D6009006487447F0900655E0FFEFC4540FFFAB
:1007E60012762C900649EFF0900655E0FFEF540F75
:1007F600FF12762C90064AEFF0900656E0FFEFC403
:10080600540FFF12762C90064BEFF0900656E0FF41
:10081600EF540FFF12762C90064CEFF0900657E03F
:10082600FFEFC4540FFF12762C90064DEFF09006A2
:1008360057E0FFEF540FFF12762C90064EEFF09024
:10084600064F7429F07B017A0679467D0A1274AF49
:10085600020B3490038FE0FFEF64596003020B3400
:10086600900390E0FFEF64296003020B3490064684
:100876007428F0900647744BF09006487459F0902F
:10088600064DE4F0A2A1E433FF90064DE0FEEF4EE4
:10089600FF90064DEFF090064DE0FFEF54FFFFEF9F
:1008A600C4540FFF12762C900649EFF090064DE0E7
:1008B600FFEF540FFF12762C90064AEFF090064B8E
:1008C6007429F07B017A0679467D061274AF020B15
:1008D6003490038FE0FFEF644860030209C590037C
:1008E60092E0FFEF642960030209C5900390E0FFE0
:1008F600EFB43219900391E0FFEFB43510D2A57B27
:10090600017A0679507D041274AF020B349003907D
:10091600E0FFEFB43219900391E0FFEFB43710D245
:10092600A77B017A0679507D041274AF020B3490CE
:100936000390E0FFEFB43319900391E0FFEFB43575
:1009460010D2B57B017A0679507D041274AF020B82
:1009560034900390E0FFEFB43119900391E0FFEF7C
:10096600B43110D2917B017A0679507D041274AFAE
:10097600020B34900390E0FFEFB43119900391E03D
:10098600FFEFB43010D2907B017A0679507D0412C5
:1009960074AF020B34900390E0FFEF643160030202
:1009A6000B34900391E0FFEF64326003020B34D204
:1009B600927B017A0679507D041274AF020B349053
:1009C600038FE0FFEF644C6003020B34900392E068
:1009D600FFEF64296003020B34900390E0FFEFB44D
:1009E6003219900391E0FFEFB43510C2A57B017A6E
:1009F6000679507D041274AF020B34900390E0FF29
:100A0600EFB43219900391E0FFEFB43710C2A77B21
:100A1600017A0679507D041274AF020B349003906C
:100A2600E0FFEFB43319900391E0FFEFB43510C245
:100A3600B57B017A0679507D041274AF020B3490AF
:100A46000390E0FFEFB43119900391E0FFEFB4316A
:100A560010C2917B017A0679507D041274AF020BA5
:100A660034900390E0FFEFB43119900391E0FFEF6B
:100A7600B43010C2907B017A0679507D041274AFAF
:100A8600020B34900390E0FFEF64316003020B34F5
:100A9600900391E0FFEF64326003020B34C2927B55
:100AA600017A0679507D041274AF020B3490038FDD
:100AB600E0FFEF64477077900396E0FFEF642970DC
:100AC6006D900654E4F09003A5E0FF9003A6E0FDC8
:100AD6001277C2900655EFF09003A7E0FF9003A8A7
:100AE600E0FD1277C2900656EFF09003A9E0FF9062
:100AF60003AAE0FD1277C2900657EFF07B017A0653
:100B06007955751D00751E037FFB7E7F1257D890A1
:100B16000654E0FCA3E0FDA3E0FEA3E0FF90004046
:100B2600122C777B017A0679507D041274AF7871A6
:100B3600E6FFEF1313543FFFEF5401FF7E00EF640F
:070B4600014E7003126E471F
:010B4D002285
:0F78B800000000000000000000000000000000C1
:0B78D50075BF0B7D7C7F031276E8225C
:0476E8008F5C8D5DC9
:1076EC00A2AF9202C2AF75E300855CE4855DE275E2
:1076FC00E50475E78075E64675E6B90075E5007535
:06770C00E700A20292AFAB
:017712002254
:02773B008F6756
:10773D00A2AF92038567E375E400C2AF75E50375EB
:10774D00E78075E64675E6B90075E50075E700A2B8
:03775D000392AFE5
:017760002206
:0A57D8008E188F198B1A8A1B891C8A
:1057E200A2AF9204C2AF9005B7E4F0E51854FEFEF2
:1057F2007F009005B8EEF0A3EFF09005B5E4F0A3BA
:10580200E4F09005B5E0FEA3E0FFC3EE940250562B
:105812009005B8E0FF8FE39005B9E0FF8FE475E5EE
:105822000175E78075E64675E6B975E50075E7002E
:105832009005B9E004F070069005B8E004F0900518
:10584200B5E0FEA3E0FF74B52FF58274033EF58345
:10585200E5E2F012000E9005B6E004F07006900545
:10586200B5E004F0809CE5185401FEAF199005B52F
:10587200EEF0A3EFF0E51E451D6041AB1AAA1BA98D
:105882001C1229C3FF9005B5E0FCA3E0FD74B52D01
:10589200F58274033CF583EFF07401251CF51CE4DA
:1058A200351BF51B9005B6E004F070069005B5E0D7
:1058B20004F0E51E151E7002151D80B9E51854FE90
:1058C200FE7F009005B8EEF0A3EFF09005B8E0FF80
:1058D2008FE375E40075E50375E78075E64675E6C6
:1058E200B90075E50075E7009005B5E4F0A3E4F0B2
:1058F2009005B5E0FEA3E0FFC3EE94025058900578
:10590200B5E0FEA3E0FF74B52FF58274033EF58384
:10591200E0FF8FE29005B8E0FF8FE39005B9E0FF6A
:105922008FE475E50275E78075E64675E6B90075A0
:10593200E50075E7009005B9E004F070069005B83F
:10594200E004F012000E9005B6E004F07006900537
:10595200B5E004F0809AE51854FEFE7F009005B889
:10596200EEF0A3EFF09005B5E4F0A3E4F09005B5F6
:10597200E0FEA3E0FFC3EE940250789005B8E0FF8A
:105982008FE39005B9E0FF8FE475E50175E7807557
:10599200E64675E6B975E50075E7009005B9E004DD
:1059A200F070069005B8E004F012000E9005B5E024
:1059B200FEA3E0FF74B52FF58274033EF583E0FF8A
:1059C200EF65E2601D9005B7E004F09005B7E0FFD7
:1059D2007E00C3EF9403EE64809480501B0258BE95
:1059E20080169005B6E004F070069005B5E004F06C
:1059F20002596F9005B7E4F0A20492AF9005B7E0A8
:015A0200FFA4
:015A03002280
:06755E008E568F578D5878
:10756400A2AF9205C2AF8558E2E556FF7E00EF5404
:10757400FFF5E3AF57EF54FFF5E475E50275E780D7
:1075840075E64675E6B90075E50075E700A2059253
:01759400AF47
:0175950022D3
:106C24009005BAE4F07BFF7A7879B8C003C002C05B
:106C3400017B017A0579BBA801AC02AD03D001D078
:106C440002D0037E007F0312299D907FFAE493FF14
:106C54009005BAEFF0907FFBE493FF9005BBEFF053
:106C6400907FFCE493FF9005BCEFF0907FFDE493EC
:106C7400FF9005BDEFF07F7C12773B12000E7F7E04
:106C840012773B12000E9005BAE0FD7FFA7E7F1268
:106C9400755E9005BBE0FD7FFB7E7F12755E9005FF
:106CA400BCE0FD7FFC7E7F12755E9005BDE0FD7F3C
:066CB400FD7E7F12755EFB
:016CBA0022B7
:1038A50078B276007BFF7A7879BBC003C002C0018D
:1038B5007B007A0079B9A801AC02AD03D001D00232
:1038C500D0037E007F0312299D907FFBE493FF7850
:1038D500B9A607907FFCE493FF78BAA607907FFD11
:1038E500E493FF78BBA60778BC760078B9E6FF7845
:1038F500BDA60778BAE6FF78BEA60778BBE6FF78CF
:10390500BFA6077F007E007D007C0078BC122C5E80
:10391500C3122C1B60137FFF7EFF7DFF7C0078BCEC
:10392500122C5EC3122C1B700C900040122C9C00B4
:10393500000000800B78BC122C52900040122C77AE
:10394500907FFEE493FF78B9A607907FFFE493FF8D
:1039550078BAA60778B9E6FF7E00EF7F00FE78BA51
:10396500E6FD7C00EF2DFFEE3CFE900376EEF0A326
:10397500EFF0900376E0FEA3E0FFEFB4FF0EEEB4A8
:10398500FF0A900376E4F0A3E4F0801A900376E052
:10399500FEA3E0FFD3EF94FFEE9400400990037679
:1039A500E4F0A374FFF0900376E0FEA3E0FF78B5A2
:1039B500A60608A60778B7760008760078B37600DD
:1039C50008760078B5E6FE08E6FF78B3E6FC08E67B
:1039D500FDC3ED9FEC9E4003023B1578B3E6FE0860
:1039E500E6FF907C0075F003EF122CCDEE75F00329
:1039F500A42583F583E493FF78B9A60778B3E6FE9B
:103A050008E6FF907C0175F003EF122CCDEE75F002
:103A150003A42583F583E493FF78BAA60778B3E674
:103A2500FE08E6FF907C0275F003EF122CCDEE75D3
:103A3500F003A42583F583E493FF78BBA60778BC40
:103A4500760078B9E6FF78BDA60778BAE6FF78BEB6
:103A5500A60778BBE6FF78BFA6077F007E007D003E
:103A65007C0078BC122C5EC3122C1B60137FFF7E7A
:103A7500FF7DFF7C0078BC122C5EC3122C1B700AE4
:103A850078B606E618700106802078BDE6FF78B79F
:103A9500E6FC08E6FD90004475F003ED122CCDEC34
:103AA50075F003A42583F583EFF078BEE6FF78B7BC
:103AB500E6FC08E6FD90004575F003ED122CCDEC13
:103AC50075F003A42583F583EFF078BFE6FF78B79B
:103AD500E6FC08E6FD90004675F003ED122CCDECF2
:103AE50075F003A42583F583EFF078B806E6187022
:103AF500010678B5E6FE08E6FFD3EF9404EE9401DF
:103B0500500E12000E78B406E6187001060239C888
:103B1500907FFAE493FF78B2A60778B2E6FF7E00BD
:103B2500C3E49FEE6480F8E46480984003023C841B
:103B350078B2E6FF7E00D3EF940AEE64809480406D
:103B450003023C8478B2E6FF9005FCEFF078B2E61C
:103B5500FF7E96EF8EF0A4FFAEF0E4FCFDEF247837
:103B6500FFEE3463FEED3465FDEC3419FC9003463D
:103B7500122C77900346E0FCA3E0FDA3E0FEA3E052
:103B8500FF7B017A0579DB12507478B2E6FF7E96E9
:103B9500EF8EF0A4FFAEF0E4FCFDEF2430FFEE3431
:103BA500B0FEED346FFDEC3419FC900346122C7712
:103BB500900346E0FCA3E0FDA3E0FEA3E0FF7B014C
:103BC5007A0579D312507478B2E6FF7E96EF8EF0BF
:103BD500A4FFAEF0E4FCFDEF24D8FFEE34B0FEED1B
:103BE5003494FDEC3419FC900346122C779003466F
:103BF500E0FCA3E0FDA3E0FEA3E0FF7B017A0579ED
:103C0500EB12507478B2E6FF7E96EF8EF0A4FFAE0D
:103C1500F0E4FCFDEF2470FFEE345CFEED3497FD1F
:103C2500EC3419FC900346122C77900346E0FCA374
:103C3500E0FDA3E0FEA3E0FF7B017A0579CB1250FE
:103C45007478B2E6FF7E96EF8EF0A4FFAEF0E4FC4A
:103C5500FDEF24B0FFEE3469FEED349AFDEC341926
:103C6500FC900346122C77900346E0FCA3E0FDA3ED
:103C7500E0FEA3E0FF7B017A0579E3125074227818
:103C8500B2E6FF7E00C3740A9FEE6480F8E46480A8
:103C9500984003023E0878B2E6FF7E00D3EF941405
:103CA500EE648094804003023E0878B2E6FF9005FA
:103CB500FCEFF078B274F626F678B2E6FF7E96EF62
:103CC5008EF0A4FFAEF0AB07AA06E4F9F8C374784A
:103CD5009BFF74639AFE746599FD741998FC9003B3
:103CE50046122C77900346E0FCA3E0FDA3E0FEA37B
:103CF500E0FF7B017A0579DB12507478B2E6FF7E2E
:103D050096EF8EF0A4FFAEF0AB07AA06E4F9F8C370
:103D150074309BFF74B09AFE746F99FD741998FC0A
:103D2500900346122C77900346E0FCA3E0FDA3E048
:103D3500FEA3E0FF7B017A0579D312507478B2E6D1
:103D4500FF7E96EF8EF0A4FFAEF0AB07AA06E4F96E
:103D5500F8C374D89BFF74B09AFE749499FD7419D6
:103D650098FC900346122C77900346E0FCA3E0FDF7
:103D7500A3E0FEA3E0FF7B017A0579EB125074788E
:103D8500B2E6FF7E96EF8EF0A4FFAEF0AB07AA0673
:103D9500E4F9F8C374709BFF745C9AFE749799FDFF
:103DA500741998FC900346122C77900346E0FCA307
:103DB500E0FDA3E0FEA3E0FF7B017A0579CB12507D
:103DC5007478B2E6FF7E96EF8EF0A4FFAEF0AB07F7
:103DD500AA06E4F9F8C374B09BFF74699AFE749A55
:103DE50099FD741998FC900346122C77900346E0D0
:103DF500FCA3E0FDA3E0FEA3E0FF7B017A0579E3E8
:033E0500125074E4
:013E08002297
:1052F6007BFF7A7879BEC003C002C0017B007A00CA
:105306007992A801AC02AD03D001D002D0037E0091
:105316007F0312299D900377E004F07006900376D0
:10532600E004F0900376E0FEA3E0FFEEFF7E007857
:1053360092A607900376E0FEA3E0FF7E007893A690
:10534600077B007A007992751D00751E027FFE7E2E
:105356007F1257D890000DE0FCA3E0FDA3E0FEA36A
:10536600E0FF7810122C2CEF54FFFFEE5400FEEDF8
:105376005400FDEC5400FC900376E0FCA3E0FD90A5
:10538600004175F003ED122CCDEC75F003A42583D6
:10539600F583EFF090000DE0FCA3E0FDA3E0FEA393
:1053A600E0FF7808122C2CEF54FFFFEE5400FEEDC0
:1053B6005400FDEC5400FC900376E0FCA3E0FD9065
:1053C600004275F003ED122CCDEC75F003A4258395
:1053D600F583EFF090000DE0FCA3E0FDA3E0FEA353
:1053E600E0FFEF54FFFFEE5400FEED5400FDEC54D9
:1053F60000FC900376E0FCA3E0FD90004375F0030B
:10540600ED122CCDEC75F003A42583F583EFF09017
:10541600000DE0FCA3E0FDA3E0FEA3E0FF789B12F5
:105426002C6B789576000876007895E6FE08E6FF00
:10543600C3EE940140030254FB7895E6FE08E6FFAE
:105446007C007D03122A3D7897A60608A607789762
:10545600E6FE08E6FFE42FF582747C3EF583E493CE
:10546600FF7892A607789806E6187001067897E600
:10547600FE08E6FFE42FF582747C3EF583E493FF95
:105486007893A607789806E6187001067897E6FEE0
:1054960008E6FFE42FF582747C3EF583E493FF78FB
:1054A60094A607789F76007892E6FF78A0A60778FC
:1054B60093E6FF78A1A6077894E6FF78A2A6077F71
:1054C600007E007D007C00789F122C5EC3122C1B90
:1054D60060237FFF7EFF7DFF7C00789F122C5EC3DA
:1054E600122C1B7002800E12000E789606E61870BB
:1054F600010602542F789CE6FF7892A607789DE66F
:10550600FF7893A607789EE6FF7894A6077897E635
:10551600FE08E6FFEF24FEFFEE34FFFE7899A606AE
:1055260008A6077899E6FE08E6FFEF2400FFEE34AA
:105536007CFE7B007A007992751D00751E0312575A
:10554600D8900376E0FEA3E0FFC3EF94FFEE94004D
:1055560040111269E290003DE4F0900350E4F0A39C
:03556600746EF070
:01556900221F
:1069E200900370E0FFEFC4540FFFEF5401FF7E00ED
:1069F200EF64014E70237D847C037F2C7E0112693B
:106A02000B7D847C037F2C7E0112690B7D017C004F
:106A12007F087E0712690B802E900370E0FFEFC49F
:106A220013135403FFEF5401FF7E00EF64014E7015
:106A3200167D847C037F2C7E0112690B7D017C0014
:106A42007F087E0712690B120006900372E0FFEFC7
:106A52004402FF900372EFF0900370E0FFEF547F67
:106A6200FF900370EFF0900372E0FFEF54FBFF9092
:106A72000372EFF0900370E0FFEF54BFFF900370DA
:106A8200EFF0900370E0FFEF54EFFF900370EFF030
:106A9200900373E0FFEF54FEFF900373EFF0C2A583
:066AA20090000CE4F0225C
:086EBE008F3E8E3D8D3C8C3BA4
:106EC6007BFF7A7879C1C003C002C0017B007A00DB
:106ED60079C8A801AC02AD03D001D002D0037E0070
:106EE6007F0312299DAF3EAE3DAD3CAC3B78CB1245
:106EF6002C6BAF3EAE3DAD3CAC3B900040122C77C8
:106F060078CCE6FF78C8A60778CDE6FF78C9A6074D
:106F160078CEE6FF78CAA6077B007A0079C8751D89
:0B6F260000751E037FFB7E7F1257D812
:016F3100223D
:08556A008F428E418D408C3F01
:1055720078A976000876007BFF7A7879C4C003C0E8
:1055820002C0017B007A0079ABA801AC02AD03D066
:1055920001D002D0037E007F0312299D900376E0A2
:1055A200FEA3E0FF78A9A60608A60778A37600085E
:1055B2007600900376E0FEA3E0FF78A3E6FC08E61F
:1055C200FDC3ED9FEC9E400302572378A3E6FE083D
:1055D200E6FF127002AB42AA41A940A83FC3122CB7
:1055E2001B60030257157FFE7EFF7DFF7C00AB42EE
:1055F200AA41A940A83FC3122C1B70030257157F72
:10560200007E007D007C00AB42AA41A940A83FC3B6
:10561200122C1B700302571578A3E6FE08E6FF78EA
:10562200A5A60608A607900376E0FEA3E0FF78A5EC
:10563200E6FC08E6FDC3ED9FEC9E40030256F778B8
:10564200A5E6FE08E6FF90004775F003EF122CCDA9
:10565200EE75F003A42583F583E0FF78A5E6FC0848
:10566200E6FD90004475F003ED122CCDEC75F003CD
:10567200A42583F583EFF078A5E6FE08E6FF900007
:105682004875F003EF122CCDEE75F003A42583F5D7
:1056920083E0FF78A5E6FC08E6FD90004575F0037F
:1056A200ED122CCDEC75F003A42583F583EFF07891
:1056B200A5E6FE08E6FF90004975F003EF122CCD37
:1056C200EE75F003A42583F583E0FF78A5E6FC08D8
:1056D200E6FD90004675F003ED122CCDEC75F0035B
:1056E200A42583F583EFF012000E78A606E6187063
:1056F2000106025628900377E024FFF0900376E03B
:1057020034FFF0900376E0FEA3E0FFEF4E70041248
:1057120073EF2212000E78A406E6187001060255F5
:10572200B4900376E0FEA3E0FFEEFF7E0078ABA626
:1057320007900376E0FEA3E0FF7E0078ACA6077B2D
:10574200007A0079AB751D00751E027FFE7E7F1206
:1057520057D878A3760008760078A9E6FE08E6FF17
:1057620078A3E6FC08E6FDC3ED9FEC9E506778A3A4
:10577200E6FE08E6FF12700278AE122C6B78AFE6F6
:10578200FF78ABA60778B0E6FF78ACA60778B1E65B
:10579200FF78ADA60778A3E6FE08E6FF7C007D034E
:1057A200122A3D78A7A60608A60778A7E6FE08E60D
:1057B200FFEF2400FFEE347CFE7B007A0079AB75AC
:1057C2001D00751E031257D812000E78A406E618A3
:0557D200700106808457
:0157D70022AF
:1073EF00900376E4F0A3E4F078D476000876007882
:1073FF00D4E6FE08E6FFC3EE9403502078D4E6FEF1
:10740F0008E6FF74442FF58274003EF583E4F01212
:0F741F00000E78D506E61870010680D3126C2493
:01742E00223B
:101DCB00900372E0FFEF20E70302256F900372E0B0
:101DDB00FFEF547FFF900372EFF0900387E0FEA3B9
:101DEB00E0FFEF4E6010900388E024FFF090038734
:101DFB00E034FFF080059006BCE4F090038CE0FF2C
:101E0B00EF600690038CE014F0900017E0FEA3E067
:101E1B00FFEF4E600E900018E024FFF0900017E0EB
:101E2B0034FFF0900356E0FFEF6006900356E0148A
:101E3B00F090001CE0FEA3E0FFEF4E600E90001D43
:101E4B00E024FFF090001CE034FFF0900011E0FE66
:101E5B00A3E0FFEF4E600E900012E024FFF0900025
:101E6B0011E034FFF090036CE0FEA3E0FFEF4E6057
:101E7B000E90036DE024FFF090036CE034FFF090C4
:101E8B0003B2E0FFEF60069003B2E014F09003851D
:101E9B00E0FEA3E0FFEF4E600E900386E024FFF020
:101EAB00900385E034FFF0900015E0FEA3E0FFEF18
:101EBB004E600E900016E024FFF0900015E034FF0A
:101ECB00F0900019E0FEA3E0FFEF4E600E90001AB9
:101EDB00E024FFF0900019E034FFF0900350E0FE97
:101EEB00A3E0FFEF4E600E900351E024FFF0900350
:101EFB0050E034FFF0900008E0FEA3E0FFEF4E60EF
:101F0B0010900009E024FFF0900008E034FFF0800F
:101F1B004E900370E0FFEFC4540FFFEF5401FF7EB0
:101F2B0000EF64014E6038900370E0FFEFC41313B1
:101F3B005403FFEF5401FF7E00EF64014E602090CD
:101F4B000373E0FFEF5401FF7E00EF64014E70025C
:101F5B00800D90034CE4F0A3E4F090000CE4F0301F
:101F6B00A103022098900373E0FFEF5401FF7E0062
:101F7B00EF64014E600E90034DE004F07006900389
:101F8B004CE004F09000087401F0A3745EF0900034
:101F9B000CE0FF7E00C3EF9402EE64809480407BE4
:101FAB00900370E0FFEFC4540FFFEF5401FF7E006E
:101FBB00EF4E7067900370E0FFEFC413135403FFF1
:101FCB00EF5401FF7E00EF4E7051900376E0FEA3BD
:101FDB00E0FFC3EF94FFEE94005040900370E0FFDE
:101FEB00EF4440FF900370EFF07D847C037F087E0D
:101FFB000712690B7D017C007F2C7E0112690B900F
:10200B00000CE004F090036E7415F0A37404F090D0
:10201B0000157401F0A374F4F08072900370E0FF6C
:10202B00EFC4540FFFEF5401FF7E00EF64014E70BD
:10203B001290000CE0FF7E00C3EF9401EE648094DD
:10204B0080503B900373E0FFEF5401FF7E00EF6481
:10205B00014E602A900370E0FFEFC413135403FF8B
:10206B00EF5401FF7E00EF64014E702190000CE0F5
:10207B00FF7E00C3EF9403EE64809480400F9000CA
:10208B0015E0FEA3E0FFEF4E70031269E230A15999
:10209B0090034CE0FEA3E0FFD3EF9403EE940040DB
:1020AB001890000CE0FF7E00C3EF940AEE6480945E
:1020BB0080500690000CE004F0900372E0FFEFC339
:1020CB0013FFEF5401FF7E00EF64014E701390037A
:1020DB0072E0FFEF54FDFF900372EFF090000CE401
:1020EB00F090034CE4F0A3E4F090034CE0FEA3E08B
:1020FB00FFC3EF94C2EE9401405A900373E0FFEFDD
:10210B004401FF900373EFF0900370E0FFEF54EF87
:10211B00FF900370EFF090034CE4F0A3E4F0120097
:10212B0006900373E0FFEF54FDFF900373EFF09005
:10213B000028E4F0A37482F090036E7415F0A3747E
:10214B0004F090000CE4F09000157401F0A374F40B
:10215B00F00221EA90034CE0FEA3E0FFC3EF94FAF8
:10216B00EE9400407A900370E0FFEFC4540FFFEF42
:10217B005401FF7E00EF4E7066900373E0FFEF5447
:10218B0001FF7E00EF4E7057900370E0FFEF44109D
:10219B00FF900370EFF0900370E0FFEF4420FF908F
:1021AB000370EFF07D847C037F087E0712690B7D43
:1021BB00847C037F2C7E0112690B7D017C007F2CBC
:1021CB007E0112690B90000CE004F090036E741505
:1021DB00F0A37404F09000157401F0A374F4F09064
:1021EB000373E0FFEF5401FF7E00EF64014E706B51
:1021FB00900028E0FEA3E0FFEF4E705F900373E0CA
:10220B00FFEFC313FFEF5401FF7E00EF4E701D90E5
:10221B000373E0FFEF4402FF900373EFF09000288D
:10222B007401F0A37486F0120006802F900373E004
:10223B00FFEFC313FFEF5401FF7E00EF64014E70FD
:10224B001A900373E0FFEF54FDFF900373EFF090D0
:10225B000028E4F0A37482F01278F8900370E0FF8A
:10226B00EFC4540FFFEF5401FF7E00EF64014E608B
:10227B002C900370E0FFEFC413135403FFEF5401D2
:10228B00FF7E00EF64014E6014900373E0FFEF5488
:10229B0001FF7E00EF64014E600302256F90036225
:1022AB00E004F07006900361E004F0900361E0FE3F
:1022BB00A3E0FFC3EF942EEE9400401F900361E464
:1022CB00F0A3E4F0900385E0FEA3E0FFD3EF9400CE
:1022DB00EE94004004D2A58002B2A5900370E0FFFB
:1022EB00EFC41313135401FFEF5401FF7E00EF648F
:1022FB00014E6003022551900372E0FFEF1313545C
:10230B003FFFEF5401FF7E00EF4E60030225517F2C
:10231B00FE7EFF7DFF7C0090000DE0F8A3E0F9A3AB
:10232B00E0FAA3E0FBC3122C1B7024900370E0FFB8
:10233B00EFC4540FFFEF5401FF7E00EF64014E70AA
:10234B000E900372E0FFEF4404FF900372EFF090E6
:10235B000370E0FFEF547FFF900370EFF090037377
:10236B00E0FFEF5401FF7E00EF64014E6003022497
:10237B0005900373E0FFEF54FEFF900373EFF090B3
:10238B000373E0FFEF54FDFF900373EFF0900370C6
:10239B00E0FFEF54BFFF900370EFF0900370E0FF8E
:1023AB00EF54EFFF900370EFF012771390000DE0F6
:1023BB00FCA3E0FDA3E0FEA3E0FF126EBE90037052
:1023CB00E0FFEF131313541FFFEF5401FF7E00EFD9
:1023DB0064014E701F900370E0FFEF54F7FF900302
:1023EB0070EFF0900040E0FCA3E0FDA3E0FEA3E063
:1023FB00FF12556A1269E2022551900370E0FFEF5C
:10240B00131313541FFFEF5401FF7E00EF64014EB3
:10241B007011900370E0FFEF54F7FF900370EFF033
:10242B0002255112771390036E7415F0A37404F008
:10243B00900370E0FFEFC413135403FFEF5401FF3D
:10244B007E00EF64014E70527FFE7EFF7DFF7C00AD
:10245B0090000DE0F8A3E0F9A3E0FAA3E0FBC312B0
:10246B002C1B60367F007E007D007C00900040E0DE
:10247B00F8A3E0F9A3E0FAA3E0FBC3122C1B701442
:10248B0090000DE0FCA3E0FDA3E0FEA3E0FF126EC5
:10249B00BE0225511252F6022551900370E0FFEF58
:1024AB00C4540FFFEF5401FF7E00EF64014E600335
:1024BB00022551900370E0FFEFC4135407FFEF5454
:1024CB0001FF7E00EF64014E705D900370E0FFEF43
:1024DB0054DFFF900370EFF0900376E4F0A3E4F089
:1024EB001273EF900040122C9C000000007F007EC6
:1024FB00007D007C00126EBE7FFE7EFF7DFF7C00A8
:10250B0090000DE0F8A3E0F9A3E0FAA3E0FBC312FF
:10251B002C1B603290000DE0FCA3E0FDA3E0FEA3BA
:10252B00E0FF126EBE801F7FFE7EFF7DFF7C009062
:10253B00000DE0F8A3E0F9A3E0FAA3E0FBC3122C33
:10254B001B60031252F690036EE0FEA3E0FFEF4E0A
:10255B00600F90036FE024FFF090036EE034FFF008
:05256B00221269E222CA
:1078A4008E5E8F5FE55F155FAE5E7002155EFFEF63
:0478B4004E70F122FF
:10776100438540438590E58554FCFFEF4401F58551
:107771007584005385F75385DF5385FB53A2DFD210
:02778100942250
:107819008F68E58420E5FB856886E5845480FF7ED2
:0B78290000EF4E60F5438480AF862224
:1074EC008F608D617F017E001278A4C2947F017E33
:1074FC00001278A4E56025E0FFEF4401F560AF6071
:10750C00127819AF611278197F017E001278A4D21B
:09751C00947F017E001278A42284
:02736C008F6927
:10736E009006E6E4F07F017E001278A4C2947F01BD
:10737E007E001278A4E56925E0F569AF69127819E7
:10738E007FFF1278199006E6EFF07F017E001278EB
:0F739E00A4D2947F017E001278A49006E6E0FF4F
:0173AD0022BD
:086D47008F288B298A2A892B71
:106D4F009006E7E4F07F017E001278A4C2947F01E1
:106D5F007E001278A4E52825E0FFEF4401F528AF67
:106D6F0028127819AB29AA2AA92B1229C3FF127846
:106D7F00199006E77401F09006E7E0FFEFC3952C3A
:106D8F0050267F027E001278A4AB29AA2AA92B9045
:106D9F0006E7E0FF8F827583001229DCFF12781956
:106DAF009006E7E004F080CF7F017E001278A4D236
:086DBF00947F017E001278A40C
:016DC70022A9
:086F32008F2D8B2E8A2F893070
:106F3A009006E8E4F07F017E001278A4C2947F01F3
:106F4A007E001278A4E52D25E0F52DAF2D127819D3
:106F5A009006E8E4F09006E8E0FFEFC3953150218F
:106F6A007FFF127819AB2EAA2FA9309006E8E0FE0F
:106F7A008E82758300EF122A1B9006E8E004F080E7
:106F8A00D47F017E001278A4D2947F017E00127809
:016F9A00A452
:016F9B0022D3
:102D9E00017000017100410352034103A100410380
:102DAE007000410372004103600041037300410350
:102DBE0074001C7695555555555556559555565581
:102DCE0095555555955555559555555595555555A5
:102DDE00420366000042003E000041039D00420394
:102DEE004A0000410027005003A20000000000002E
:102DFE000000000000000000000050038D000000E5
:102E0E000000000000000000000000000041000A69
:102E1E0000420389000001750042034E0000420388
:102E2E00B300000273000042034400004200110090
:102E3E000042036C0000630000440000000000002C
:102E4E000000000000000000000000000000000074
:102E5E000000000000000000000000000000000064
:102E6E000000000000000000000000000000000054
:102E7E000000000000000000000000000000000044
:10313E0000000000000000000000440040000000FD
:10314E000042037600004403680000000041003D89
:10315E00004103750044000D00000000420008000D
:10316E000041000C0042034C000042036E0000427E
:10317E000361000042002800004103B200420385B3
:10318E0000004200150000420019000042035000EA
:10319E0000420387000042037F00004203640000E8
:1031AE004403810000000041038B0044034619656F
:1031BE006378017201490034000000000000000035
:1031CE000049035700000000000000000049002BDA
:1031DE0000000000000000000049001E000000007A
:1031EE000000000000410363004200130000420390
:1031FE009F00004103550041002A0042001C0000C0
:10320E004103710041001B00C10641038C004703BE
:10321E0078020711980952464103560042001700E2
:10322E00004103530041000B0041035400480000CD
:0C323E00000000000000000041039E00A2
:1032E700900370E0FFEF20E0030238A4900370E042
:1032F700FFEF54FEFF900370EFF09005FDE0FF7EB7
:1033070000EF64014E70077F001246A580129005FA
:10331700FDE0FF7E00EF64024E70057F021246A5B6
:10332700900370E0FFEFC313FFEF5401FF7E00EF40
:1033370064014E60030238A49005FDE0FF90064249
:10334700EFF0125A04900370E0FFEFC4540FFFEF41
:103357005401FF7E00EF64014E602C900370E0FF84
:10336700EFC413135403FFEF5401FF7E00EF640112
:103377004E6014900373E0FFEF5401FF7E00EF648B
:10338700014E600302346B900370E0FFEFC4131328
:10339700135401FFEF5401FF7E00EF4E6003023824
:1033A700A4900375E0FF7E00EF64404E700302387F
:1033B700A47F007E007D007C00900368E0F8A3E016
:1033C700F9A3E0FAA3E0FBC3122C1B70030238A495
:1033D700900642E0FF7E00EF64014E60030238A4CE
:1033E700900370E0FFEFC4540FFFEF5401FF7E001E
:1033F700EF64014E604B900370E0FFEFC41313546A
:1034070003FFEF5401FF7E00EF64014E6014900349
:1034170073E0FFEF5401FF7E00EF64014E6003028B
:1034270038A47FFE7EFF7DFF7C00900368E0F8A351
:10343700E0F9A3E0FAA3E0FBC3122C1B70030238E8
:10344700A4900370E0FFEF4480FF900370EFF090CB
:103457000368E0FCA3E0FDA3E0FEA3E0FF90000DFE
:10346700122C7722900370E0FFEF131313541FFF02
:10347700EF5401FF7E00EF64014E601F7FFE7EFF69
:103487007DFF7C00900368E0F8A3E0F9A3E0FAA3CE
:10349700E0FBC3122C1B60030238A4900370E0FF0B
:1034A700EF54F7FF900370EFF0900642E0FF7E00C5
:1034B700EF64014E60030237837FFE7EFF7DFF7C52
:1034C70000900368E0F8A3E0F9A3E0FAA3E0FBC3E8
:1034D700122C1B700A900375E0FF90003DEFF090EF
:1034E700062AE0FCA3E0FDA3E0FEA3E0FFEF54FF04
:1034F700FFEE54FFFEED5400FDEC5400FC7B567AC2
:103507005579007800C3122C1B6003023661D2067E
:103517007F011246A5900370E0FFEFC313FFEF543E
:1035270001FF7E00EF64014E60030238A4125A04C3
:10353700900375E0FF7E00EF64FF4E7056900370B6
:10354700E0FFEF131313541FFFEF5401FF7E00EF4B
:1035570064014E700F900370E0FFEF54F7FF900384
:1035670070EFF022900376E0FEA3E0FFC3EF94FF35
:10357700EE940040030238A4127713900368E0FC2E
:10358700A3E0FDA3E0FEA3E0FF90000D122C77124D
:1035970052F62290003DE0FF7E00EF4E60030238B6
:1035A700A4900370E0FFEF131313541FFFEF5401B0
:1035B700FF7E00EF64014E60030238A4900370E0C1
:1035C700FFEF54F7FF900370EFF012771390036843
:1035D700E0FCA3E0FDA3E0FEA3E0FF900040E0F8DD
:1035E700A3E0F9A3E0FAA3E0FBC3122C1B705990E8
:1035F7000040122C9C000000007F007E007D007CB4
:1036070000126EBE7F001270027B007A007900788C
:1036170000C3122C1B70030238A47F0012700290A3
:103627000040122C77900040E0FCA3E0FDA3E0FEF1
:10363700A3E0FF126EBE900040E0FCA3E0FDA3E014
:10364700FEA3E0FF12556A22900368E0FCA3E0FDA9
:10365700A3E0FEA3E0FF12556A22C20690003DE0F8
:10366700FF7E00EF64404E7059900019E0FEA3E022
:10367700FFEF4E704D9003A1E0FFEF4420FF900352
:10368700A1EFF09000117403F0A3747AF09003A1F6
:10369700E0FFEFC41313135401FFEF5401FF7E0043
:1036A700EF4E600302376A9003A1E0FFEF4480FF0B
:1036B7009003A1EFF090034E740BF0A374B8F002DF
:1036C700376A90003DE0FF7E00EF64404E700302D2
:1036D700376A9003A1E0FFEF54FDFF9003A1EFF0DD
:1036E70090036CE4F0A3E4F09003A1E0FFEF54EF44
:1036F700FF9003A1EFF09003A1E0FFEFC41354077D
:10370700FFEF5401FF7E00EF64014E700A9000192D
:10371700746AF0A37440F090003DE0FFEF5414FF8B
:103727007E00EF64144E701890034EE0FEA3E0FF96
:10373700EF4E702F90034E740EF0A374BAF08023EF
:103747009006BCE0FF7E00EF64014E700C90034EC4
:103757007402F0A37458F0800A90034E7403F0A328
:1037670074E8F09003B37402F0A37458F09003A1C7
:10377700E0FFEF4440FF9003A1EFF022900642E004
:10378700FF7E00EF64024E60030238A490003DE420
:10379700F0900034E0FFEFC4135407FFEF5407FF26
:1037A700900363EFF0900034E0FFEF541FFF7E00BB
:1037B700EF64014E700A900035E0FF90003DEFF096
:1037C70090003DE0FFEF54A0FF7E00EF64204E60C5
:1037D7001190003DE0FFEF54C0FF7E00EF64404EC4
:1037E700700D90034E7401F0A374F4F002387F90CB
:1037F700003DE0FFEF54DFFF7E00D3EF9480EE64DF
:10380700809480406990003DE0FFEF5420FF7E00E8
:10381700EF4E705A90034E7403F0A374E8F09000D3
:103827003DE0FFEF54DFFF7E00C3EF94C0EE6480FE
:103837009480501D90003DE0FFEF541FFF7E00EF86
:103847002404FFEE3400FE900013EEF0A3EFF080A7
:103857002790003DE0FFEF541FFF7E00EF2404FF99
:10386700EE3400FE90039FEEF0A3EFF0800A900382
:103877004E7403F0A374E8F0900373E0FFEF444045
:10388700FF900373EFF09003B3E4F0A37464F09038
:0E38970003A1E0FFEF4440FF9003A1EFF022F9
:0246A5008F6A1A
:1046A700AF6A7E00EF4E600AAF6A7E00EF64014E8C
:1046B70070089006D47403F08010AF6A7E00EF6430
:1046C700024E70069006D47407F09006D2E4F0907C
:1046D70006D4E0FF9006D2E0FEEEC39F40030248F7
:1046E7000DAF6A7E00EF4E600AAF6A7E00EF64028C
:1046F7004E70269006D2E0FFEF25E025E02426F550
:1047070082E43406F583E0FCA3E0FDA3E0FEA3E02A
:10471700FF9006BE122C7780249006D2E0FFEF258B
:10472700E025E02432F582E43406F583E0FCA3E0DB
:10473700FDA3E0FEA3E0FF9006BE122C779006C211
:10474700E4F0A3E4F09006BEE0FCA3E0FDA3E0FEE6
:10475700A3E0FF7801122C2C9006BE122C7790064E
:10476700D3E4F09006D3E0FF7E00C3EF9410EE642D
:10477700809480506A9006C2E0FEA3E0FFEF25E038
:10478700FFEE33FE9006C2EEF0A3EFF09006BEE018
:10479700FCA3E0FDA3E0FEA3E0FFEF5401FFEE540E
:1047A70000FEED5400FDEC5400FCEC4D4E4F600E46
:1047B7009006C3E004F070069006C2E004F090068D
:1047C700BEE0FCA3E0FDA3E0FEA3E0FF7802122C0D
:1047D7002C9006BE122C779006D3E004F0808490CC
:1047E70006C2E0FEA3E0FF9006D2E0FDED25E0243F
:1047F700C4F582E43406F583EEF0A3EFF09006D219
:10480700E004F00246D6AF6A7E00EF4E600DAF6A55
:104817007E00EF64014E60030248E39006C6E0FEA7
:10482700A3E0FF9006C4E0FCA3E0FDED2FFFEC3E04
:10483700FE9006C8E0FCA3E0FDEF6D7002EE6C6031
:10484700030248D4900370E0FFEF4402FF90037027
:10485700EFF09006C6E0FEA3E0FF7E00E4FCFD7BE0
:10486700007A0079017800122AF0A804A905AA069F
:10487700AB079006C4E0FEA3E0FFE4FCFDEB2FFFCF
:10488700EA3EFEE93DFDE83CFC900368122C777F89
:10489700007E007D007C00900368E0F8A3E0F9A3A8
:1048A700E0FAA3E0FBC3122C1B700E900370E0FF2D
:1048B700EF54FDFF900370EFF09006C6E0FEA3E013
:1048C700FF7F00EEFF7E00900375EFF022900370EC
:1048D700E0FFEF54FDFF900370EFF022AF6A7E0018
:1048E700EF64024E6003024A339006C6E0FEA3E07F
:1048F700FF9006C4E0FCA3E0FDED2FFFEC3EFE9029
:1049070006C8E0FCA3E0FDEF2DFFEE3CFE9006CAD3
:10491700E0FCA3E0FDEF2DFFEE3CFE9006CCE0FCB3
:10492700A3E0FDEF2DFFEE3CFE9006CEE0FCA3E0FA
:10493700FDEF2DFFEE3CFE9006D0E0FCA3E0FDEF7F
:104947006D7002EE6C6003024A25900370E0FFEF82
:104957004402FF900370EFF09006C6E0FEA3E0FF6D
:104967007E00E4FCFD7B007A0079017800122AF0D2
:10497700A804A905AA06AB079006C4E0FEA3E0FFBA
:10498700E4FCFDEB2FFFEA3EFEE93DFDE83CFC9031
:104997000368122C777F007E007D007C00900368FF
:1049A700E0F8A3E0F9A3E0FAA3E0FBC3122C1B7025
:1049B7000E900370E0FFEF54FDFF900370EFF0904F
:1049C70006C6E0FEA3E0FF7F00EEFF7E00900357E0
:1049D700EFF09006D2E4F09006D2E0FF7E00C3EF3E
:1049E7009404EE6480948050439006D2E0FFEF2554
:1049F700E024C8F582E43406F583E0FEA3E0FF90E7
:104A070006D2E0FDED25E02458F582E43403F58372
:104A1700EEF0A3EFF09006D2E004F080BA22900304
:0C4A270070E0FFEF54FDFF900370EFF013
:014A33002260
:105A04009006BCE0FF7E00EF64014E7018900370B6
:105A1400E0FFEF4408FF900370EFF0900375E0FFA0
:105A240090003DEFF0900642E0FF7E00EF64014EEF
:105A34006003025B939006D5E4F0A3E4F09006D5EE
:105A4400E0FEA3E0FF127002900368E0F8A3E0F91F
:105A5400A3E0FAA3E0FBC3122C1B706B900376E067
:105A6400FEA3E0FF9006D5EEF0A3EFF0900370E004
:105A7400FFEF4408FF900370EFF0900642E0FF7ED2
:105A840000EF64014E700C900375E0FF90003DEF51
:105A9400F0807E900642E0FF7E00EF64024E70715B
:105AA4007B017A037957C003C002C0017B017A00ED
:105AB4007934A801AC02AD03D001D002D0037E003A
:105AC4007F0912299D804A900040E0FCA3E0FDA3D9
:105AD400E0FEA3E0FF900368E0F8A3E0F9A3E0FA96
:105AE400A3E0FBC3122C1B7028900376E0FEA3E016
:105AF400FF9006D5EEF0A3EFF0900370E0FFEF44C3
:105B040008FF900370EFF0900375E0FF90003DEF05
:105B1400F0900370E0FFEFC4540FFFEF5401FF7ED9
:105B240000EF64014E703F900370E0FFEFC4135424
:105B340007FFEF5401FF7E00EF64014E70289003CD
:105B440076E0FEA3E0FF9006D5EEF0A3EFF090031D
:105B540070E0FFEF54F7FF900370EFF0900375E0EF
:105B6400FF90003DEFF09006D6E004F0700690063A
:105B7400D5E004F0900376E0FEA3E0FF9006D5E0C4
:105B8400FCA3E0FDC3ED9FEC9E5003025A4122901A
:105B94000642E0FF7E00EF64024E7055900040E044
:105BA400FCA3E0FDA3E0FEA3E0FF900368E0F8A3FC
:105BB400E0F9A3E0FAA3E0FBC3122C1B70339003BB
:105BC40070E0FFEF4408FF900370EFF07B017A036D
:105BD4007957C003C002C0017B017A007934A8015F
:105BE400AC02AD03D001D002D0037E007F0912299C
:015BF4009D13
:015BF500228D
:08690B008E438F448C458D463C
:1069130078D6760008760078D6E6FE08E6FFC3EF61
:106923009544EE95435051900372E0FFEF13131318
:10693300541FFFEF5401FF7E00EF4E701F90037250
:10694300E0FFEF4408FF900372EFF0900372E0FF63
:10695300EF54EFFF900372EFF01278F87F6912782B
:106963004D7F6912784D7F6912784D12000E78D7EA
:1069730006E618700106809F78D6760008760078C0
:10698300D6E6FE08E6FFC3EF9546EE9545504F90D9
:106993000372E0FFEFC4540FFFEF5401FF7E00EFDB
:1069A3004E701F900372E0FFEF4410FF900372EFED
:1069B300F0900372E0FFEF54F7FF900372EFF012D1
:1069C30000067F6912784D7F6912784D7F691278CE
:0E69D3004D12000E78D706E61870010680A15E
:0169E1002293
:10771300D2A57D007C007FFC7E0812690B9003726A
:10772300E0FFEF54F7FF900372EFF01200069003AF
:0877330085E4F0A374B9F02213
:10725300900372E0FFEF5401FF7E00EF4E703A900F
:107263000372E0FFEF4401FF900372EFF078D876EA
:107273000008760078D8E6FE08E6FFC3EF9403EE35
:10728300940050157D1A7C047F1A7E0412690B78D2
:09729300D906E61870010680DB43
:01729C0022CF
:1070C2009006BAE0FF7E00EF64014E700D7D017CF8
:1070D200007F2C7E0112690B80359006BAE0FF7E9C
:1070E20000EF64024E70187D847C037F2C7E0112B7
:1070F200690B7D017C007F2C7E0112690B80109050
:1071020006BAE0FF7E00EF64034E70031278F89037
:0571120006BAE4F022C2
:100B4E0090003DE0FFEF54FFFF9006D7EFF09003CB
:100B5E004EE0FEA3E0FFEF4E70030213549006BC6E
:100B6E00E0FF7E00EF64014E60109006BCE0FF7E59
:100B7E0000EF64024E6003020C1090065EE0FF7EF2
:100B8E0000EF4E60030216069006BCE0FF7E00EFFB
:100B9E0064014E60030216069006D7E0FFEF122C9A
:100BAE00D90BF0020BD6040BBC0800001606D2A51A
:100BBE0078D176A17B007A0079CF7D031274AF9045
:100BCE00065E7401F0021606D2A578D176A27B00DD
:100BDE007A0079CF7D031274AF90065E7401F00235
:100BEE001606D2A578D176A47B007A0079CF7D0344
:100BFE001274AF90065E7401F0021606021606021B
:100C0E0016069006D7E0FFEF122CD90D76010DE7F0
:100C1E00020FCE030E1B040EF6060E4F080F9B0995
:100C2E000F690A0E830C0C3E140C904000000FFF4F
:100C3E00D2A5900344E4F0A374FAF0900372E0FF9F
:100C4E00EFC4135407FFEF13929190034EE0FEA3EF
:100C5E00E0FFC3EF94DEEE940D4003020FFF90030E
:100C6E0072E0FFEFC4135407FFEF139292900372DA
:100C7E00E0FFEFC4135407FFEF139290127253026A
:100C8E000FFF9003A1E0FFEFC313FFEF5401FF7EB0
:100C9E0000EF4E6003020FFF900019E0FEA3E0FF8D
:100CAE00EF4E6003020FFF900642E0FF7E00EF64FE
:100CBE00014E6003020FFFD2A5900344E4F0A3E4BB
:100CCE00F0900372E0FFEFC413135403FFEF13927F
:100CDE009090034EE0FEA3E0FFD3EF94D0EE940786
:100CEE004022900372E0FFEFC4135407FFEF1392FC
:100CFE0091900372E0FFEFC413135403FFEF1392AE
:100D0E0092020FFF90034EE0FEA3E0FFD3EF94E8B4
:100D1E00EE94034023900372E0FFEFC413135403C9
:100D2E00FFEF139291900372E0FFEFC4131354037D
:100D3E00FFEF139292020FFF9003A1E0FFEF44101A
:100D4E00FF9003A1EFF0900372E0FFEFC413135472
:100D5E0003FFEF139291900372E0FFEFC413540759
:100D6E00FFEF139292020FFFD2A59005C9E0FF7E0E
:100D7E0000EF4E7031900372E0FFEFC41313540373
:100D8E00FFEF139291900372E0FFEFC4135407FF2D
:100D9E00EF139292900372E0FFEFC4135407FFEF2C
:100DAE00139290020FFF900372E0FFEFC4131354DF
:100DBE0003FFEF139291900372E0FFEFC4131354ED
:100DCE0003FFEF139292900372E0FFEFC4131354DC
:100DDE0003FFEF139290020FFFD2A5900372E0FF74
:100DEE00EFC413135403FFEF139292900372E0FFBC
:100DFE00EFC413135403FFEF139291900372E0FFAD
:100E0E00EFC4135407FFEF139290020FFFD2A59079
:100E1E000372E0FFEFC413135403FFEF139292908B
:100E2E000372E0FFEFC413135403FFEF139290907D
:100E3E000372E0FFEFC4135407FFEF139291020FFA
:100E4E00FFD2A5900372E0FFEFC413135403FFEF1C
:100E5E00139291900372E0FFEFC413135403FFEF4C
:100E6E00139290900372E0FFEFC4135407FFEF1339
:100E7E009292020FFFD2A5900344E4F0A374FAF00D
:100E8E00900372E0FFEFC413135403FFEF1392901D
:100E9E00900372E0FFEFC4135407FFEF139291908B
:100EAE0003A1E0FFEF1313543FFFEF5401FF7E0049
:100EBE00EF4E70149003A1E0FFEF4404FF9003A1E6
:100ECE00EFF09003B27419F09003B2E0FF7E00EFE2
:100EDE004E6003020FFF900372E0FFEFC41354073E
:100EEE00FFEF139292020FFFD2A5900344E4F0A3FA
:100EFE0074FAF0900372E0FFEFC413135403FFEF84
:100F0E00139292900372E0FFEFC4135407FFEF1396
:100F1E0092919003A1E0FFEF1313543FFFEF5401A2
:100F2E00FF7E00EF4E70149003A1E0FFEF4404FF2C
:100F3E009003A1EFF09003B27419F09003B2E0FFAA
:100F4E007E00EF4E6003020FFF900372E0FFEFC4CE
:100F5E00135407FFEF139290020FFFD2A590037266
:100F6E00E0FFEFC413135403FFEF1392919003723B
:100F7E00E0FFEFC4135407FFEF139292900372E059
:100F8E00FFEFC4135407FFEF1392908064D2A59025
:100F9E000372E0FFEFC413135403FFEF139291900B
:100FAE000372E0FFEFC413135403FFEF13929090FC
:100FBE000372E0FFEFC4135407FFEF1392928031D8
:100FCE00D2A5900372E0FFEFC413135403FFEF1387
:100FDE009291900372E0FFEFC413135403FFEF13CB
:100FEE009292900372E0FFEFC4135407FFEF139237
:100FFE0090900642E0FF7E00EF64024E6003021105
:10100E009190003DE0FFEF54DFFF7E00D3EF948020
:10101E00EE64809480500302112490003DE0FFEFB7
:10102E005420FF7E00EF4E600302112490003DE03D
:10103E00FFEF54DFFF7E00C3EF94C0EE6480948018
:10104E00506B9003557401F090002AE4F0D2A590F5
:10105E000372E0FFEFC413135403FFEF139291904A
:10106E000372E0FFEFC413135403FFEF139290903B
:10107E000372E0FFEFC4135407FFEF139292900038
:10108E0013E0FEA3E0FFEF2401FFEE3400FE7C032D
:10109E007DE8122A3D7C007D6B122A4F7C007D6418
:1010AE00122A3D900344EEF0A3EFF08069900355B1
:1010BE00E4F090002A7401F0D2A5900372E0FFEFE5
:1010CE00C413135403FFEF139291900372E0FFEFDA
:1010DE00C4135407FFEF139290900372E0FFEFC416
:1010EE0013135403FFEF13929290039FE0FEA3E0BD
:1010FE00FFEF2401FFEE3400FE7C037DE8122A3D53
:10110E007C007D6B122A4F7C007D64122A3D900379
:10111E0044EEF0A3EFF090003DE0FF7E00EF647F21
:10112E004E7060900374E0FFEF5401FF7E00EF4EAF
:10113E007051900374E0FFEF1313543FFFEF54010F
:10114E00FF7E00EF4E703C900374E0FFEF4401FF12
:10115E00900374EFF0900374E0FFEF54F7FF9003E9
:10116E0074EFF07B017A0379787D071274AF9003E8
:10117E00547401F090038C7411F0900017E4F0A3F6
:10118E007464F0900355E0FF7E00EF64014E601032
:10119E0090002AE0FF7E00EF64014E6003021252BF
:1011AE0090003DE0FF7E00EF64024E70030212409D
:1011BE0090003DE0FF7E00EF64044E607590003DB0
:1011CE00E0FF7E00EF64084E606890003DE0FF7E19
:1011DE0000EF64014E605B90003DE0FF7E00EF6427
:1011EE00204E604E90003DE0FF7E00EF64404E606A
:1011FE004190003DE0FF7E00EF64094E60349000A8
:10120E003DE0FF7E00EF64034E602790003DE0FF5F
:10121E007E00EF640C4E601A90003DE0FF7E00EF02
:10122E0064064E600D90003DE0FF7E00EF640A4EB6
:10123E007012900355E4F090002AE4F0900344E419
:10124E00F0A3E4F090003DE0FF7E00EF4E606B9067
:10125E00003DE0FF7E00EF64024E605E90003DE0D8
:10126E00FF7E00EF64044E605190003DE0FF7E0073
:10127E00EF64084E604490003DE0FF7E00EF640195
:10128E004E603790003DE0FF7E00EF64204E602AF6
:10129E0090003DE0FF7E00EF64404E601D900355D0
:1012AE00E0FF7E00EF64014E601090002AE0FF7EAA
:1012BE0000EF64014E6003021606900373E0FFEF29
:1012CE00131313541FFFEF5401FF7E00EF4E600304
:1012DE00021606900642E0FF7E00EF64024E6003A7
:1012EE00021606900373E0FFEFC4540FFFEF540194
:1012FE00FF7E00EF4E6003021606900373E0FFEFD1
:10130E00C413135403FFEF5401FF7E00EF64014E2C
:10131E006003021606900373E0FFEF4408FF90038C
:10132E0073EFF090003DE0FF7E00EF4E700C9000EA
:10133E001CE4F0A37423F002160690001CE4F0A344
:10134E007423F00216069003A1E0FFEFC313FFEF24
:10135E005401FF7E00EF64014E7026900011E0FEF6
:10136E00A3E0FFEF4E701A9003A1E0FFEF54FDFFD4
:10137E009003A1EFF090036C7401F0A3740EF0D201
:10138E00A590036CE0FEA3E0FFEF4E700302142461
:10139E0090036CE0FEA3E0FFD3EF94B4EE94004014
:1013AE0021900372E0FFEFC4135407FFEF139291E5
:1013BE00900372E0FFEFC413135403FFEF139290E8
:1013CE00807290036CE0FEA3E0FFD3EF945AEE948C
:1013DE00004022900372E0FFEFC413135403FFEF9B
:1013EE00139291900372E0FFEFC413135403FFEFB7
:1013FE00139290803F900372E0FFEFC413135403D7
:10140E00FFEF139291900372E0FFEFC4135407FFA6
:10141E00EF139290801E9003A1E0FFEF54DFFF9038
:10142E0003A1EFF0900372E0FFEFC413135403FF18
:10143E00EF1392909003A1E0FFEF547FFF9003A172
:10144E00EFF0900372E0FFEF54FEFF900372EFF0A7
:10145E00900372E0FFEFC413135403FFEF13929245
:10146E00900370E0FFEFC4540FFFEF5401FF7E00B6
:10147E00EF64014E605A900370E0FFEFC4131354F3
:10148E0003FFEF5401FF7E00EF64014E60429003B4
:10149E006CE0FEA3E0FFEF4E7036900373E0FFEFBB
:1014AE005401FF7E00EF64014E700280239003858D
:1014BE00E0FEA3E0FFD3EF9400EE94004004D2A52B
:1014CE00800E90037FE0FEA3E0FFEF4E7002C2A5F8
:1014DE00900355E0FF7E00EF64014E600D90002AF0
:1014EE00E0FF7E00EF64014E705D900344E0FEA3CA
:1014FE00E0FFC3EF94E8EE94035024900344E0FE23
:10150E00A3E0FFD3EF9400EE94004013900372E03B
:10151E00FFEFC4135407FFEF139291D2A5805E9094
:10152E000344E0FEA3E0FFEF4E7052900372E0FF23
:10153E00EFC413135403FFEF139291900355E4F08D
:10154E0090002AE4F08036900344E0FEA3E0FFEF23
:10155E004E702A90036CE0FEA3E0FFEF4E701E90DB
:10156E000372E0FFEFC413135403FFEF1392919035
:10157E0003A1E0FFEF54FBFF9003A1EFF09003A156
:10158E00E0FFEFC4540FFFEF5401FF7E00EF640144
:10159E004E702A9003A1E0FFEF547FFF9003A1EF5E
:1015AE00F09003A1E0FFEF4402FF9003A1EFF09053
:1015BE0003A1E0FFEF54EFFF9003A1EFF09003447F
:1015CE00E0FEA3E0FFEF4E702A90036CE0FEA3E076
:1015DE00FFEF4E701E900372E0FFEFC4131354031F
:1015EE00FFEF1392919003A1E0FFEF54FBFF9003E6
:1015FE00A1EFF090065EE4F09003B3E0FEA3E0FFEF
:10160E00EF4E700E9003A1E0FFEF54BFFF9003A1C9
:02161E00EFF0EB
:0116200022A7
:027002008F6B92
:1070040078C0122C830000000078C47600AF6B7542
:10701400F003EFA42444F582E5F03400F583E0FFA7
:1070240078C5A607AF6B75F003EFA42445F582E598
:10703400F03400F583E0FF78C6A607AF6B75F00364
:10704400EFA42446F582E5F03400F583E0FF78C729
:10705400A60778C4122C5278C0122C6B78C0122C5C
:0170640052D9
:017065002208
:10324A004805DB23081999230791114805CB230C5C
:10325A007777230BEEEF4805E3230CBBBC230C3333
:10326A00334805D323090000230877774805EB2361
:10327A000C3BBC230BB3334105C900602805FE0093
:10328A000000000000000000000000000000000034
:10329A000000000000000000000000000000000024
:1032AA00000000000000004105FD014105CA00417F
:1032BA000642014105C8004105FB004105C700411E
:1032CA0005FC004805F30000000000000000015959
:0732DA0000015A00015B0036
:1042D6008B328A3389348D351278EA7F0D12736CEE
:1042E6007E00EF30E0F5800280F17D117F001274D0
:1042F600EC7DFF7F011274EC7D9F7F021274EC7DD2
:10430600C37F031274EC7D037F041274EC7D107F6F
:10431600051274EC7D007F061274EC7D157F071282
:1043260074EC7D007F081274EC7D007F091274EC3A
:104336007D187F0A1274EC7D887F0B1274EC7D0069
:104346007F0C1274EC7D087F0D1274EC7D007F0EDD
:104356001274EC7D007F0F1274EC7D007F101274D6
:10436600EC7D007F111274EC7D007F121274EC7DDF
:10437600007F131274EC7D007F141274EC7D007FB5
:10438600151274EC7D007F161274EC7D007F1712F7
:1043960074EC7D007F181274EC7D007F191274ECAA
:1043A6007D007F1A1274EC7D067F2D1274EC7D055C
:1043B6007F3F1274EC7D8B7F411274EC7D007F424F
:1043C6001274EC7D507F431274EC7D087F451274A5
:1043D600EC7D077F4E1274EC7D007F4F1274EC7DEE
:1043E600007F501274EC7D007F511274EC7D147FB7
:1043F600541274EC7D067F601274EC7D887F631224
:1044060074EC7D167F671274EC7D107F681274EC75
:104416007D037F691274EC7D5B7F6E1274EC7D0008
:104426007F7A1274EC7D0C7F7B1274EC7D007F7DAD
:104436001274ECAD367F7E1274EC7D227F0012740E
:10444600EC7D077F021274EC7DD07F031274EC7D45
:10445600007F041274EC7D507F051274EC7D277F7B
:10446600111274EC7D0C7F131274EC7D027F1A120C
:1044760074ECAB32AA33A9341229C3FD7F1B127424
:10448600ECAB32AA33A9347582017583001229DC9C
:10449600FD7F1C1274ECAB32AA33A9347582027507
:1044A60083001229DCFD7F1D1274ECAB32AA33A9FE
:1044B600347582037583001229DCFD7F1E1274ECAD
:1044C600AB32AA33A9341229C3FD7F1F1274ECAB99
:1044D60032AA33A9347582017583001229DCFD7F67
:1044E600201274ECAB32AA33A934758202758300AC
:1044F6001229DCFD7F211274ECAB32AA33A9347584
:1045060082037583001229DCFD7F221274EC7D087C
:104516007F231274EC7D887F241274EC7D087F253E
:104526001274EC7D0F7F261274EC7D007F271274C7
:10453600EC7D007F281274EC7D007F291274ECADAF
:10454600357F2A1274EC7D087F2F1274EC7D007F74
:10455600301274EC7DAE7F311274ECAB32AA33A903
:10456600347582047583001229DCFD7F4D1274ECCC
:10457600AB32AA33A9347582057583001229DCFD96
:104586007F4E1274ECAB32AA33A93475820675835A
:10459600001229DCFD7F4F1274ECAB32AA33A9342A
:1045A6007582077583001229DCFD7F501274EC7D3D
:1045B600047F511274EC7D5A7F521274EC7D667F33
:1045C600531274EC7D157F5C1274EC7D1B7F5D12BB
:1045D60074EC7D057F5E1274EC7D677F5F1274EC70
:1045E6007D0C7F601274EC1275FA7D447F001274A4
:1045F600EC7D0F7F2A1274EC7D447F001274EC7DF3
:10460600007F4F1274EC7D887F001274EC7D3F7F33
:104616002F1274EC7D417F0C1274EC7D337F0D12EA
:1046260074EC7D547F0E1274EC7D107F141274ECC2
:104636007D037F241274EC7D007F7E1274EC7F7004
:104646007E5C7D977C19900346E0F8A3E0F9A3E031
:10465600FAA3E0FBC3122C1B601C7FB07E697D9A17
:104666007C19900346E0F8A3E0F9A3E0FAA3E0FB87
:10467600C3122C1B7005126AA88003126B6D7D1184
:104686007F001274EC7D017F6F1274EC7F0D127344
:0F4696006C7E00EF30E1F5800280F11277E022B8
:10742F007D227F001274EC7D007F0E1274EC7D883C
:10743F007F001274EC7D337F0D1274EC7D117F0091
:10744F001274EC7D407F0C1274EC7D807F4D1274B2
:10745F00EC7D057F4E1274EC7D047F511274EC228B
:106DC800E559122CD96DDA006DF9016E3702000011
:106DD8006E46E55A25E0F55A30A402055AAF5A7EA8
:106DE80000EF64554E7057755901755B00755A0070
:106DF80022A2A4E433FFEF655B600E90003FE0043D
:106E0800F0700690003EE004F0900367E004F07034
:106E180006900366E004F0635B01900366E0FEA35E
:106E2800E0FFC3EF94E8EE940340137559022290F3
:0E6E38000366E0FEA3E0FFEF4E700375590005
:016E46002229
:107168008F6C7D117F001274ECE56C122CD971863E
:1071780000718F0171980271A103000071AA7D212D
:107188007F761274EC80227D117F761274EC801960
:107198007D097F761274EC80107D057F761274EC81
:0F71A80080077D037F761274EC7F0912681C222A
:10711700900366E0FEA3E0FFC3EF94E8EE9403401C
:107127003190003EE0FEA3E0FFC3EF9432EE9400FF
:107137004004C2B58002D2B590003EE4F0A3E4F06B
:10714700900366E4F0A3E4F090034A7404F0A37498
:10715700E2F090034AE0FEA3E0FFEF4E7002C2B5F3
:017167002205
:106E4700900366E0FEA3E0FFC3EF94E8EE940340EF
:106E57005790003EE0FEA3E0FFD3EF94FFEE9400CF
:106E6700400890039D74FFF0800D90003EE0FEA364
:106E7700E0FF90039DEFF090003EE0FEA3E0FFC32C
:106E8700EF9432EE94004004C2B58002D2B5900070
:106E97003EE4F0A3E4F0900366E4F0A3E4F090038B
:106EA7004A7404F0A374E2F090034AE0FEA3E0FF03
:076EB700EF4E7002C2B5228C
:101621009005BF7402F09005C0E4F020E825900316
:1016310073E0FFEFC41313135401FFEF5401FF7E56
:1016410000EF4E700E900373E0FFEF4480FF9003B4
:1016510073EFF0900017E0FEA3E0FFEF4E702D90C6
:101661000374E0FFEF5401FF7E00EF64014E701C34
:10167100900374E0FFEF54FEFF900374EFF09003CA
:1016810074E0FFEF54F7FF900374EFF07870E6FF1A
:10169100EFC313FFEF5401FF7E00EF4E600302180A
:1016A100A47F707E5C7D977C19900346E0F8A3E0EF
:1016B100F9A3E0FAA3E0FBC3122C1B601F7FB07EED
:1016C100697D9A7C19900346E0F8A3E0F9A3E0FA5A
:1016D100A3E0FBC3122C1B60030218A4900374E067
:1016E100FFEF131313541FFFEF5401FF7E00EF644C
:1016F100014E60030218A4900374E0FFEF5401FF50
:101701007E00EF64014E60030218A4900356E0FFCF
:101711007E00EF4E60030218A4900370E0FFEF1308
:1017210013543FFFEF5401FF7E00EF64014E601A36
:10173100900373E0FFEFC4135407FFEF5401FF7EE2
:1017410000EF64014E60030218A4900642E0FF7EA0
:1017510000EF64024E60030218A49005C0E4F0900B
:1017610005C0E0FF7E00C3EF9408EE6480948050D2
:10177100329005C0E0FFEF5401FF9005C0E0FEEE9E
:10178100C313FEEE25E0241FF582E43400F583E562
:10179100822FF582E43583F583E4F09005C0E004FF
:1017A100F080BC90001EE0FFEF441FFF90001EEF91
:1017B100F090001F7498F090000BE004F090000B83
:1017C100E0FF900020EFF0900689E0FFEF24FCFF9E
:1017D100900353E0FEEEC39F5058900353E0FF7413
:1017E1008C2FF582E43406F583E0FF9005BFE0FE1F
:1017F100EE5401FE9005BFE0FDEDC313FDED25E0C4
:10180100241FF582E43400F583E5822EF582E43568
:1018110083F583EFF0900353E004F09005BFE004FB
:10182100F09005BFE0FF7E00EF64084E70998002E2
:101831008095900689E0FFEF24FCFF900353E0FEC2
:10184100EFB5062A900020E0FFEF4480FF900020D2
:10185100EFF0900374E0FFEF54F7FF900374EFF0A3
:10186100900374E0FFEF54FEFF900374EFF09003D8
:10187100527403F0900373E0FFEF4410FF90037381
:10188100EFF0900370E0FFEF54FBFF900370EFF077
:101891009005C8E4F09005FB7401F09005C7E4F0F1
:1018A100021AB87870E6FFEFC313FFEF5401FF7E11
:1018B10000EF4E6003021AB87F707E5C7D977C1941
:1018C100900346E0F8A3E0F9A3E0FAA3E0FBC3121A
:1018D1002C1B601F7FB07E697D9A7C19900346E0C6
:1018E100F8A3E0F9A3E0FAA3E0FBC3122C1B600309
:1018F100021AB8900373E0FFEF131313541FFFEFA5
:101901005401FF7E00EF64014E700C90001CE0FE5C
:10191100A3E0FFEF4E606B900373E0FFEFC413137E
:10192100135401FFEF5401FF7E00EF64014E60523A
:10193100900373E0FFEF1313543FFFEF5401FF7E59
:1019410000EF64014E6003021AB890001CE0FEA390
:10195100E0FFEF4E700D900642E0FF7E00EF640263
:101961004E601F9003B3E0FEA3E0FFEF4E60030261
:101971001AB8900642E0FF7E00EF64014E60030258
:101981001AB8900373E0FFEF54FBFF900373EFF07D
:10199100900373E0FFEF547FFF900373EFF07B013F
:1019A1007A00792BC003C002C0017B017A00791E45
:1019B100A801AC02AD03D001D002D0037E007F09A3
:1019C10012299D90001EE0FFEF54E0FFEF4401FF5C
:1019D10090001EEFF0900364E0FEA3E0FFEF24010E
:1019E100FFEE34FFFE7C007D03122AA4EF24CDFF1D
:1019F1009005BEEFF09005BEE0FFEFF404FF900507
:101A0100BEEFF0900642E0FF7E00EF64024E700EE2
:101A11009005BEE0FFEF4480FF9005BEEFF090051A
:101A2100BEE0FF900021EFF0900373E0FFEF13138E
:101A310013541FFFEF5401FF7E00EF64014E70202D
:101A4100900363E0FFEF5407FFEFC43354E0FF90CE
:101A5100001EE0FEEE541FFEEE4FFF90001EEFF061
:101A6100900373E0FFEF54F7FF900373EFF09000E2
:101A71001CE4F0A3E4F09003527403F0900373E0CC
:101A8100FFEF4410FF900373EFF0900370E0FFEF5E
:101A910054FBFF900370EFF09005C8E4F09005FB54
:101AA1007401F09005C7E4F090038BE4F09003819A
:101AB100122C9C00000000900373E0FFEFC4540F50
:101AC100FFEF5401FF7E00EF64014E6003021C7EB4
:101AD1009005FBE0FF7E00EF64014E70069005FB70
:101AE1007402F09005FBE0FF7E00EF64024E60039C
:101AF100021C7E9005C8E0FF7E00EF4E6003021BD2
:101B0100A17870E6FFEF4420FF7870A6077873761E
:101B11000108762CD2A7900040E0FCA3E0FDA3E0F1
:101B2100FEA3E0FFC004C005C006C0077B017A0028
:101B3100791EC003C002C0017B007A00790CA801A4
:101B4100AC02AD03D001D002D0037E007F0912297F
:101B51009D7B007A0079768B158A168917D007D07C
:101B610006D005D004123E097F0312681C7D227F36
:101B7100001274EC7D157F2A1274EC7D117F001226
:101B810074EC1278647B007A0079767D1C12746F94
:101B910078D276000876649005C87401F0021C7E44
:101BA100900352E0FF9005C8E0FEEEC39F504978D4
:101BB10070E6FFEFC413135403FFEF5401FF7E00DF
:101BC100EF64014E7032900371E0FF7E00EF4E70C2
:101BD100277870E6FFEF54BFFF7870A6077B007A85
:101BE1000079767D1C12746F78D276000876649045
:101BF10005C8E004F0021C7E900352E0FF9005C886
:101C0100E0FEEE6F70777870E6FFEFC413135403B4
:101C1100FFEF5401FF7E00EF64014E70609003718D
:101C2100E0FF7E00EF4E70557870E6FFEF54BFFF86
:101C31007870A6079005C8E004F0900373E0FFEF09
:101C41004420FF900373EFF0900373E0FFEF54EF34
:101C5100FF900373EFF090001B7401F0C2A7900393
:101C610073E0FFEF54BFFF900373EFF07870E6FF6E
:101C7100EF54DFFF7870A60790039EE4F0900373A2
:101C8100E0FFEFC4135407FFEF5401FF7E00EF6440
:101C9100014E703E90001BE0FF7E00EF4E703390CE
:101CA1000374E0FFEF131313541FFFEF5401FF7E82
:101CB10000EF4E701D900373E0FFEF54DFFF9003C0
:101CC10073EFF0900370E0FFEF4404FF900370EFB7
:101CD100F0227870E6FFEFC4135407FFEF5401FFC1
:101CE1007E00EF64014E6003021DCA78D2E6FE0851
:101CF100E6FFEF4E6003021DCA7870E6FFEFC413E2
:101D0100135403FFEF5401FF7E00EF4E6003021DE9
:101D1100CA900373E0FFEFC4135407FFEF5401FFB0
:101D21007E00EF4E6003021DCA7F707E5C7D977C52
:101D310019900346E0F8A3E0F9A3E0FAA3E0FBC39E
:101D4100122C1B70107B017A0579CB75361C7D1521
:101D51001242D6802A7FB07E697D9A7C1990034613
:101D6100E0F8A3E0F9A3E0FAA3E0FBC3122C1B7097
:101D71000E7B017A0579E375361C7D151242D61268
:101D810078647B007A0079767D1C12746F78D27644
:101D91000008766490039EE0FF04F07E00C3EF9498
:101DA10002EE64809480402190039EE4F07870E616
:101DB100FFEF54DFFF7870A607900370E0FFEF4458
:091DC10004FF900370EFF0C2A7CB
:011DCA0022F6
:104D5F00D2A57871E6FFEF54FEFF7871A607787140
:104D6F00E6FFEF54F7FF7871A607309303024FE881
:104D7F007871E6FFEF5401FF7E00EF4E7010127551
:104D8F0096C2A57D017C007FF47E0112690B7871BC
:104D9F00E6FFEF4401FF7871A60712000E7871E667
:104DAF00FFEF131313541FFFEF5401FF7E00EF4E5D
:104DBF006003024FE220E91220E80790000AE4F0B6
:104DCF00801990000A7401F0801120E80890000A01
:104DDF007402F0800690000A7403F090000AE0FF5E
:104DEF007E00EF4E601090000AE0FF7E00EF64013E
:104DFF004E6003024F0EC2A3D2A2900360E0FFEFFA
:104E0F00547FFF900360EFF0C2B5900360E0FFEFB7
:104E1F0054EFFF900360EFF07871E6FFEF54FBFF64
:104E2F007871A607900346122C9C1994B0D8900065
:104E3F000AE0FF7E00EF4E705CD2A7900360E0FFA8
:104E4F00EF54DFFF900360EFF0900360E0FFEF544B
:104E5F00FDFF900360EFF0900360E0FFEF1313137B
:104E6F00541FFFEF5401FF7E00EF4E6003024F0E01
:104E7F00900360E0FFEF4408FF900360EFF07F03C3
:104E8F0012681C7B017A0579EB7D01125DBC7F00F6
:104E9F00127168806A90034EE0FEA3E0FFEF4E7040
:104EAF000C90034E7401F0A374F4F0B2A79003605A
:104EBF00E0FFEF4420FF900360EFF0900360E0FF0E
:104ECF00EF54F7FF900360EFF0900360E0FFEFC344
:104EDF0013FFEF5401FF7E00EF4E7023900360E04D
:104EEF00FFEF4402FF900360EFF07F0312681C7B1B
:104EFF00017A0579EB7D01125DBC7F01127168901B
:104F0F00000AE0FF7E00EF64024E601090000AE09E
:104F1F00FF7E00EF64034E6003024FE2D2A3C2A2F2
:104F2F00900360E0FFEF4480FF900360EFF0C2A7B3
:104F3F00900360E0FFEF54DFFF900360EFF090030A
:104F4F0060E0FFEF54F7FF900360EFF0900360E035
:104F5F00FFEF54FDFF900360EFF0900360E0FFEF71
