:1063B4001277D31273FA12000E12781012386F1279
:1063C4006ED01276ED1274E112782F1276AB1200B1
:1063D4000E900346122C9B196563787B017A05792C
:1063E400DB75360C7D151242A090037F7401F0A377
:1063F40074F4F012000E12781BD2AF124D299003E0
:1064040070E0FFEF4404FF900370EFF09003A1E00D
:10641400FFEF54BFFF9003A1EFF09006BCE4F090AF
:1064240006BAE4F07F061266D7D2A3C2A212000E07
:106434009006BAE0FF7E00EF4E600312705890039E
:1064440050E0FEA3E0FFEF4E7003120B4E121DCA84
:106454007F007E007D007C00900040E0F8A3E0F91E
:10646400A3E0FAA3E0FBC3122C1A600312162190D6
:106474000370E0FFEF1313543FFFEF5401FF7E005E
:10648400EF64014E700612628D1264CE126FFC909E
:1064940003A1E0FFEFC413135403FFEF5401FF7E85
:1064A40000EF64014E7004D2B580829003A1E0FF36
:1064B400EFC413135403FFEF5401FF7E00EF4E604B
:0A64C40003026431C2B50264312204
:1073FA0075C75075E78075E30075E44075E5047557
:10740A00E21875E64675E6B90075E50075E7007598
:10741A00E78075E30075E44175E50475E20675E6F3
:0C742A004675E6B90075E50075E7002224
:1077D300439701E5E154F8FFEF4404F5E143E18009
:0477E30043E120223C
:04000E0043E1102298
:106ED0005391F0439107D29343B4044391B053913B
:106EE000BFD29643B4085395FDD2A14395AD5395B7
:106EF000EFD2A443B41043B420C2A053B1CF43B2E5
:106F00003053B3FCD2E8D2E943B440900372E0FFBF
:106F1000EF4420FF900372EFF0900372E0FFEF5414
:106F2000BFFF900372EFF0C2A7C2B5C2A5C292C262
:066F300091C290C2B422E0
:0C00160053C1CFD28853A1FE43C1012288
:0C78040053C13FD28A53A1FD43C10222B0
:0300030002714D3A
:10714D00C0E0C0F0C083C082C0D075D000C000C008
:10715D0001C002C003C004C005C006C007786FE6B9
:10716D00FFEF5401FF7E00EF4E7005125BBD8003F3
:10717D00126CEFD007D006D005D004D003D002D0CA
:0E718D0001D000D0D0D082D083D0F0D0E0323C
:0300130002719BDC
:10719B00C0E0C0F0C083C082C0D075D000C000C0BA
:1071AB0001C002C003C004C005C006C007786FE66B
:1071BB00FFEF5401FF7E00EF4E7005125BBD8003A5
:1071CB00126CEFD007D006D005D004D003D002D07C
:0E71DB0001D000D0D0D082D083D0F0D0E032EE
:0A781B00127804D2AAD2A9D2AC223E
:0432BC0002D000003C
:1076ED00E58954FCFFEF4401F58953A1EF53A3FB4A
:0F76FD005389FB5389F7758ACB758CFAD28C228F
:03000B00025EF39F
:105EF300C0E0C083C082C0D075D000C000C006C05F
:105F030007758CFA758ACB90034EE0FEA3E0FFEF92
:105F13004E600E90034FE024FFF090034EE034FFF9
:105F2300F090037FE0FEA3E0FFEF4E600E9003804E
:105F3300E024FFF090037FE034FFF09003B3E0FE32
:105F4300A3E0FFEF4E600E9003B4E024FFF0900354
:105F5300B3E034FFF07871E6FE08E6FFEF4E600829
:105F63007872E61618700116900344E0FEA3E0FF72
:105F7300EF4E600E900345E024FFF0900344E034BD
:105F8300FFF07873E6FFEF6005787316801278737D
:105F9300760A900372E0FFEF4480FF900372EFF004
:105FA3009006B1E0FFEF60069006B1E014F09000B8
:105FB3001BE0FFEF600690001BE014F0900371E01C
:105FC300FFEF6006900371E014F090034AE0FEA334
:105FD300E0FFEF4E600E90034BE024FFF090034A86
:105FE300E034FFF0900028E0FEA3E0FFEF4E600EE8
:105FF300900029E024FFF0900028E034FFF078D0EF
:10600300E6FE08E6FFEF4E600878D1E61618700149
:1060130016900389E0FEA3E0FFEF4E600E90038A23
:10602300E024FFF0900389E034FFF0D007D006D0DE
:0A60330000D0D0D082D083D0E0323C
:10723300E5D954F1FFEF440AF5D975AC0175DA02CB
:1072430075AC0075AC01E5F244C0F5F275AC0053C2
:10725300BC7F75AC01800543F203800975EA6D7547
:10726300FAF453F2FC75AC0075F9E875E9DA75CFF9
:05727300E875CEDA22EF
:04782F00127233227C
:03783300D2DE2280
:05000600C2DEC2A022D1
:10777B008F1FAF1F7E00EF4E600C0000000000005B
:07778B000000151F80EC2235
:1076CD008F60AF601560EF60167FC812777B7FC843
:1076DD0012777B7FC812777B7FC812777B80E3227E
:0E77F60000000000000000000000284F4B299A
:1032C0004106B9004106BB00C1014106B2004106FA
:1032D000B4004106B3006029065F00000000000052
:1032E00000000000000000000000000000000000DE
:1032F00000000000000000000000000000000000CE
:1033000000000060290688000000000000000000A6
:1033100000000000000000000000000000000000AD
:10332000000000000000000000000000000000009D
:10333000440659000000004106BD0003CD02030011
:103340004106B1004106BC004106BA0041065D00DD
:0B33500041065E004406B500000000CE
:1074E100539CEFD29FD29ED29CC2CDC2CC539C7FE3
:1074F100438780539CBFE58954CFFFEF4420F58932
:1075010043A3085389BF53897F758D98758B98D292
:027511008E22C8
:030023000267C6AB
:1067C600C0E0C0F0C083C082C0D075D000C000C099
:0D67D60001C002C003C004C005C006C0071A
:1067E30078D87600C0AC75AC00309902C299209875
:1067F30003026896C29878D8A699786FE6FFEF549B
:1068030001FF7E00EF4E700A78D8E6FF1265DB02C7
:10681300689678D8E6FFEFB42805900027E4F0786F
:10682300D8E6FF900027E0FE74A22EF582E434033D
:10683300F583EFF0900027E0FFEF04FFEF541FFF15
:10684300900027EFF078D8E6FFEF6429704578D8F9
:106853007600900027E0FF78D8E6FEEEC39F502530
:1068630078D8E6FF74A22FF582E43403F583E0FFC2
:1068730078D8E6FE748D2EF582E43403F583EFF0C9
:1068830078D80680CD9003A1E0FFEF4401FF900389
:05689300A1EFF0D0AC04
:10689800D007D006D005D004D003D002D001D00054
:0B68A800D0D0D082D083D0F0D0E032FE
:0277BE008F61D9
:1077C000A2AC9200C2AC8561993099FDC299A20029
:0277D00092AC79
:0177D2002294
:0873BD008B378A3889398D3ABB
:1073C500900643E4F0900643E4F0900643E0FFEFB7
:1073D500C3953A501FAB37AA38A939900643E0FF49
:1073E5008F827583001229DBFF1277BE900643E07A
:0473F50004F080D64A
:0173F9002271
:027605008F6292
:10760700AF627E00C3EF943AEE64809480500CE53D
:1076170062540FFF900644EFF0800AE56224C9FF29
:0A762700900644EFF0900644E0FFE7
:017631002236
:027576008F6321
:1075780053630FAF637E00C3EF940AEE6480948078
:10758800500CE5634430FF900645EFF0800AE56350
:0D7598002437FF900645EFF0900645E0FF18
:0175A50022C3
:04770C008F538D54B6
:10771000AF53127605EFC454F0FDAF54127605EF67
:09772000540FFFED2FF555AF5594
:01772900223D
:1065DB008F649006B2E0FFEF122CD865F000665383
:1065EB000100006686900660E0FF90065FEFF0907A
:1065FB000661E0FF900660EFF0900661E564F090B5
:10660B00065FE0FF7E00EF64024E7079900661E05A
:10661B00FF7E00EF64114E706C9006BD7401F0901C
:10662B0006B2E004F0900660E0FF9006B4EFF09045
:10663B0006B4E0FF7E00C3EF9429EE6480948040A3
:10664B00449006B2E4F0803D9006B3E0FF74622FF5
:10665B00F582E43406F583E564F09006B3E004F0CC
:10666B009006B4E0FFEF24FDFF9006B3E0FEEEC30F
:10667B009F40129006B2E004F0800A9006B2E4F05C
:10668B009006BDE4F09006B2E0FF7E00EF64024E90
:10669B0070391249FE9006B2E4F09006B3E4F09024
:1066AB000659E0FF7E00EF64934E600D900659E0B3
:1066BB00FF7E00EF64984E70069006BDE4F02290CA
:0C66CB0006BD7402F09006B17402F022CB
:1049FE0078D9760078D9760078D9E6FF7E00C3EFB5
:104A0E009404EE64809480502578D9E6FF74622F6A
:104A1E00F582E43406F583E0FF78D9E6FE74592E6C
:104A2E00F582E43406F583EFF078D90680CA900655
:104A3E0059E0FF7E00EF64924E6003024B9B9003A1
:104A4E0073E0FFEF4404FF900373EFF090034EE02A
:104A5E00FEA3E0FFEF4E700E90002BE0FFEF541F11
:104A6E00FF90002BEFF078D9760078D9E6FF7E0024
:104A7E00C3EF9402EE64809480503D78D9E6FF74C3
:104A8E005A2FF582E43406F583E0FF78D9E6FEEE80
:104A9E005401FE78D9E6FDEDC313FDED25E0242C7F
:104AAE00F582E43400F583E5822EF582E43583F554
:104ABE0083EFF078D90680B290065AE0FFEF540FDC
:104ACE00FF7E00EF64034E601190065AE0FFEF5434
:104ADE000FFF7E00EF64044E7010900374E0FFEF42
:104AEE004404FF900374EFF0800E900374E0FFEF28
:104AFE0054FBFF900374EFF078CF760090065AE0E7
:104B0E00FFEFC4540FFFEF540FFFEF122CD84B39A9
:104B1E00034B39044B39054B39064B39074B3908D2
:104B2E0000004B34800578CF76012290065AE0FFC4
:104B3E00EF540FFFEF122CD84B63014B63024B6304
:104B4E00034B63044B63054B630600004B5E80050D
:104B5E0078CF76012290065BE0FFEF122CD84D281D
:104B6E00004D28044D28064D28454D28464D284712
:104B7E004D28484D28494D284A4D284B4D284C4D1F
:104B8E00284D00004B952278CF76012222900659AF
:104B9E00E0FF7E00EF64984E6003024C2C900354AD
:104BAE00E4F090038CE4F078D9760078D9E6FF7EB5
:104BBE0000C3EF9429EE64809480502578D9E6FFE7
:104BCE00745F2FF582E43406F583E0FF78D9E6FEB4
:104BDE0074882EF582E43406F583EFF078D90680DA
:104BEE00CA900374E0FFEF4408FF900374EFF09057
:104BFE000689E0FF7E00EF2401FFEE3400FE7C000C
:104C0E007D07122A3C900017EEF0A3EFF0900353AD
:104C1E00E4F090000BE4F09003567426F022900618
:104C2E0059E0FF7E00EF64914E7075900376E0FEC2
:104C3E00A3E0FFEF4E704E7F007E007D007C009063
:104C4E000040E0F8A3E0F9A3E0FAA3E0FBC3122CC6
:104C5E001A703278CF76009006BC7401F090065D23
:104C6E00E0FF7E00C3EF9403EE64809480500690C4
:104C7E00065DE004F090065EE4F09003877403F0A6
:104C8E00A374E8F02278CF76019006BC7402F090FF
:104C9E0003877403F0A374E8F09006BA7401F0224F
:104CAE00900659E0FF7E00EF64934E706990065AAD
:104CBE00E0FFEF122CD84CDA014CEB024CFC044D09
:104CCE000DFA4D14FB4D1BFC00004D2890003D7459
:104CDE0008F090034E7403F0A374E8F02290003DA8
:104CEE007404F090034E7403F0A374E8F022900065
:104CFE003D7402F090034E7403F0A374E8F022901A
:104D0E0006BA7401F0229006BA7402F0229006BA26
:0A4D1E007403F022222278CF760100
:014D28002268
:106FFC009006BDE0FF7E00EF64024E70219006B15A
:10700C00E0FF7E00EF4E70169006BD7403F07B001F
:10701C007A0079CD7D031273BD9006BDE4F0900328
:10702C0054E0FF7E00EF64014E702090038CE0FF73
:10703C007E00EF4E70157B017A0379787D07127311
:0C704C00BD900354E4F090038CE4F022AB
:100026007BFF7A7779F6C003C002C0017B017A06AE
:100036007946A801AC02AD03D001D002D0037E0000
:100046007F0A12299C7BFF7A787900C003C002C020
:10005600017B017A067950A801AC02AD03D001D02C
:1000660002D0037E007F0412299C900658E4F0908B
:1000760003A1E0FFEF20E003020B349003A1E0FFB1
:10008600EF54FEFF9003A1EFF090038EE0FFEF64C4
:1000960054600302011990038FE0FFEF644570730B
:1000A600900390E0FFEF64537069900391E0FFEFD7
:1000B6006454705F900392E0FFEF64297055786F87
:1000C600E6FFEF4408FF786FA607786FE6FFEF5468
:1000D600FBFF786FA607786FE6FFEF54FDFF786F9A
:1000E600A607C2A5C2A7C2B5C291C290C29290038A
:1000F60066E4F0A3E4F090003EE4F0A3E4F090039D
:100106009DE4F07F031266D77B017A0679507D0461
:100116001273BD786FE6FFEF131313541FFFEF54EE
:1001260001FF7E00EF64014E6003020B3490038EE4
:10013600E0FFEF122CD801B94502774608594B0863
:10014600D750055D520155530AB35700000B349042
:10015600038FE0FFEF64296003020B34786FE6FF3C
:10016600EF1313543FFFEF5401FF7E00EF64014E7F
:100176007002C2B5786FE6FFEF54FBFF786FA607F3
:10018600786FE6FFEF54FDFF786FA607C2A3D2A2F1
:100196007F031266D77B017A0579EB7D01125D7BC1
:1001A6007F001270FE7B017A0679507D041273BDC2
:1001B600020B3490038FE0FFEF644E706C90039057
:1001C600E0FFEF64447062900391E0FFEF642970F2
:1001D60058786FE6FFEF54F7FF786FA607786FE65B
:1001E600FFEF54FBFF786FA607786FE6FFEF54FD2D
:1001F600FF786FA607C2A5C2A7C2B5C291C290C2B8
:1002060092900366E4F0A3E4F090003EE4F0A3E4E9
:10021600F090039DE4F07F031266D77B017A06799E
:10022600507D041273BD020B3490038FE0FFEF6420
:10023600486003020B34900390E0FFEF64296003EB
:10024600020B34900376E4F0A3E4F01272FD900002
:1002560040122C9B000000007F007E007D007C0089
:10026600126E5C7B017A0679507D041273BD020B17
:100276003490038FE0FFEF644D7061900390E0FFD0
:10028600EF64297057786FE6FFEF1313543FFFEFC3
:100296005401FF7E00EF64014E7002C2B5786FE62E
:1002A600FFEF54FBFF786FA607786FE6FFEF440277
:1002B600FF786FA607C2A3D2A27F031266D77B017F
:1002C6007A0579EB7D01125D7B7F011270FE7B0161
:1002D6007A0679507D041273BD020B3490038FE0C9
:1002E600FFEF6443705D900390E0FFEF643F70534F
:1002F600900391E0FFEF642970499006467428F058
:100306009006477446F09006487443F09005FCE06A
:10031600FFEFC4540FFF127576900649EFF0900573
:10032600FCE0FFEF540FFF12757690064AEFF0904F
:10033600064B7429F07B017A0679467D061273BD59
:10034600020B3490038FE0FFEF64436003020B342B
:10035600900392E0FFEF64296003020B34786FE6A6
:10036600FFEFC313FFEF5401FF7E00EF64014E6001
:1003760003020B34786FE6FFEF54FBFF786FA60796
:100386009003A5E0FF9003A6E0FD12770C900658B7
:10039600EFF07F031266D7C2A3D2A2900658E0FF01
:1003A6007E00D3EF940AEE648094804003020468D2
:1003B600900658E0FF9005FCEFF07B017A0579FC8A
:1003C600751D00751E017FFA7E7F12579F90065895
:1003D600E0FF7E96EF8EF0A4FFAEF0E4FCFDEF2486
:1003E600D8FFEE34B0FEED3494FDEC3419FC9006E3
:1003F600B5122C769006B5E0FCA3E0FDA3E0FEA3C3
:10040600E0FF7B017A0579EB12503B7B017A057997
:10041600EB7D01125D7B900658E0FF7E96EF8EF035
:10042600A4FFAEF0E4FCFDEF2430FFEE34B0FEEDA9
:10043600346FFDEC3419FC9006B5122C769006B597
:10044600E0FCA3E0FDA3E0FEA3E0FF7B017A0579D3
:10045600D312503B7B017A0679507D041273BD029C
:100466000555900658E0FF7E00C3740A9FEE64802F
:10047600F8E46480984003020555900658E0FF7E34
:1004860000D3EF9414EE64809480400302055590E7
:100496000658E0FF9005FCEFF07B017A0579FC75C4
:1004A6001D00751E017FFA7E7F12579F900658E049
:1004B60024F6F0900658E0FF7E96EF8EF0A4FFAE8D
:1004C600F0AB07AA06E4F9F8C374D89BFF74B09A98
:1004D600FE749499FD741998FC9006B5122C7690CA
:1004E60006B5E0FCA3E0FDA3E0FEA3E0FF7B017AF6
:1004F6000579EB12503B7B017A0579EB7D01125DA4
:100506007B900658E0FF7E96EF8EF0A4FFAEF0AB30
:1005160007AA06E4F9F8C374309BFF74B09AFE7418
:100526006F99FD741998FC9006B5122C769006B555
:10053600E0FCA3E0FDA3E0FEA3E0FF7B017A0579E2
:10054600D312503B7B017A0679507D041273BD7F2E
:10055600011270FE020B3490038FE0FFEF645360CC
:10056600030205FA900390E0FFEF6453600302056F
:10057600FA900391E0FFEF64497079900392E0FFEF
:10058600EF6429706F786FE6FFEF1313543FFFEFA8
:100596005401FF7E00EF64014E70599006467428A0
:1005A600F09006477452F09006487453F09006494E
:1005B6007453F090064A7449F090039DE0FFEF549F
:1005C600FFFFEFC4540FFF12757690064BEFF090C5
:1005D600039DE0FFEF540FFF12757690064CEFF087
:1005E60090064D7429F07B017A0679467D081273D0
:1005F600BD020B3490038FE0FFEF6453706D9003E0
:1006060090E0FFEF64297063C2B5786FE6FFEF54A0
:10061600FDFF786FA607900366E4F0A3E4F0900070
:100626003EE4F0A3E4F090039DE4F0D2A3C2A27FDF
:10063600031266D7900346122C9B196FB0307B01CC
:100646007A0579D37D01125D7B12733D7F061266B2
:10065600D7786FE6FFEF4404FF786FA6077B017A31
:100666000679507D041273BD020B3490038FE0FFB0
:10067600EF644E6003020718900390E0FFEF6429D1
:1006860060030207187F007E007D007C009000401A
:10069600E0F8A3E0F9A3E0FAA3E0FBC3122C1A608A
:1006A60012900376E0FEA3E0FFEF04FF900658EFFA
:1006B600F0800D900376E0FEA3E0FF900658EFF081
:1006C6009006467428F09006477452F090064874D7
:1006D6004EF0900658E0FFEF54FFFFEFC4540FFFB3
:1006E600127576900649EFF0900658E0FFEF540F2A
:1006F600FF12757690064AEFF090064B7429F0903B
:100706000658E4F07B017A0679467D061273BD022F
:100716000B3490038FE0FFEF64476003020B3490C5
:100726000392E0FFEF64296003020B34900390E02C
:10073600FFEF64306003020B34900391E0FFEF6437
:10074600306003020B34900654E4F0907FFBE49390
:10075600FF900655EFF0907FFCE493FF900656EF6E
:10076600F0907FFDE493FF900657EFF07F007E0048
:100776007D007C00900654E0F8A3E0F9A3E0FAA31C
:10078600E0FBC3122C1A601C7FFF7EFF7DFF7C00FE
:10079600900654E0F8A3E0F9A3E0FAA3E0FBC31245
:1007A6002C1A700C900040122C9B00000000801444
:1007B600900654E0FCA3E0FDA3E0FEA3E0FF90005A
:1007C60040122C769006467428F09006477452F034
:1007D6009006487447F0900655E0FFEFC4540FFFAB
:1007E600127576900649EFF0900655E0FFEF540F2C
:1007F600FF12757690064AEFF0900656E0FFEFC4BA
:10080600540FFF12757690064BEFF0900656E0FFF8
:10081600EF540FFF12757690064CEFF0900657E0F6
:10082600FFEFC4540FFF12757690064DEFF0900659
:1008360057E0FFEF540FFF12757690064EEFF090DB
:10084600064F7429F07B017A0679467D0A1273BD3C
:10085600020B3490038FE0FFEF64596003020B3400
:10086600900390E0FFEF64296003020B3490064684
:100876007428F0900647744BF09006487459F0902F
:10088600064DE4F0A2A1E433FF90064DE0FEEF4EE4
:10089600FF90064DEFF090064DE0FFEF54FFFFEF9F
:1008A600C4540FFF127576900649EFF090064DE09E
:1008B600FFEF540FFF12757690064AEFF090064B45
:1008C6007429F07B017A0679467D061273BD020B08
:1008D6003490038FE0FFEF644860030209C590037C
:1008E60092E0FFEF642960030209C5900390E0FFE0
:1008F600EFB43219900391E0FFEFB43510D2A57B27
:10090600017A0679507D041273BD020B3490039070
:10091600E0FFEFB43219900391E0FFEFB43710D245
:10092600A77B017A0679507D041273BD020B3490C1
:100936000390E0FFEFB43319900391E0FFEFB43575
:1009460010D2B57B017A0679507D041273BD020B75
:1009560034900390E0FFEFB43119900391E0FFEF7C
:10096600B43110D2917B017A0679507D041273BDA1
:10097600020B34900390E0FFEFB43119900391E03D
:10098600FFEFB43010D2907B017A0679507D0412C5
:1009960073BD020B34900390E0FFEF6431600302F5
:1009A6000B34900391E0FFEF64326003020B34D204
:1009B600927B017A0679507D041273BD020B349046
:1009C600038FE0FFEF644C6003020B34900392E068
:1009D600FFEF64296003020B34900390E0FFEFB44D
:1009E6003219900391E0FFEFB43510C2A57B017A6E
:1009F6000679507D041273BD020B34900390E0FF1C
:100A0600EFB43219900391E0FFEFB43710C2A77B21
:100A1600017A0679507D041273BD020B349003905F
:100A2600E0FFEFB43319900391E0FFEFB43510C245
:100A3600B57B017A0679507D041273BD020B3490A2
:100A46000390E0FFEFB43119900391E0FFEFB4316A
:100A560010C2917B017A0679507D041273BD020B98
:100A660034900390E0FFEFB43119900391E0FFEF6B
:100A7600B43010C2907B017A0679507D041273BDA2
:100A8600020B34900390E0FFEF64316003020B34F5
:100A9600900391E0FFEF64326003020B34C2927B55
:100AA600017A0679507D041273BD020B3490038FD0
:100AB600E0FFEF64477077900396E0FFEF642970DC
:100AC6006D900654E4F09003A5E0FF9003A6E0FDC8
:100AD60012770C900655EFF09003A7E0FF9003A85D
:100AE600E0FD12770C900656EFF09003A9E0FF9018
:100AF60003AAE0FD12770C900657EFF07B017A0609
:100B06007955751D00751E037FFB7E7F12579F90DA
:100B16000654E0FCA3E0FDA3E0FEA3E0FF90004046
:100B2600122C767B017A0679507D041273BD786F9C
:100B3600E6FFEF1313543FFFEF5401FF7E00EF640F
:070B4600014E7003126DE582
:010B4D002285
:0F77E70000000000000000000000000000000093
:0B78100075BF0B7D7C7F0312763222D7
:047632008F5C8D5D7F
:10763600A2AF9202C2AF75E300855CE4855DE27598
:10764600E50475E78075E64675E6B90075E50075EB
:06765600E700A20292AF62
:01765C00220B
:027685008F650F
:10768700A2AF92038565E375E400C2AF75E50375A4
:10769700E78075E64675E6B90075E50075E700A26F
:0376A7000392AF9C
:0176AA0022BD
:0A579F008E188F198B1A8A1B891CC3
:1057A900A2AF9204C2AF9005B7E4F0E51854FEFE2B
:1057B9007F009005B8EEF0A3EFF09005B5E4F0A3F3
:1057C900E4F09005B5E0FEA3E0FFC3EE9402505665
:1057D9009005B8E0FF8FE39005B9E0FF8FE475E528
:1057E9000175E78075E64675E6B975E50075E70068
:1057F9009005B9E004F070069005B8E004F0900552
:10580900B5E0FEA3E0FF74B52FF58274033EF5837E
:10581900E5E2F012000E9005B6E004F0700690057E
:10582900B5E004F0809CE5185401FEAF199005B568
:10583900EEF0A3EFF0E51E451D6041AB1AAA1BA9C6
:105849001C1229C2FF9005B5E0FCA3E0FD74B52D3B
:10585900F58274033CF583EFF07401251CF51CE413
:10586900351BF51B9005B6E004F070069005B5E010
:1058790004F0E51E151E7002151D80B9E51854FEC9
:10588900FE7F009005B8EEF0A3EFF09005B8E0FFB9
:105899008FE375E40075E50375E78075E64675E6FF
:1058A900B90075E50075E7009005B5E4F0A3E4F0EB
:1058B9009005B5E0FEA3E0FFC3EE940250589005B1
:1058C900B5E0FEA3E0FF74B52FF58274033EF583BE
:1058D900E0FF8FE29005B8E0FF8FE39005B9E0FFA4
:1058E9008FE475E50275E78075E64675E6B90075DA
:1058F900E50075E7009005B9E004F070069005B879
:10590900E004F012000E9005B6E004F07006900570
:10591900B5E004F0809AE51854FEFE7F009005B8C2
:10592900EEF0A3EFF09005B5E4F0A3E4F09005B52F
:10593900E0FEA3E0FFC3EE940250789005B8E0FFC3
:105949008FE39005B9E0FF8FE475E50175E7807590
:10595900E64675E6B975E50075E7009005B9E00416
:10596900F070069005B8E004F012000E9005B5E05D
:10597900FEA3E0FF74B52FF58274033EF583E0FFC3
:10598900EF65E2601D9005B7E004F09005B7E0FF10
:105999007E00C3EF9403EE64809480501B02588507
:1059A90080169005B6E004F070069005B5E004F0A5
:1059B9000259369005B7E4F0A20492AF9005B7E01A
:0159C900FFDE
:0159CA0022BA
:0674A9008E568F578D582E
:1074AF00A2AF9205C2AF8558E2E556FF7E00EF54BA
:1074BF00FFF5E3AF57EF54FFF5E475E50275E7808D
:1074CF0075E64675E6B90075E50075E700A2059209
:0174DF00AFFD
:0174E0002289
:106BCC009005BAE4F07BFF7A7779E7C003C002C086
:106BDC00017B017A0579BBA801AC02AD03D001D0D1
:106BEC0002D0037E007F0312299C907FFAE493FF6E
:106BFC009005BAEFF0907FFBE493FF9005BBEFF0AC
:106C0C00907FFCE493FF9005BCEFF0907FFDE49344
:106C1C00FF9005BDEFF07F7C12768512000E7F7E13
:106C2C0012768512000E9005BAE0FD7FFA7E7F1277
:106C3C0074A99005BBE0FD7FFB7E7F1274A99005C3
:106C4C00BCE0FD7FFC7E7F1274A99005BDE0FD7F4A
:066C5C00FD7E7F1274A909
:016C6200220F
:10386F0078B076007BFF7A7779EAC003C002C00197
:10387F007B007A0079B7A801AC02AD03D001D0026A
:10388F00D0037E007F0312299C907FFBE493FF7887
:10389F00B7A607907FFCE493FF78B8A607907FFD4B
:1038AF00E493FF78B9A60778BA760078B7E6FF7881
:1038BF00BBA60778B8E6FF78BCA60778B9E6FF780D
:1038CF00BDA6077F007E007D007C0078BA122C5DBC
:1038DF00C3122C1A60137FFF7EFF7DFF7C0078BA26
:1038EF00122C5DC3122C1A700C900040122C9B00EE
:1038FF00000000800B78BA122C51900040122C76E9
:10390F00907FFEE493FF78B7A607907FFFE493FFC5
:10391F0078B8A60778B7E6FF7E00EF7F00FE78B88D
:10392F00E6FD7C00EF2DFFEE3CFE900376EEF0A35C
:10393F00EFF0900376E0FEA3E0FFEFB4FF0EEEB4DE
:10394F00FF0A900376E4F0A3E4F0801A900376E088
:10395F00FEA3E0FFD3EF94FFEE94004009900376AF
:10396F00E4F0A374FFF0900376E0FEA3E0FF78B3DA
:10397F00A60608A60778B5760008760078B1760017
:10398F0008760078B3E6FE08E6FF78B1E6FC08E6B5
:10399F00FDC3ED9FEC9E4003023ADF78B1E6FE08CF
:1039AF00E6FF907C0075F003EF122CCCEE75F00360
:1039BF00A42583F583E493FF78B7A60778B1E6FED5
:1039CF0008E6FF907C0175F003EF122CCCEE75F03A
:1039DF0003A42583F583E493FF78B8A60778B1E6AF
:1039EF00FE08E6FF907C0275F003EF122CCCEE750B
:1039FF00F003A42583F583E493FF78B9A60778BA7B
:103A0F00760078B7E6FF78BBA60778B8E6FF78BCF4
:103A1F00A60778B9E6FF78BDA6077F007E007D0078
:103A2F007C0078BA122C5DC3122C1A60137FFF7EB4
:103A3F00FF7DFF7C0078BA122C5DC3122C1A700A1E
:103A4F0078B406E618700106802078BBE6FF78B5DB
:103A5F00E6FC08E6FD90004475F003ED122CCCEC6B
:103A6F0075F003A42583F583EFF078BCE6FF78B5F6
:103A7F00E6FC08E6FD90004575F003ED122CCCEC4A
:103A8F0075F003A42583F583EFF078BDE6FF78B5D5
:103A9F00E6FC08E6FD90004675F003ED122CCCEC29
:103AAF0075F003A42583F583EFF078B606E618705A
:103ABF00010678B3E6FE08E6FFD3EF9404EE940117
:103ACF00500E12000E78B206E618700106023992F7
:103ADF00907FFAE493FF78B0A60778B0E6FF7E00F8
:103AEF00C3E49FEE6480F8E46480984003023C4E88
:103AFF0078B0E6FF7E00D3EF940AEE6480948040A6
:103B0F0003023C4E78B0E6FF9005FCEFF078B0E68C
:103B1F00FF7E96EF8EF0A4FFAEF0E4FCFDEF24786D
:103B2F00FFEE3463FEED3465FDEC3419FC90034673
:103B3F00122C76900346E0FCA3E0FDA3E0FEA3E089
:103B4F00FF7B017A0579DB12503B78B0E6FF7E965A
:103B5F00EF8EF0A4FFAEF0E4FCFDEF2430FFEE3467
:103B6F00B0FEED346FFDEC3419FC900346122C7649
:103B7F00900346E0FCA3E0FDA3E0FEA3E0FF7B0182
:103B8F007A0579D312503B78B0E6FF7E96EF8EF030
:103B9F00A4FFAEF0E4FCFDEF24D8FFEE34B0FEED51
:103BAF003494FDEC3419FC900346122C76900346A6
:103BBF00E0FCA3E0FDA3E0FEA3E0FF7B017A057923
:103BCF00EB12503B78B0E6FF7E96EF8EF0A4FFAE7F
:103BDF00F0E4FCFDEF2470FFEE345CFEED3497FD56
:103BEF00EC3419FC900346122C76900346E0FCA3AC
:103BFF00E0FDA3E0FEA3E0FF7B017A0579CB125035
:103C0F003B78B0E6FF7E96EF8EF0A4FFAEF0E4FCBB
:103C1F00FDEF24B0FFEE3469FEED349AFDEC34195C
:103C2F00FC900346122C76900346E0FCA3E0FDA324
:103C3F00E0FEA3E0FF7B017A0579E312503B227887
:103C4F00B0E6FF7E00C3740A9FEE6480F8E46480E0
:103C5F00984003023DD278B0E6FF7E00D3EF941474
:103C6F00EE648094804003023DD278B0E6FF900569
:103C7F00FCEFF078B074F626F678B0E6FF7E96EF9C
:103C8F008EF0A4FFAEF0AB07AA06E4F9F8C3747880
:103C9F009BFF74639AFE746599FD741998FC9003E9
:103CAF0046122C76900346E0FCA3E0FDA3E0FEA3B2
:103CBF00E0FF7B017A0579DB12503B78B0E6FF7E9F
:103CCF0096EF8EF0A4FFAEF0AB07AA06E4F9F8C3A7
:103CDF0074309BFF74B09AFE746F99FD741998FC41
:103CEF00900346122C76900346E0FCA3E0FDA3E080
:103CFF00FEA3E0FF7B017A0579D312503B78B0E643
:103D0F00FF7E96EF8EF0A4FFAEF0AB07AA06E4F9A4
:103D1F00F8C374D89BFF74B09AFE749499FD74190C
:103D2F0098FC900346122C76900346E0FCA3E0FD2E
:103D3F00A3E0FEA3E0FF7B017A0579EB12503B78FD
:103D4F00B0E6FF7E96EF8EF0A4FFAEF0AB07AA06AB
:103D5F00E4F9F8C374709BFF745C9AFE749799FD35
:103D6F00741998FC900346122C76900346E0FCA33E
:103D7F00E0FDA3E0FEA3E0FF7B017A0579CB1250B3
:103D8F003B78B0E6FF7E96EF8EF0A4FFAEF0AB0768
:103D9F00AA06E4F9F8C374B09BFF74699AFE749A8B
:103DAF0099FD741998FC900346122C76900346E007
:103DBF00FCA3E0FDA3E0FEA3E0FF7B017A0579E31E
:033DCF0012503B54
:013DD20022CE
:1052BD007BFF7A7779EDC003C002C0017B007A00D5
:1052CD007990A801AC02AD03D001D002D0037E00CD
:1052DD007F0312299C900377E004F070069003760B
:1052ED00E004F0900376E0FEA3E0FFEEFF7E007891
:1052FD0090A607900376E0FEA3E0FF7E007891A6CE
:10530D00077B007A007990751D00751E027FFE7E69
:10531D007F12579F90000DE0FCA3E0FDA3E0FEA3DC
:10532D00E0FF7810122C2BEF54FFFFEE5400FEED32
:10533D005400FDEC5400FC900376E0FCA3E0FD90DE
:10534D00004175F003ED122CCCEC75F003A4258310
:10535D00F583EFF090000DE0FCA3E0FDA3E0FEA3CC
:10536D00E0FF7808122C2BEF54FFFFEE5400FEEDFA
:10537D005400FDEC5400FC900376E0FCA3E0FD909E
:10538D00004275F003ED122CCCEC75F003A42583CF
:10539D00F583EFF090000DE0FCA3E0FDA3E0FEA38C
:1053AD00E0FFEF54FFFFEE5400FEED5400FDEC5412
:1053BD0000FC900376E0FCA3E0FD90004375F00344
:1053CD00ED122CCCEC75F003A42583F583EFF09052
:1053DD00000DE0FCA3E0FDA3E0FEA3E0FF78991231
:1053ED002C6A789376000876007893E6FE08E6FF3F
:1053FD00C3EE940140030254C27893E6FE08E6FF23
:10540D007C007D03122A3C7895A60608A6077895A0
:10541D00E6FE08E6FFE42FF582747C3EF583E49307
:10542D00FF7890A607789606E6187001067895E63F
:10543D00FE08E6FFE42FF582747C3EF583E493FFCE
:10544D007891A607789606E6187001067895E6FE1F
:10545D0008E6FFE42FF582747C3EF583E493FF7834
:10546D0092A607789D76007890E6FF789EA607783D
:10547D0091E6FF789FA6077892E6FF78A0A6077FB2
:10548D00007E007D007C00789D122C5DC3122C1ACD
:10549D0060237FFF7EFF7DFF7C00789D122C5DC316
:1054AD00122C1A7002800E12000E789406E61870F7
:1054BD0001060253F6789AE6FF7890A607789BE6E8
:1054CD00FF7891A607789CE6FF7892A6077895E677
:1054DD00FE08E6FFEF24FEFFEE34FFFE7897A606EA
:1054ED0008A6077897E6FE08E6FFEF2400FFEE34E6
:1054FD007CFE7B007A007990751D00751E03125796
:10550D009F900376E0FEA3E0FFC3EF94FFEE9400BF
:10551D00401112698A90003DE4F0900350E4F0A32D
:03552D00746EF0A9
:015530002258
:10698A00900370E0FFEFC4540FFFEF5401FF7E0045
:10699A00EF64014E70237D847C037F2C7E01126894
:1069AA00B37D847C037F2C7E011268B37D017C0059
:1069BA007F087E071268B3802E900370E0FFEFC451
:1069CA0013135403FFEF5401FF7E00EF64014E706E
:1069DA00167D847C037F2C7E011268B37D017C00C6
:1069EA007F087E071268B3120006900372E0FFEF79
:1069FA004402FF900372EFF0900370E0FFEF547FC0
:106A0A00FF900370EFF0900372E0FFEF54FBFF90EA
:106A1A000372EFF0900370E0FFEF54BFFF90037032
:106A2A00EFF0900370E0FFEF54EFFF900370EFF088
:106A3A00900373E0FFEF54FEFF900373EFF0C2A5DB
:066A4A0090000CE4F022B4
:086E5C008F3E8E3D8D3C8C3B06
:106E64007BFF7A7779F0C003C002C0017B007A000F
:106E740079C6A801AC02AD03D001D002D0037E00D4
:106E84007F0312299CAF3EAE3DAD3CAC3B78C912AA
:106E94002C6AAF3EAE3DAD3CAC3B900040122C762C
:106EA40078CAE6FF78C6A60778CBE6FF78C7A607B8
:106EB40078CCE6FF78C8A6077B007A0079C6751DF2
:0B6EC40000751E037FFB7E7F12579FAE
:016ECF0022A0
:085531008F428E418D408C3F3A
:1055390078A776000876007BFF7A7779F3C003C0F5
:1055490002C0017B007A0079A9A801AC02AD03D0A1
:1055590001D002D0037E007F0312299C900376E0DC
:10556900FEA3E0FF78A7A60608A60778A17600089B
:105579007600900376E0FEA3E0FF78A1E6FC08E65A
:10558900FDC3ED9FEC9E40030256EA78A1E6FE08B2
:10559900E6FF126F36AB42AA41A940A83FC3122CBD
:1055A9001A60030256DC7FFE7EFF7DFF7C00AB4262
:1055B900AA41A940A83FC3122C1A70030256DC7FE6
:1055C900007E007D007C00AB42AA41A940A83FC3F0
:1055D900122C1A70030256DC78A1E6FE08E6FF7861
:1055E900A3A60608A607900376E0FEA3E0FF78A32A
:1055F900E6FC08E6FDC3ED9FEC9E40030256BE782B
:10560900A3E6FE08E6FF90004775F003EF122CCCE5
:10561900EE75F003A42583F583E0FF78A3E6FC0883
:10562900E6FD90004475F003ED122CCCEC75F00307
:10563900A42583F583EFF078A3E6FE08E6FF900042
:105649004875F003EF122CCCEE75F003A42583F511
:1056590083E0FF78A3E6FC08E6FD90004575F003BA
:10566900ED122CCCEC75F003A42583F583EFF078CB
:10567900A3E6FE08E6FF90004975F003EF122CCC73
:10568900EE75F003A42583F583E0FF78A3E6FC0813
:10569900E6FD90004675F003ED122CCCEC75F00395
:1056A900A42583F583EFF012000E78A406E618709E
:1056B90001060255EF900377E024FFF0900376E0AE
:1056C90034FFF0900376E0FEA3E0FFEF4E70041282
:1056D90072FD2212000E78A206E618700106025524
:1056E9007B900376E0FEA3E0FFEEFF7E0078A9A69B
:1056F90007900376E0FEA3E0FF7E0078AAA6077B69
:10570900007A0079A9751D00751E027FFE7E7F1241
:10571900579F78A1760008760078A7E6FE08E6FF8D
:1057290078A1E6FC08E6FDC3ED9FEC9E506778A1E1
:10573900E6FE08E6FF126F3678AC122C6A78ADE601
:10574900FF78A9A60778AEE6FF78AAA60778AFE69C
:10575900FF78ABA60778A1E6FE08E6FF7C007D038B
:10576900122A3C78A5A60608A60778A5E6FE08E64B
:10577900FFEF2400FFEE347CFE7B007A0079A975E7
:105789001D00751E0312579F12000E78A206E61817
:05579900700106808490
:01579E0022E8
:1072FD00900376E4F0A3E4F078D276000876007877
:10730D00D2E6FE08E6FFC3EE9403502078D2E6FEE7
:10731D0008E6FF74442FF58274003EF583E4F01205
:0F732D00000E78D306E61870010680D3126BCCE1
:01733C00222E
:101DCA00900372E0FFEF20E70302256E900372E0B2
:101DDA00FFEF547FFF900372EFF0900387E0FEA3BA
:101DEA00E0FFEF4E6010900388E024FFF090038735
:101DFA00E034FFF080059006BCE4F090038CE0FF2D
:101E0A00EF600690038CE014F0900017E0FEA3E068
:101E1A00FFEF4E600E900018E024FFF0900017E0EC
:101E2A0034FFF0900356E0FFEF6006900356E0148B
:101E3A00F090001CE0FEA3E0FFEF4E600E90001D44
:101E4A00E024FFF090001CE034FFF0900011E0FE67
:101E5A00A3E0FFEF4E600E900012E024FFF0900026
:101E6A0011E034FFF090036CE0FEA3E0FFEF4E6058
:101E7A000E90036DE024FFF090036CE034FFF090C5
:101E8A0003B2E0FFEF60069003B2E014F09003851E
:101E9A00E0FEA3E0FFEF4E600E900386E024FFF021
:101EAA00900385E034FFF0900015E0FEA3E0FFEF19
:101EBA004E600E900016E024FFF0900015E034FF0B
:101ECA00F0900019E0FEA3E0FFEF4E600E90001ABA
:101EDA00E024FFF0900019E034FFF0900350E0FE98
:101EEA00A3E0FFEF4E600E900351E024FFF0900351
:101EFA0050E034FFF0900008E0FEA3E0FFEF4E60F0
:101F0A0010900009E024FFF0900008E034FFF08010
:101F1A004E900370E0FFEFC4540FFFEF5401FF7EB1
:101F2A0000EF64014E6038900370E0FFEFC41313B2
:101F3A005403FFEF5401FF7E00EF64014E602090CE
:101F4A000373E0FFEF5401FF7E00EF64014E70025D
:101F5A00800D90034CE4F0A3E4F090000CE4F03020
:101F6A00A103022097900373E0FFEF5401FF7E0064
:101F7A00EF64014E600E90034DE004F0700690038A
:101F8A004CE004F09000087401F0A3745EF0900035
:101F9A000CE0FF7E00C3EF9402EE64809480407BE5
:101FAA00900370E0FFEFC4540FFFEF5401FF7E006F
:101FBA00EF4E7067900370E0FFEFC413135403FFF2
:101FCA00EF5401FF7E00EF4E7051900376E0FEA3BE
:101FDA00E0FFC3EF94FFEE94005040900370E0FFDF
:101FEA00EF4440FF900370EFF07D847C037F087E0E
:101FFA00071268B37D017C007F2C7E011268B390C2
:10200A00000CE004F090036E7415F0A37404F090D1
:10201A0000157401F0A374F4F08072900370E0FF6D
:10202A00EFC4540FFFEF5401FF7E00EF64014E70BE
:10203A001290000CE0FF7E00C3EF9401EE648094DE
:10204A0080503B900373E0FFEF5401FF7E00EF6482
:10205A00014E602A900370E0FFEFC413135403FF8C
:10206A00EF5401FF7E00EF64014E702190000CE0F6
:10207A00FF7E00C3EF9403EE64809480400F9000CB
:10208A0015E0FEA3E0FFEF4E700312698A30A159F2
:10209A0090034CE0FEA3E0FFD3EF9403EE940040DC
:1020AA001890000CE0FF7E00C3EF940AEE6480945F
:1020BA0080500690000CE004F0900372E0FFEFC33A
:1020CA0013FFEF5401FF7E00EF64014E701390037B
:1020DA0072E0FFEF54FDFF900372EFF090000CE402
:1020EA00F090034CE4F0A3E4F090034CE0FEA3E08C
:1020FA00FFC3EF94C2EE9401405A900373E0FFEFDE
:10210A004401FF900373EFF0900370E0FFEF54EF88
:10211A00FF900370EFF090034CE4F0A3E4F0120098
:10212A0006900373E0FFEF54FDFF900373EFF09006
:10213A000028E4F0A37482F090036E7415F0A3747F
:10214A0004F090000CE4F09000157401F0A374F40C
:10215A00F00221E990034CE0FEA3E0FFC3EF94FAFA
:10216A00EE9400407A900370E0FFEFC4540FFFEF43
:10217A005401FF7E00EF4E7066900373E0FFEF5448
:10218A0001FF7E00EF4E7057900370E0FFEF44109E
:10219A00FF900370EFF0900370E0FFEF4420FF9090
:1021AA000370EFF07D847C037F087E071268B37D9D
:1021BA00847C037F2C7E011268B37D017C007F2C16
:1021CA007E011268B390000CE004F090036E74155F
:1021DA00F0A37404F09000157401F0A374F4F09065
:1021EA000373E0FFEF5401FF7E00EF64014E706B52
:1021FA00900028E0FEA3E0FFEF4E705F900373E0CB
:10220A00FFEFC313FFEF5401FF7E00EF4E701D90E6
:10221A000373E0FFEF4402FF900373EFF09000288E
:10222A007401F0A37486F0120006802F900373E005
:10223A00FFEFC313FFEF5401FF7E00EF64014E70FE
:10224A001A900373E0FFEF54FDFF900373EFF090D1
:10225A000028E4F0A37482F0127833900370E0FF50
:10226A00EFC4540FFFEF5401FF7E00EF64014E608C
:10227A002C900370E0FFEFC413135403FFEF5401D3
:10228A00FF7E00EF64014E6014900373E0FFEF5489
:10229A0001FF7E00EF64014E600302256E90036227
:1022AA00E004F07006900361E004F0900361E0FE40
:1022BA00A3E0FFC3EF942EEE9400401F900361E465
:1022CA00F0A3E4F0900385E0FEA3E0FFD3EF9400CF
:1022DA00EE94004004D2A58002B2A5900370E0FFFC
:1022EA00EFC41313135401FFEF5401FF7E00EF6490
:1022FA00014E6003022550900372E0FFEF1313545E
:10230A003FFFEF5401FF7E00EF4E60030225507F2E
:10231A00FE7EFF7DFF7C0090000DE0F8A3E0F9A3AC
:10232A00E0FAA3E0FBC3122C1A7024900370E0FFBA
:10233A00EFC4540FFFEF5401FF7E00EF64014E70AB
:10234A000E900372E0FFEF4404FF900372EFF090E7
:10235A000370E0FFEF547FFF900370EFF090037378
:10236A00E0FFEF5401FF7E00EF64014E6003022498
:10237A0004900373E0FFEF54FEFF900373EFF090B5
:10238A000373E0FFEF54FDFF900373EFF0900370C7
:10239A00E0FFEF54BFFF900370EFF0900370E0FF8F
:1023AA00EF54EFFF900370EFF012765D90000DE0AE
:1023BA00FCA3E0FDA3E0FEA3E0FF126E5C900370B5
:1023CA00E0FFEF131313541FFFEF5401FF7E00EFDA
:1023DA0064014E701F900370E0FFEF54F7FF900303
:1023EA0070EFF0900040E0FCA3E0FDA3E0FEA3E064
:1023FA00FF12553112698A022550900370E0FFEFEF
:10240A00131313541FFFEF5401FF7E00EF64014EB4
:10241A007011900370E0FFEF54F7FF900370EFF034
:10242A0002255012765D90036E7415F0A37404F0C1
:10243A00900370E0FFEFC413135403FFEF5401FF3E
:10244A007E00EF64014E70527FFE7EFF7DFF7C00AE
:10245A0090000DE0F8A3E0F9A3E0FAA3E0FBC312B1
:10246A002C1A60367F007E007D007C00900040E0E0
:10247A00F8A3E0F9A3E0FAA3E0FBC3122C1A701444
:10248A0090000DE0FCA3E0FDA3E0FEA3E0FF126EC6
:10249A005C0225501252BD022550900370E0FFEFF6
:1024AA00C4540FFFEF5401FF7E00EF64014E600336
:1024BA00022550900370E0FFEFC4135407FFEF5456
:1024CA0001FF7E00EF64014E705D900370E0FFEF44
:1024DA0054DFFF900370EFF0900376E4F0A3E4F08A
:1024EA001272FD900040122C9B000000007F007EBB
:1024FA00007D007C00126E5C7FFE7EFF7DFF7C000B
:10250A0090000DE0F8A3E0F9A3E0FAA3E0FBC31200
:10251A002C1A603290000DE0FCA3E0FDA3E0FEA3BC
:10252A00E0FF126E5C801F7FFE7EFF7DFF7C0090C5
:10253A00000DE0F8A3E0F9A3E0FAA3E0FBC3122C34
:10254A001A60031252BD90036EE0FEA3E0FFEF4E45
:10255A00600F90036FE024FFF090036EE034FFF009
:05256A002212698A2223
:1076AB00438540438590E58554FCFFEF4401F58508
:1076BB007584005385F75385DF5385FB53A2DFD2C7
:0276CB00942207
:107747008F66E58420E5FB856686E5845480FF7EA9
:0B77570000EF4E60F5438480AF8622F7
:107545008F5E8D5F7F0112777BC2947F0112777BFF
:10755500E55E25E0FFEF4401F55EAF5E127747AFCC
:107565005F1277477F0112777BD2947F0112777B79
:0175750022F3
:027436008F675E
:107438009006E4E4F07F0112777BC2947F01127713
:107448007BE56725E0F567AF671277477FFF12771F
:10745800479006E4EFF07F0112777BD2947F011208
:07746800777B9006E4E0FFD2
:01746F0022FA
:086D6E008F288B298A2A892B4A
:106D76009006E5E4F07F0112777BC2947F011277DB
:106D86007BE52825E0FFEF4401F528AF2812774779
:106D9600AB29AA2AA92B1229C2FF1277479006E52A
:106DA6007401F09006E5E0FFEFC3952C50247F02B6
:106DB60012777BAB29AA2AA92B9006E5E0FF8F82E2
:106DC6007583001229DBFF1277479006E5E004F091
:0E6DD60080D17F0112777BD2947F0112777BF0
:016DE400228C
:086F9A008F2D8B2E8A2F893008
:106FA2009006E6E4F07F0112777BC2947F011277AC
:106FB2007BE52D25E0F52DAF2D1277479006E6E40F
:106FC200F09006E6E0FFEFC3953150217FFF127784
:106FD20047AB2EAA2FA9309006E6E0FE8E8275837B
:106FE20000EF122A1A9006E6E004F080D47F011224
:096FF200777BD2947F0112777BBA
:016FFB002273
:10335B00016E00016F00410352034103A1004103C1
:10336B00700041037200410360004103730041038D
:10337B0074001C74955555555555565595555655C0
:10338B0095555555955555559555555595555555E2
:10339B00420366000042003E000041039D004203D1
:1033AB004A0000410027005003A20000000000006B
:1033BB000000000000000000000050038D00000022
:1033CB000000000000000000000000000041000AA7
:1033DB0000420389000001730042034E00004203C8
:1033EB00B3000002710000420344000042001100D0
:1033FB000042036C0000630000440000000000006A
:10340B0000000000000000000000000000000000B1
:10341B0000000000000000000000000000000000A1
:10342B000000000000000000000000000000000091
:10343B000000000000000000000000000000000081
:1036FB00000000000000000000004400400000003B
:10370B000042037600004403680000000041003DC6
:10371B00004103750044000D00000000420008004A
:10372B000041000C0042034C000042036E000042BB
:10373B000361000042002800004103B200420385F0
:10374B000000420015000042001900004203500027
:10375B0000420387000042037F0000420364000025
:10376B004403810000000041038B004403461965AC
:10377B0063780170014103630042001300004203B0
:10378B009F00004103550041002A0042001C00002D
:10379B004103710041001B00C10641038C0047032C
:1037AB007802071198095246410356004200170050
:1037BB00004103530041000B00410354004800003B
:0C37CB00000000000000000041039E0010
:102CFE00900370E0FFEF20E0030232BB900370E020
:102D0E00FFEF54FEFF900370EFF09005FDE0FF7EA5
:102D1E0000EF64014E70077F0012466F801290051F
:102D2E00FDE0FF7E00EF64024E70057F0212466FDB
:102D3E00900370E0FFEFC313FFEF5401FF7E00EF2F
:102D4E0064014E60030232BB9005FDE0FF90064227
:102D5E00EFF01259CB900370E0FFEFC4540FFFEF6A
:102D6E005401FF7E00EF64014E602C900370E0FF73
:102D7E00EFC413135403FFEF5401FF7E00EF640101
:102D8E004E6014900373E0FFEF5401FF7E00EF647A
:102D9E00014E6003022E82900370E0FFEFC4131306
:102DAE00135401FFEF5401FF7E00EF4E6003023219
:102DBE00BB900375E0FF7E00EF64404E700302325D
:102DCE00BB7F007E007D007C00900368E0F8A3E0EE
:102DDE00F9A3E0FAA3E0FBC3122C1A70030232BB74
:102DEE00900642E0FF7E00EF64014E60030232BBAC
:102DFE00900370E0FFEFC4540FFFEF5401FF7E000D
:102E0E00EF64014E604B900370E0FFEFC413135458
:102E1E0003FFEF5401FF7E00EF64014E6014900338
:102E2E0073E0FFEF5401FF7E00EF64014E6003027A
:102E3E0032BB7FFE7EFF7DFF7C00900368E0F8A32F
:102E4E00E0F9A3E0FAA3E0FBC3122C1A70030232DE
:102E5E00BB900370E0FFEF4480FF900370EFF090A3
:102E6E000368E0FCA3E0FDA3E0FEA3E0FF90000DED
:102E7E00122C7622900370E0FFEF131313541FFFF2
:102E8E00EF5401FF7E00EF64014E601F7FFE7EFF58
:102E9E007DFF7C00900368E0F8A3E0F9A3E0FAA3BD
:102EAE00E0FBC3122C1A60030232BB900370E0FFEA
:102EBE00EF54F7FF900370EFF0900642E0FF7E00B4
:102ECE00EF64014E600302319A7FFE7EFF7DFF7C30
:102EDE0000900368E0F8A3E0F9A3E0FAA3E0FBC3D7
:102EEE00122C1A700A900375E0FF90003DEFF090DF
:102EFE00062AE0FCA3E0FDA3E0FEA3E0FFEF54FFF3
:102F0E00FFEE54FFFEED5400FDEC5400FC7B567AB0
:102F1E005579007800C3122C1A6003023078D2065D
:102F2E007F0112466F900370E0FFEFC313FFEF5463
:102F3E0001FF7E00EF64014E60030232BB1259CBDB
:102F4E00900375E0FF7E00EF64FF4E7056900370A5
:102F5E00E0FFEF131313541FFFEF5401FF7E00EF3A
:102F6E0064014E700F900370E0FFEF54F7FF900373
:102F7E0070EFF022900376E0FEA3E0FFC3EF94FF24
:102F8E00EE940040030232BB12765D900368E0FCC3
:102F9E00A3E0FDA3E0FEA3E0FF90000D122C76123D
:102FAE0052BD2290003DE0FF7E00EF4E60030232E4
:102FBE00BB900370E0FFEF131313541FFFEF540188
:102FCE00FF7E00EF64014E60030232BB900370E09F
:102FDE00FFEF54F7FF900370EFF012765D900368E9
:102FEE00E0FCA3E0FDA3E0FEA3E0FF900040E0F8CC
:102FFE00A3E0F9A3E0FAA3E0FBC3122C1A705990D8
:10300E000040122C9B000000007F007E007D007CA3
:10301E0000126E5C7F00126F367B007A00790078AA
:10302E0000C3122C1A70030232BB7F00126F36904F
:10303E000040122C76900040E0FCA3E0FDA3E0FEE1
:10304E00A3E0FF126E5C900040E0FCA3E0FDA3E065
:10305E00FEA3E0FF12553122900368E0FCA3E0FDD1
:10306E00A3E0FEA3E0FF12553122C20690003DE020
:10307E00FF7E00EF64404E7059900019E0FEA3E011
:10308E00FFEF4E704D9003A1E0FFEF4420FF900341
:10309E00A1EFF09000117403F0A3747AF09003A1E5
:1030AE00E0FFEFC41313135401FFEF5401FF7E0032
:1030BE00EF4E60030231819003A1E0FFEF4480FFE9
:1030CE009003A1EFF090034E740BF0A374B8F002CE
:1030DE00318190003DE0FF7E00EF64404E700302B0
:1030EE0031819003A1E0FFEF54FDFF9003A1EFF0BB
:1030FE0090036CE4F0A3E4F09003A1E0FFEF54EF33
:10310E00FF9003A1EFF09003A1E0FFEFC41354076B
:10311E00FFEF5401FF7E00EF64014E700A9000191C
:10312E00746AF0A37440F090003DE0FFEF5414FF7A
:10313E007E00EF64144E701890034EE0FEA3E0FF85
:10314E00EF4E702F90034E740EF0A374BAF08023DE
:10315E009006BCE0FF7E00EF64014E700C90034EB3
:10316E007402F0A37458F0800A90034E7403F0A317
:10317E0074E8F09003B37402F0A37458F09003A1B6
:10318E00E0FFEF4440FF9003A1EFF022900642E0F3
:10319E00FF7E00EF64024E60030232BB90003DE4FE
:1031AE00F0900034E0FFEFC4135407FFEF5407FF15
:1031BE00900363EFF0900034E0FFEF541FFF7E00AA
:1031CE00EF64014E700A900035E0FF90003DEFF085
:1031DE0090003DE0FFEF54A0FF7E00EF64204E60B4
:1031EE001190003DE0FFEF54C0FF7E00EF64404EB3
:1031FE00700D90034E7401F0A374F4F002329690A9
:10320E00003DE0FFEF54DFFF7E00D3EF9480EE64CD
:10321E00809480406990003DE0FFEF5420FF7E00D7
:10322E00EF4E705A90034E7403F0A374E8F09000C2
:10323E003DE0FFEF54DFFF7E00C3EF94C0EE6480ED
:10324E009480501D90003DE0FFEF541FFF7E00EF75
:10325E002404FFEE3400FE900013EEF0A3EFF08096
:10326E002790003DE0FFEF541FFF7E00EF2404FF88
:10327E00EE3400FE90039FEEF0A3EFF0800A900371
:10328E004E7403F0A374E8F0900373E0FFEF444034
:10329E00FF900373EFF09003B3E4F0A37464F09027
:0E32AE0003A1E0FFEF4440FF9003A1EFF022E8
:02466F008F6852
:10467100AF687E00EF4E600AAF687E00EF64014EC6
:1046810070089006D47403F08010AF687E00EF6468
:10469100024E70069006D47407F09006D2E4F090B2
:1046A10006D4E0FF9006D2E0FEEEC39F400302472E
:1046B100D7AF687E00EF4E600AAF687E00EF6402FC
:1046C1004E70269006D2E0FFEF25E025E02426F586
:1046D10082E43406F583E0FCA3E0FDA3E0FEA3E061
:1046E100FF9006BE122C7680249006D2E0FFEF25C3
:1046F100E025E02432F582E43406F583E0FCA3E012
:10470100FDA3E0FEA3E0FF9006BE122C769006C248
:10471100E4F0A3E4F09006BEE0FCA3E0FDA3E0FE1C
:10472100A3E0FF7801122C2B9006BE122C76900686
:10473100D3E4F09006D3E0FF7E00C3EF9410EE6463
:10474100809480506A9006C2E0FEA3E0FFEF25E06E
:10475100FFEE33FE9006C2EEF0A3EFF09006BEE04E
:10476100FCA3E0FDA3E0FEA3E0FFEF5401FFEE5444
:1047710000FEED5400FDEC5400FCEC4D4E4F600E7C
:104781009006C3E004F070069006C2E004F09006C3
:10479100BEE0FCA3E0FDA3E0FEA3E0FF7802122C43
:1047A1002B9006BE122C769006D3E004F080849004
:1047B10006C2E0FEA3E0FF9006D2E0FDED25E02475
:1047C100C4F582E43406F583EEF0A3EFF09006D24F
:1047D100E004F00246A0AF687E00EF4E600DAF68C6
:1047E1007E00EF64014E60030248AD9006C6E0FE14
:1047F100A3E0FF9006C4E0FCA3E0FDED2FFFEC3E3B
:10480100FE9006C8E0FCA3E0FDEF6D7002EE6C6067
:104811000302489E900370E0FFEF4402FF90037093
:10482100EFF09006C6E0FEA3E0FF7E00E4FCFD7B16
:10483100007A0079017800122AEFA804A905AA06D6
:10484100AB079006C4E0FEA3E0FFE4FCFDEB2FFF05
:10485100EA3EFEE93DFDE83CFC900368122C767FC0
:10486100007E007D007C00900368E0F8A3E0F9A3DE
:10487100E0FAA3E0FBC3122C1A700E900370E0FF64
:10488100EF54FDFF900370EFF09006C6E0FEA3E049
:10489100FF7F00EEFF7E00900375EFF02290037022
:1048A100E0FFEF54FDFF900370EFF022AF687E0050
:1048B100EF64024E60030249FD9006C6E0FEA3E0EC
:1048C100FF9006C4E0FCA3E0FDED2FFFEC3EFE905F
:1048D10006C8E0FCA3E0FDEF2DFFEE3CFE9006CA0A
:1048E100E0FCA3E0FDEF2DFFEE3CFE9006CCE0FCEA
:1048F100A3E0FDEF2DFFEE3CFE9006CEE0FCA3E031
:10490100FDEF2DFFEE3CFE9006D0E0FCA3E0FDEFB5
:104911006D7002EE6C60030249EF900370E0FFEFEF
:104921004402FF900370EFF09006C6E0FEA3E0FFA3
:104931007E00E4FCFD7B007A0079017800122AEF09
:10494100A804A905AA06AB079006C4E0FEA3E0FFF0
:10495100E4FCFDEB2FFFEA3EFEE93DFDE83CFC9067
:104961000368122C767F007E007D007C0090036836
:10497100E0F8A3E0F9A3E0FAA3E0FBC3122C1A705C
:104981000E900370E0FFEF54FDFF900370EFF09085
:1049910006C6E0FEA3E0FF7F00EEFF7E0090035716
:1049A100EFF09006D2E4F09006D2E0FF7E00C3EF74
:1049B1009404EE6480948050439006D2E0FFEF258A
:1049C100E024C8F582E43406F583E0FEA3E0FF901D
:1049D10006D2E0FDED25E02458F582E43403F583A9
:1049E100EEF0A3EFF09006D2E004F080BA2290033B
:0C49F10070E0FFEF54FDFF900370EFF04A
:0149FD002297
:1059CB009006BCE0FF7E00EF64014E7018900370F0
:1059DB00E0FFEF4408FF900370EFF0900375E0FFDA
:1059EB0090003DEFF0900642E0FF7E00EF64014E29
:1059FB006003025B5A9006D5E4F0A3E4F09006D561
:105A0B00E0FEA3E0FF126F36900368E0F8A3E0F925
:105A1B00A3E0FAA3E0FBC3122C1A706B900376E0A1
:105A2B00FEA3E0FF9006D5EEF0A3EFF0900370E03D
:105A3B00FFEF4408FF900370EFF0900642E0FF7E0B
:105A4B0000EF64014E700C900375E0FF90003DEF8A
:105A5B00F0807E900642E0FF7E00EF64024E707194
:105A6B007B017A037957C003C002C0017B017A0026
:105A7B007934A801AC02AD03D001D002D0037E0073
:105A8B007F0912299C804A900040E0FCA3E0FDA313
:105A9B00E0FEA3E0FF900368E0F8A3E0F9A3E0FACF
:105AAB00A3E0FBC3122C1A7028900376E0FEA3E050
:105ABB00FF9006D5EEF0A3EFF0900370E0FFEF44FC
:105ACB0008FF900370EFF0900375E0FF90003DEF3F
:105ADB00F0900370E0FFEFC4540FFFEF5401FF7E13
:105AEB0000EF64014E703F900370E0FFEFC413545E
:105AFB0007FFEF5401FF7E00EF64014E7028900307
:105B0B0076E0FEA3E0FF9006D5EEF0A3EFF0900356
:105B1B0070E0FFEF54F7FF900370EFF0900375E028
:105B2B00FF90003DEFF09006D6E004F07006900673
:105B3B00D5E004F0900376E0FEA3E0FF9006D5E0FD
:105B4B00FCA3E0FDC3ED9FEC9E5003025A0822908C
:105B5B000642E0FF7E00EF64024E7055900040E07D
:105B6B00FCA3E0FDA3E0FEA3E0FF900368E0F8A335
:105B7B00E0F9A3E0FAA3E0FBC3122C1A70339003F5
:105B8B0070E0FFEF4408FF900370EFF07B017A03A6
:105B9B007957C003C002C0017B017A007934A80198
:105BAB00AC02AD03D001D002D0037E007F091229D5
:015BBB009C4D
:015BBC0022C6
:0868B3008E438F448C458D4695
:1068BB0078D4760008760078D4E6FE08E6FFC3EFBE
:1068CB009544EE95435051900372E0FFEF13131371
:1068DB00541FFFEF5401FF7E00EF4E701F900372A9
:1068EB00E0FFEF4408FF900372EFF0900372E0FFBC
:1068FB00EF54EFFF900372EFF01278337F6912774A
:10690B007B7F6912777B7F6912777B12000E78D5BC
:10691B0006E618700106809F78D47600087600781A
:10692B00D4E6FE08E6FFC3EF9546EE9545504F9033
:10693B000372E0FFEFC4540FFFEF5401FF7E00EF33
:10694B004E701F900372E0FFEF4410FF900372EF45
:10695B00F0900372E0FFEF54F7FF900372EFF01229
:10696B0000067F6912777B7F6912777B7F691277CD
:0E697B007B12000E78D506E61870010680A18A
:0169890022EB
:10765D00D2A57D007C007FFC7E081268B39003727A
:10766D00E0FFEF54F7FF900372EFF0120006900366
:08767D0085E4F0A374B9F022CA
:1071E900900372E0FFEF5401FF7E00EF4E703A907A
:1071F9000372E0FFEF4401FF900372EFF078D67657
:107209000008760078D6E6FE08E6FFC3EF9403EEA1
:10721900940050157D1A7C047F1A7E041268B37895
:09722900D706E61870010680DBAF
:017232002239
:107058009006BAE0FF7E00EF64014E700D7D017C62
:10706800007F2C7E011268B380359006BAE0FF7E5F
:1070780000EF64024E70187D847C037F2C7E011221
:1070880068B37D017C007F2C7E011268B38010906C
:1070980006BAE0FF7E00EF64034E70031278339067
:0570A80006BAE4F0222D
:100B4E0090003DE0FFEF54FFFF9006D7EFF09003CB
:100B5E004EE0FEA3E0FFEF4E70030213549006BC6E
:100B6E00E0FF7E00EF64014E60109006BCE0FF7E59
:100B7E0000EF64024E6003020C1090065EE0FF7EF2
:100B8E0000EF4E60030216069006BCE0FF7E00EFFB
:100B9E0064014E60030216069006D7E0FFEF122C9A
:100BAE00D80BF0020BD6040BBC0800001606D2A51B
:100BBE0078CF76A17B007A0079CD7D031273BD903C
:100BCE00065E7401F0021606D2A578CF76A27B00DF
:100BDE007A0079CD7D031273BD90065E7401F0022A
:100BEE001606D2A578CF76A47B007A0079CD7D0348
:100BFE001273BD90065E7401F0021606021606020E
:100C0E0016069006D7E0FFEF122CD80D76010DE7F1
:100C1E00020FCE030E1B040EF6060E4F080F9B0995
:100C2E000F690A0E830C0C3E140C904000000FFF4F
:100C3E00D2A5900344E4F0A374FAF0900372E0FF9F
:100C4E00EFC4135407FFEF13929190034EE0FEA3EF
:100C5E00E0FFC3EF94DEEE940D4003020FFF90030E
:100C6E0072E0FFEFC4135407FFEF139292900372DA
:100C7E00E0FFEFC4135407FFEF1392901271E902D5
:100C8E000FFF9003A1E0FFEFC313FFEF5401FF7EB0
:100C9E0000EF4E6003020FFF900019E0FEA3E0FF8D
:100CAE00EF4E6003020FFF900642E0FF7E00EF64FE
:100CBE00014E6003020FFFD2A5900344E4F0A3E4BB
:100CCE00F0900372E0FFEFC413135403FFEF13927F
:100CDE009090034EE0FEA3E0FFD3EF94D0EE940786
:100CEE004022900372E0FFEFC4135407FFEF1392FC
:100CFE0091900372E0FFEFC413135403FFEF1392AE
:100D0E0092020FFF90034EE0FEA3E0FFD3EF94E8B4
:100D1E00EE94034023900372E0FFEFC413135403C9
:100D2E00FFEF139291900372E0FFEFC4131354037D
:100D3E00FFEF139292020FFF9003A1E0FFEF44101A
:100D4E00FF9003A1EFF0900372E0FFEFC413135472
:100D5E0003FFEF139291900372E0FFEFC413540759
:100D6E00FFEF139292020FFFD2A59005C9E0FF7E0E
:100D7E0000EF4E7031900372E0FFEFC41313540373
:100D8E00FFEF139291900372E0FFEFC4135407FF2D
:100D9E00EF139292900372E0FFEFC4135407FFEF2C
:100DAE00139290020FFF900372E0FFEFC4131354DF
:100DBE0003FFEF139291900372E0FFEFC4131354ED
:100DCE0003FFEF139292900372E0FFEFC4131354DC
:100DDE0003FFEF139290020FFFD2A5900372E0FF74
:100DEE00EFC413135403FFEF139292900372E0FFBC
:100DFE00EFC413135403FFEF139291900372E0FFAD
:100E0E00EFC4135407FFEF139290020FFFD2A59079
:100E1E000372E0FFEFC413135403FFEF139292908B
:100E2E000372E0FFEFC413135403FFEF139290907D
:100E3E000372E0FFEFC4135407FFEF139291020FFA
:100E4E00FFD2A5900372E0FFEFC413135403FFEF1C
:100E5E00139291900372E0FFEFC413135403FFEF4C
:100E6E00139290900372E0FFEFC4135407FFEF1339
:100E7E009292020FFFD2A5900344E4F0A374FAF00D
:100E8E00900372E0FFEFC413135403FFEF1392901D
:100E9E00900372E0FFEFC4135407FFEF139291908B
:100EAE0003A1E0FFEF1313543FFFEF5401FF7E0049
:100EBE00EF4E70149003A1E0FFEF4404FF9003A1E6
:100ECE00EFF09003B27419F09003B2E0FF7E00EFE2
:100EDE004E6003020FFF900372E0FFEFC41354073E
:100EEE00FFEF139292020FFFD2A5900344E4F0A3FA
:100EFE0074FAF0900372E0FFEFC413135403FFEF84
:100F0E00139292900372E0FFEFC4135407FFEF1396
:100F1E0092919003A1E0FFEF1313543FFFEF5401A2
:100F2E00FF7E00EF4E70149003A1E0FFEF4404FF2C
:100F3E009003A1EFF09003B27419F09003B2E0FFAA
:100F4E007E00EF4E6003020FFF900372E0FFEFC4CE
:100F5E00135407FFEF139290020FFFD2A590037266
:100F6E00E0FFEFC413135403FFEF1392919003723B
:100F7E00E0FFEFC4135407FFEF139292900372E059
:100F8E00FFEFC4135407FFEF1392908064D2A59025
:100F9E000372E0FFEFC413135403FFEF139291900B
:100FAE000372E0FFEFC413135403FFEF13929090FC
:100FBE000372E0FFEFC4135407FFEF1392928031D8
:100FCE00D2A5900372E0FFEFC413135403FFEF1387
:100FDE009291900372E0FFEFC413135403FFEF13CB
:100FEE009292900372E0FFEFC4135407FFEF139237
:100FFE0090900642E0FF7E00EF64024E6003021105
:10100E009190003DE0FFEF54DFFF7E00D3EF948020
:10101E00EE64809480500302112490003DE0FFEFB7
:10102E005420FF7E00EF4E600302112490003DE03D
:10103E00FFEF54DFFF7E00C3EF94C0EE6480948018
:10104E00506B9003557401F090002AE4F0D2A590F5
:10105E000372E0FFEFC413135403FFEF139291904A
:10106E000372E0FFEFC413135403FFEF139290903B
:10107E000372E0FFEFC4135407FFEF139292900038
:10108E0013E0FEA3E0FFEF2401FFEE3400FE7C032D
:10109E007DE8122A3C7C007D6B122A4E7C007D641A
:1010AE00122A3C900344EEF0A3EFF08069900355B2
:1010BE00E4F090002A7401F0D2A5900372E0FFEFE5
:1010CE00C413135403FFEF139291900372E0FFEFDA
:1010DE00C4135407FFEF139290900372E0FFEFC416
:1010EE0013135403FFEF13929290039FE0FEA3E0BD
:1010FE00FFEF2401FFEE3400FE7C037DE8122A3C54
:10110E007C007D6B122A4E7C007D64122A3C90037B
:10111E0044EEF0A3EFF090003DE0FF7E00EF647F21
:10112E004E7060900374E0FFEF5401FF7E00EF4EAF
:10113E007051900374E0FFEF1313543FFFEF54010F
:10114E00FF7E00EF4E703C900374E0FFEF4401FF12
:10115E00900374EFF0900374E0FFEF54F7FF9003E9
:10116E0074EFF07B017A0379787D071273BD9003DB
:10117E00547401F090038C7411F0900017E4F0A3F6
:10118E007464F0900355E0FF7E00EF64014E601032
:10119E0090002AE0FF7E00EF64014E6003021252BF
:1011AE0090003DE0FF7E00EF64024E70030212409D
:1011BE0090003DE0FF7E00EF64044E607590003DB0
:1011CE00E0FF7E00EF64084E606890003DE0FF7E19
:1011DE0000EF64014E605B90003DE0FF7E00EF6427
:1011EE00204E604E90003DE0FF7E00EF64404E606A
:1011FE004190003DE0FF7E00EF64094E60349000A8
:10120E003DE0FF7E00EF64034E602790003DE0FF5F
:10121E007E00EF640C4E601A90003DE0FF7E00EF02
:10122E0064064E600D90003DE0FF7E00EF640A4EB6
:10123E007012900355E4F090002AE4F0900344E419
:10124E00F0A3E4F090003DE0FF7E00EF4E606B9067
:10125E00003DE0FF7E00EF64024E605E90003DE0D8
:10126E00FF7E00EF64044E605190003DE0FF7E0073
:10127E00EF64084E604490003DE0FF7E00EF640195
:10128E004E603790003DE0FF7E00EF64204E602AF6
:10129E0090003DE0FF7E00EF64404E601D900355D0
:1012AE00E0FF7E00EF64014E601090002AE0FF7EAA
:1012BE0000EF64014E6003021606900373E0FFEF29
:1012CE00131313541FFFEF5401FF7E00EF4E600304
:1012DE00021606900642E0FF7E00EF64024E6003A7
:1012EE00021606900373E0FFEFC4540FFFEF540194
:1012FE00FF7E00EF4E6003021606900373E0FFEFD1
:10130E00C413135403FFEF5401FF7E00EF64014E2C
:10131E006003021606900373E0FFEF4408FF90038C
:10132E0073EFF090003DE0FF7E00EF4E700C9000EA
:10133E001CE4F0A37423F002160690001CE4F0A344
:10134E007423F00216069003A1E0FFEFC313FFEF24
:10135E005401FF7E00EF64014E7026900011E0FEF6
:10136E00A3E0FFEF4E701A9003A1E0FFEF54FDFFD4
:10137E009003A1EFF090036C7401F0A3740EF0D201
:10138E00A590036CE0FEA3E0FFEF4E700302142461
:10139E0090036CE0FEA3E0FFD3EF94B4EE94004014
:1013AE0021900372E0FFEFC4135407FFEF139291E5
:1013BE00900372E0FFEFC413135403FFEF139290E8
:1013CE00807290036CE0FEA3E0FFD3EF945AEE948C
:1013DE00004022900372E0FFEFC413135403FFEF9B
:1013EE00139291900372E0FFEFC413135403FFEFB7
:1013FE00139290803F900372E0FFEFC413135403D7
:10140E00FFEF139291900372E0FFEFC4135407FFA6
:10141E00EF139290801E9003A1E0FFEF54DFFF9038
:10142E0003A1EFF0900372E0FFEFC413135403FF18
:10143E00EF1392909003A1E0FFEF547FFF9003A172
:10144E00EFF0900372E0FFEF54FEFF900372EFF0A7
:10145E00900372E0FFEFC413135403FFEF13929245
:10146E00900370E0FFEFC4540FFFEF5401FF7E00B6
:10147E00EF64014E605A900370E0FFEFC4131354F3
:10148E0003FFEF5401FF7E00EF64014E60429003B4
:10149E006CE0FEA3E0FFEF4E7036900373E0FFEFBB
:1014AE005401FF7E00EF64014E700280239003858D
:1014BE00E0FEA3E0FFD3EF9400EE94004004D2A52B
:1014CE00800E90037FE0FEA3E0FFEF4E7002C2A5F8
:1014DE00900355E0FF7E00EF64014E600D90002AF0
:1014EE00E0FF7E00EF64014E705D900344E0FEA3CA
:1014FE00E0FFC3EF94E8EE94035024900344E0FE23
:10150E00A3E0FFD3EF9400EE94004013900372E03B
:10151E00FFEFC4135407FFEF139291D2A5805E9094
:10152E000344E0FEA3E0FFEF4E7052900372E0FF23
:10153E00EFC413135403FFEF139291900355E4F08D
:10154E0090002AE4F08036900344E0FEA3E0FFEF23
:10155E004E702A90036CE0FEA3E0FFEF4E701E90DB
:10156E000372E0FFEFC413135403FFEF1392919035
:10157E0003A1E0FFEF54FBFF9003A1EFF09003A156
:10158E00E0FFEFC4540FFFEF5401FF7E00EF640144
:10159E004E702A9003A1E0FFEF547FFF9003A1EF5E
:1015AE00F09003A1E0FFEF4402FF9003A1EFF09053
:1015BE0003A1E0FFEF54EFFF9003A1EFF09003447F
:1015CE00E0FEA3E0FFEF4E702A90036CE0FEA3E076
:1015DE00FFEF4E701E900372E0FFEFC4131354031F
:1015EE00FFEF1392919003A1E0FFEF54FBFF9003E6
:1015FE00A1EFF090065EE4F09003B3E0FEA3E0FFEF
:10160E00EF4E700E9003A1E0FFEF54BFFF9003A1C9
:02161E00EFF0EB
:0116200022A7
:026F36008F6961
:106F380078BE122C820000000078C27600AF697516
:106F4800F003EFA42444F582E5F03400F583E0FF74
:106F580078C3A607AF6975F003EFA42445F582E569
:106F6800F03400F583E0FF78C4A607AF6975F00335
:106F7800EFA42446F582E5F03400F583E0FF78C5F8
:106F8800A60778C2122C5178BE122C6A78BE122C31
:016F980051A7
:016F990022D5
:1037D7004805DB23081999230791114805CB230CCA
:1037E7007777230BEEEF4805E3230CBBBC230C33A1
:1037F700334805D323090000230877774805EB23CF
:103807000C3BBC230BB3334105C900602805FE0000
:1038170000000000000000000000000000000000A1
:103827000000000000000000000000000000000091
:10383700000000000000004105FD014105CA0041EC
:103847000642014105C8004105FB004105C700418B
:1038570005FC004805F300000000000000000159C6
:0738670000015A00015B00A3
:1042A0008B328A3389348D351278257F0D1274361E
:1042B0007E00EF30E0F5800280F17D117F00127505
:1042C000457DFF7F011275457D9F7F021275457DFB
:1042D000C37F031275457D037F041275457D107FF2
:1042E000051275457D007F061275457D157F071205
:1042F00075457D007F081275457D007F0912754563
:104300007D187F0A1275457D887F0B1275457D00EB
:104310007F0C1275457D087F0D1275457D007F0E5F
:104320001275457D007F0F1275457D007F10127557
:10433000457D007F111275457D007F121275457D08
:10434000007F131275457D007F141275457D007F37
:10435000151275457D007F161275457D007F171279
:1043600075457D007F181275457D007F19127545D2
:104370007D007F1A1275457D067F2D1275457D05DE
:104380007F3F1275457D8B7F411275457D007F42D1
:104390001275457D347F431275457D087F45127542
:1043A000457D007F4E1275457D007F4F1275457D1E
:1043B000007F501275457D007F511275457D147F39
:1043C000541275457D067F601275457D887F6312A6
:1043D00075457D167F671275457D107F681275459E
:1043E0007D037F691275457D5B7F6E1275457D008B
:1043F0007F7A1275457D0C7F7B1275457D007F7D30
:10440000127545AD367F7E1275457D227F0012758F
:10441000457D077F021275457DD07F031275457D6E
:10442000007F041275457D507F051275457D277FFD
:10443000111275457D0C7F131275457D027F1A128E
:104440007545AB32AA33A9341229C2FD7F1B127500
:1044500045AB32AA33A9347582017583001229DB7A
:10446000FD7F1C127545AB32AA33A93475820275E3
:1044700083001229DBFD7F1D127545AB32AA33A9DB
:10448000347582037583001229DBFD7F1E1275458A
:10449000AB32AA33A9341229C2FD7F1F127545AB76
:1044A00032AA33A9347582017583001229DBFD7F9E
:1044B00020127545AB32AA33A93475820275830088
:1044C0001229DBFD7F21127545AB32AA33A9347561
:1044D00082037583001229DBFD7F221275457D085A
:1044E0007F231275457D887F241275457D087F25C1
:1044F0001275457D0F7F261275457D007F27127549
:10450000457D007F281275457D007F29127545ADD8
:10451000357F2A1275457D087F2F1275457D007FF6
:10452000301275457DAE7F31127545AB32AA33A985
:10453000347582047583001229DBFD7F4D127545A9
:10454000AB32AA33A9347582057583001229DBFDCD
:104550007F4E127545AB32AA33A934758206758336
:10456000001229DBFD7F4F127545AB32AA33A93407
:104570007582077583001229DBFD7F501275457D1A
:10458000047F511275457D5A7F521275457D667FB5
:10459000531275457D157F5C1275457D1B7F5D123D
:1045A00075457D057F5E1275457D677F5F12754598
:1045B0007D0C7F601275451275137D447F00127566
:1045C000457D0F7F2A1275457D447F001275457D1C
:1045D000007F4F1275457D887F001275457D3F7FB6
:1045E0002F1275457D417F0C1275457D337F0D126D
:1045F00075457D547F0E1275457D107F14127545EB
:104600007D037F241275457D007F7E1275457F7086
:104610007E5C7D977C19900346E0F8A3E0F9A3E067
:10462000FAA3E0FBC3122C1A601C7FB07E697D9A4E
:104630007C19900346E0F8A3E0F9A3E0FAA3E0FBBD
:10464000C3122C1A7005126A508003126B157D116B
:104650007F001275457D017F6F1275457F0D1274C5
:0F466000367E00EF30E1F5800280F112772A22DA
:10733D007D227F001275457D007F0E1275457D887B
:10734D007F001275457D337F0D1275457D117F00D0
:10735D001275457D407F0C1275457D807F4D1275F0
:10736D00457D057F4E1275457D047F511275452271
:106CEF00E559122CD86D01006D20016D5E02000078
:106CFF006D6DE55A25E0F55A30A402055AAF5A7E5C
:106D0F0000EF64554E7057755901755B00755A0049
:106D1F0022A2A4E433FFEF655B600E90003FE00416
:106D2F00F0700690003EE004F0900367E004F0700E
:106D3F0006900366E004F0635B01900366E0FEA338
:106D4F00E0FFC3EF94E8EE940340137559022290CD
:0E6D5F000366E0FEA3E0FFEF4E7003755900DF
:016D6D002203
:1070FE008F6A7D117F00127545E56A122CD8711CBE
:10710E0000712501712E02713703000071407D213F
:10711E007F7612754580227D117F76127545801916
:10712E007D097F7612754580107D057F7612754537
:0F713E0080077D037F761275457F091266D72281
:1070AD00900366E0FEA3E0FFC3EF94E8EE94034087
:1070BD003190003EE0FEA3E0FFC3EF9432EE94006A
:1070CD004004C2B58002D2B590003EE4F0A3E4F0D6
:1070DD00900366E4F0A3E4F090034A7404F0A37403
:1070ED00E2F090034AE0FEA3E0FFEF4E7002C2B55E
:0170FD002270
:106DE500900366E0FEA3E0FFC3EF94E8EE94034052
:106DF5005790003EE0FEA3E0FFD3EF94FFEE940032
:106E0500400890039D74FFF0800D90003EE0FEA3C6
:106E1500E0FF90039DEFF090003EE0FEA3E0FFC38E
:106E2500EF9432EE94004004C2B58002D2B59000D2
:106E35003EE4F0A3E4F0900366E4F0A3E4F09003ED
:106E45004A7404F0A374E2F090034AE0FEA3E0FF65
:076E5500EF4E7002C2B522EE
:101621009005BF7402F09005C0E4F020E825900316
:1016310073E0FFEFC41313135401FFEF5401FF7E56
:1016410000EF4E700E900373E0FFEF4480FF9003B4
:1016510073EFF0900017E0FEA3E0FFEF4E702D90C6
:101661000374E0FFEF5401FF7E00EF64014E701C34
:10167100900374E0FFEF54FEFF900374EFF09003CA
:1016810074E0FFEF54F7FF900374EFF0786EE6FF1C
:10169100EFC313FFEF5401FF7E00EF4E600302180A
:1016A100A47F707E5C7D977C19900346E0F8A3E0EF
:1016B100F9A3E0FAA3E0FBC3122C1A601F7FB07EEE
:1016C100697D9A7C19900346E0F8A3E0F9A3E0FA5A
:1016D100A3E0FBC3122C1A60030218A4900374E068
:1016E100FFEF131313541FFFEF5401FF7E00EF644C
:1016F100014E60030218A4900374E0FFEF5401FF50
:101701007E00EF64014E60030218A4900356E0FFCF
:101711007E00EF4E60030218A4900370E0FFEF1308
:1017210013543FFFEF5401FF7E00EF64014E601A36
:10173100900373E0FFEFC4135407FFEF5401FF7EE2
:1017410000EF64014E60030218A4900642E0FF7EA0
:1017510000EF64024E60030218A49005C0E4F0900B
:1017610005C0E0FF7E00C3EF9408EE6480948050D2
:10177100329005C0E0FFEF5401FF9005C0E0FEEE9E
:10178100C313FEEE25E0241FF582E43400F583E562
:10179100822FF582E43583F583E4F09005C0E004FF
:1017A100F080BC90001EE0FFEF441FFF90001EEF91
:1017B100F090001F7498F090000BE004F090000B83
:1017C100E0FF900020EFF0900689E0FFEF24FCFF9E
:1017D100900353E0FEEEC39F5058900353E0FF7413
:1017E1008C2FF582E43406F583E0FF9005BFE0FE1F
:1017F100EE5401FE9005BFE0FDEDC313FDED25E0C4
:10180100241FF582E43400F583E5822EF582E43568
:1018110083F583EFF0900353E004F09005BFE004FB
:10182100F09005BFE0FF7E00EF64084E70998002E2
:101831008095900689E0FFEF24FCFF900353E0FEC2
:10184100EFB5062A900020E0FFEF4480FF900020D2
:10185100EFF0900374E0FFEF54F7FF900374EFF0A3
:10186100900374E0FFEF54FEFF900374EFF09003D8
:10187100527403F0900373E0FFEF4410FF90037381
:10188100EFF0900370E0FFEF54FBFF900370EFF077
:101891009005C8E4F09005FB7401F09005C7E4F0F1
:1018A100021AB8786EE6FFEFC313FFEF5401FF7E13
:1018B10000EF4E6003021AB87F707E5C7D977C1941
:1018C100900346E0F8A3E0F9A3E0FAA3E0FBC3121A
:1018D1002C1A601F7FB07E697D9A7C19900346E0C7
:1018E100F8A3E0F9A3E0FAA3E0FBC3122C1A60030A
:1018F100021AB8900373E0FFEF131313541FFFEFA5
:101901005401FF7E00EF64014E700C90001CE0FE5C
:10191100A3E0FFEF4E606B900373E0FFEFC413137E
:10192100135401FFEF5401FF7E00EF64014E60523A
:10193100900373E0FFEF1313543FFFEF5401FF7E59
:1019410000EF64014E6003021AB890001CE0FEA390
:10195100E0FFEF4E700D900642E0FF7E00EF640263
:101961004E601F9003B3E0FEA3E0FFEF4E60030261
:101971001AB8900642E0FF7E00EF64014E60030258
:101981001AB8900373E0FFEF54FBFF900373EFF07D
:10199100900373E0FFEF547FFF900373EFF07B013F
:1019A1007A00792BC003C002C0017B017A00791E45
:1019B100A801AC02AD03D001D002D0037E007F09A3
:1019C10012299C90001EE0FFEF54E0FFEF4401FF5D
:1019D10090001EEFF0900364E0FEA3E0FFEF24010E
:1019E100FFEE34FFFE7C007D03122AA3EF24CDFF1E
:1019F1009005BEEFF09005BEE0FFEFF404FF900507
:101A0100BEEFF0900642E0FF7E00EF64024E700EE2
:101A11009005BEE0FFEF4480FF9005BEEFF090051A
:101A2100BEE0FF900021EFF0900373E0FFEF13138E
:101A310013541FFFEF5401FF7E00EF64014E70202D
:101A4100900363E0FFEF5407FFEFC43354E0FF90CE
:101A5100001EE0FEEE541FFEEE4FFF90001EEFF061
:101A6100900373E0FFEF54F7FF900373EFF09000E2
:101A71001CE4F0A3E4F09003527403F0900373E0CC
:101A8100FFEF4410FF900373EFF0900370E0FFEF5E
:101A910054FBFF900370EFF09005C8E4F09005FB54
:101AA1007401F09005C7E4F090038BE4F09003819A
:101AB100122C9B00000000900373E0FFEFC4540F51
:101AC100FFEF5401FF7E00EF64014E6003021C79B9
:101AD1009005FBE0FF7E00EF64014E70069005FB70
:101AE1007402F09005FBE0FF7E00EF64024E60039C
:101AF100021C799005C8E0FF7E00EF4E6003021BD7
:101B0100A1786EE6FFEF4420FF786EA60778717624
:101B11000108762CD2A7900040E0FCA3E0FDA3E0F1
:101B2100FEA3E0FFC004C005C006C0077B017A0028
:101B3100791EC003C002C0017B007A00790CA801A4
:101B4100AC02AD03D001D002D0037E007F0912297F
:101B51009C7B007A0079748B158A168917D007D07F
:101B610006D005D004123DD37F031266D77D227FB4
:101B7100001275457D157F2A1275457D117F001272
:101B810075451277927B007A0079747D1C12737D02
:101B910078D076000876649005C87401F0021C794B
:101BA100900352E0FF9005C8E0FEEEC39F504978D4
:101BB1006EE6FFEFC413135403FFEF5401FF7E00E1
:101BC100EF64014E7032900371E0FF7E00EF4E70C2
:101BD10027786EE6FFEF54BFFF786EA6077B007A89
:101BE1000079747D1C12737D78D07600087664903C
:101BF10005C8E004F0021C79900352E0FF9005C88B
:101C0100E0FEEE6F7072786EE6FFEFC413135403BB
:101C1100FFEF5401FF7E00EF64014E705B90037192
:101C2100E0FF7E00EF4E7050786EE6FFEF54BFFF8D
:101C3100786EA6079005C8E004F0900373E0FFEF0B
:101C41004420FF900373EFF0900373E0FFEF54EF34
:101C5100FF900373EFF090001B7401F0C2A7900393
:101C610073E0FFEF54BFFF900373EFF0786EE6FF70
:101C7100EF54DFFF786EA607900373E0FFEFC41304
:101C81005407FFEF5401FF7E00EF64014E703E9058
:101C9100001BE0FF7E00EF4E7033900374E0FFEF16
:101CA100131313541FFFEF5401FF7E00EF4E701DFD
:101CB100900373E0FFEF54DFFF900373EFF09003A5
:101CC10070E0FFEF4404FF900370EFF022786EE6BE
:101CD100FFEFC4135407FFEF5401FF7E00EF6401CF
:101CE1004E6003021DC978D0E6FE08E6FFEF4E60A4
:101CF10003021DC9786EE6FFEFC413135403FFEF0F
:101D01005401FF7E00EF4E6003021DC9900373E092
:101D1100FFEFC4135407FFEF5401FF7E00EF4E6045
:101D210003021DC97F707E5C7D977C19900346E09C
:101D3100F8A3E0F9A3E0FAA3E0FBC3122C1A701098
:101D41007B017A0579CB75361C7D151242A0802A5C
:101D51007FB07E697D9A7C19900346E0F8A3E0F993
:101D6100A3E0FAA3E0FBC3122C1A700E7B017A05E3
:101D710079E375361C7D151242A01277927B007AA9
:101D81000079747D1C12737D78D07600087664909A
:101D9100039EE004F090039EE0FF7E00C3EF9403F6
:101DA100EE64809480402190039EE4F0786EE6FF1B
:101DB100EF54DFFF786EA607900370E0FFEF440455
:081DC100FF900370EFF0C2A7D0
:011DC90022F7
:104D2900D2A5786FE6FFEF54FEFF786FA607786F7C
:104D3900E6FFEF54F7FF786FA607309303024FAFF2
:104D4900786FE6FFEF5401FF7E00EF4E700DC2A5AC
:104D59007D017C007FF47E011268B3786FE6FFEF76
:104D69004401FF786FA60712000E786FE6FFEF1374
:104D79001313541FFFEF5401FF7E00EF4E6003022F
:104D89004FA920E91220E80790000AE4F080199061
:104D9900000A7401F0801120E80890000A7402F0FA
:104DA900800690000A7403F090000AE0FF7E00EF8D
:104DB9004E601090000AE0FF7E00EF64014E600330
:104DC900024ED5C2A3D2A2900360E0FFEF547FFF49
:104DD900900360EFF0C2B5900360E0FFEF54EFFF7E
:104DE900900360EFF0786FE6FFEF54FBFF786FA652
:104DF90007900346122C9B1994B0D890000AE0FF43
:104E09007E00EF4E705CD2A7900360E0FFEF54DFA5
:104E1900FF900360EFF0900360E0FFEF54FDFF9017
:104E29000360EFF0900360E0FFEF131313541FFFCB
:104E3900EF5401FF7E00EF4E6003024ED5900360F0
:104E4900E0FFEF4408FF900360EFF07F031266D79D
:104E59007B017A0579EB7D01125D7B7F001270FE83
:104E6900806A90034EE0FEA3E0FFEF4E700C9003C2
:104E79004E7401F0A374F4F0B2A7900360E0FFEF61
:104E89004420FF900360EFF0900360E0FFEF54F7D8
:104E9900FF900360EFF0900360E0FFEFC313FFEFB3
:104EA9005401FF7E00EF4E7023900360E0FFEF4452
:104EB90002FF900360EFF07F031266D77B017A054A
:104EC90079EB7D01125D7B7F011270FE90000AE093
:104ED900FF7E00EF64024E601090000AE0FF7E0042
:104EE900EF64034E6003024FA9D2A3C2A2900360EC
:104EF900E0FFEF4480FF900360EFF0C2A7900360EA
:104F0900E0FFEF54DFFF900360EFF0900360E0FFF4
:104F1900EF54F7FF900360EFF0900360E0FFEF5468
:104F2900FDFF900360EFF0900360E0FFEFC4540FC2
:104F3900FFEF5401FF7E00EF4E7030900360E0FFF9
:104F4900EF4410FF900360EFF07F031266D79003E0
:104F590046122C9B196FB0307B017A0579D37D01FC
:104F6900125D7B12733D7F061266D790000AE0FF3F
:104F79007E00EF64024E701890034EE0FEA3E0FF3E
:104F8900EF4E700C90034E7401F0A374F4F0B2B5B7
:104F990090000AE0FF7E00EF64034E70031270ADCB
:104FA900120026024D43786FE6FFEF5401FF7E00A1
:104FB900EF64014E70137F031266D77B017A05797E
:104FC900DB75360C7D551242A0900346122C9B19B5
