:10641E0012786D1274BD12000E12789E1238D912B7
:10642E0070631277D01275A41278D112776E1200A3
:10643E000E900346122D0D196563787B017A05794E
:10644E00DB75360C7D1512430A90037F7401F0A3A1
:10645E0074F4F012000E1278A9D2AF124D9390037D
:10646E0070E0FFEF4404FF900370EFF09003A1E0A3
:10647E00FFEF54BFFF9003A1EFF09006BCE4F09045
:10648E0006BAE4F07F06126741D2A3C2A212000E32
:10649E009006BAE0FF7E00EF4E600312717190031A
:1064AE0050E0FEA3E0FFEF4E7003120BC2121E3C33
:1064BE007F007E007D007C00900040E0F8A3E0F9B4
:1064CE00A3E0FAA3E0FBC3122C8C60031216959086
:1064DE000370E0FFEF1313543FFFEF5401FF7E00F4
:1064EE00EF64014E70061262F71265381270C49096
:1064FE0003A1E0FFEFC413135403FFEF5401FF7E1B
:10650E0000EF64014E7004D2A480829003A1E0FFDC
:10651E00EFC413135403FFEF5401FF7E00EF4E60E0
:0A652E000302649BC2A402649B22D6
:1074BD0075C75075E78075E30075E44075E5047593
:1074CD00E21875E64675E6B90075E50075E70075D5
:1074DD00E78075E30075E44175E50475E20675E630
:0C74ED004675E6B90075E50075E7002261
:10786D00439701E5E154F8FFEF4404F5E143E1806E
:04787D0043E12022A1
:04000E0043E1102298
:107063005391F0439107D29343B4044391B05391A6
:10707300BFD29643B4085395FDD2A14395FD43B4C3
:107083001043B420C2A043B12053B2DF53B3FCD2A8
:10709300E8D2E943B440900372E0FFEF4420FF904D
:1070A3000372EFF0900372E0FFEF54BFFF9003729F
:1070B300EFF0C2A6C2A4C2A5C292C291C290C2A757
:0170C30022AA
:0C00160053C1CFD28853A1FE43C1012288
:0300030002721076
:10721000C0E0C0F0C083C082C0D075D000C000C044
:1072200001C002C003C004C005C006C0077872E6F2
:10723000FFEF5401FF7E00EF4E7005125C278003C4
:10724000126D59D007D006D005D004D003D002D09B
:0E72500001D000D0D0D082D083D0F0D0E03278
:0300130002725E18
:10725E00C0E0C0F0C083C082C0D075D000C000C0F6
:10726E0001C002C003C004C005C006C0077872E6A4
:10727E00FFEF5401FF7E00EF4E7005125C27800376
:10728E00126D59D007D006D005D004D003D002D04D
:0E729E0001D000D0D0D082D083D0F0D0E0322A
:0A78A900120016D2A8D2A9D2AC2218
:04332E0002D30000C6
:1077D000E58954FCFFEF4401F58953A1EF53A3FB66
:0F77E0005389FB5389F7758ACB758CFAD28C22AB
:03000B00025F5D34
:105F5D00C0E0C083C082C0D075D000C000C006C0F4
:105F6D0007758CFA758ACB90034EE0FEA3E0FFEF28
:105F7D004E600E90034FE024FFF090034EE034FF8F
:105F8D00F090037FE0FEA3E0FFEF4E600E900380E4
:105F9D00E024FFF090037FE034FFF09003B3E0FEC8
:105FAD00A3E0FFEF4E600E9003B4E024FFF09003EA
:105FBD00B3E034FFF07874E6FE08E6FFEF4E6008BC
:105FCD007875E61618700116900344E0FEA3E0FF05
:105FDD00EF4E600E900345E024FFF0900344E03453
:105FED00FFF07876E6FFEF6005787616801278760A
:105FFD00760A900372E0FFEF4480FF900372EFF09A
:10600D009006B1E0FFEF60069006B1E014F090004D
:10601D001BE0FFEF600690001BE014F0900371E0B1
:10602D00FFEF6006900371E014F090034AE0FEA3C9
:10603D00E0FFEF4E600E90034BE024FFF090034A1B
:10604D00E034FFF0900028E0FEA3E0FFEF4E600E7D
:10605D00900029E024FFF0900028E034FFF078D381
:10606D00E6FE08E6FFEF4E600878D4E616187001DC
:10607D0016900389E0FEA3E0FFEF4E600E90038AB9
:10608D00E024FFF0900389E034FFF0D007D006D074
:0A609D0000D0D0D082D083D0E032D2
:1072F600E5D954F1FFEF440AF5D975AC0175DA0208
:1073060075AC0075AC01E5F244C0F5F275AC0053FE
:10731600BC7F75AC01800543F203800975EA6D7583
:10732600FAF453F2FC75AC0075F9E875E9DA75CF35
:05733600E875CEDA222B
:0478D1001272F62217
:0378D500D2DE22DE
:05000600C2DEC2A022D1
:107843008F1FAF1F7E00EF4E600A00000000000094
:05785300151F80EE226C
:107790008F63AF631563EF60167FC81278437FC8AD
:1077A0001278437FC81278437FC812784380E3225F
:0E78900000000000000000000000284F4B29FF
:103332004106B9004106BB00C1014106B200410687
:10334200B4004106B30060280660000000000000DF
:10335200000000000000000000000000000000006B
:10336200000000000000000000000000000000005B
:103372000000602906880000000000000000000034
:10338200000000000000000000000000000000003B
:103392000000000000000000000000000000000328
:1033A200D00203004106B1004106BC004106BA004A
:0F33B20041065E0041065F004406B500000000C2
:1075A400539CEFD29FD29ED29CC2CDC2CC539C7F1F
:1075B400438780539CBFE58954CFFFEF4420F5896E
:1075C40043A3085389BF53897F758D98758B98D2CF
:0275D4008E2205
:0300230002683040
:10683000C0E0C0F0C083C082C0D075D000C000C02E
:0D68400001C002C003C004C005C006C007AF
:10684D0078DB7600C0AC75AC00309902C299209807
:10685D0003026900C29878DBA6997872E6FFEF54BF
:10686D0001FF7E00EF4E700A78DBE6FF12664502EF
:10687D00690078DBE6FFEFB42805900027E4F07897
:10688D00DBE6FF900027E0FE74A22EF582E43403D0
:10689D00F583EFF0900027E0FFEF04FFEF541FFFAB
:1068AD00900027EFF078DBE6FFEF6429704578DB89
:1068BD007600900027E0FF78DBE6FEEEC39F5025C3
:1068CD0078DBE6FF74A22FF582E43403F583E0FF55
:1068DD0078DBE6FE748D2EF582E43403F583EFF05C
:1068ED0078DB0680CD9003A1E0FFEF4401FF90031C
:0568FD00A1EFF0D0AC9A
:10690200D007D006D005D004D003D002D001D000E9
:0B691200D0D0D082D083D0F0D0E03293
:027858008F643B
:10785A00A2AC9200C2AC8564993099FDC299A2008B
:02786A0092ACDE
:01786C0022F9
:087480008B378A3889398D3AF7
:10748800900644E4F0900644E4F0900644E0FFEFF0
:10749800C3953A501FAB37AA38A939900644E0FF84
:1074A8008F82758300122A4DFF127858900644E0A7
:0474B80004F080D686
:0174BC0022AD
:0276C8008F65CC
:1076CA00AF657E00C3EF943AEE64809480500CE577
:1076DA0065540FFF900645EFF0800AE56524C9FF5F
:0A76EA00900645EFF0900645E0FF22
:0176F4002273
:027639008F665A
:10763B0053660FAF667E00C3EF940AEE64809480AE
:10764B00500CE5664430FF900646EFF0800AE56685
:0D765B002437FF900646EFF0900646E0FF52
:0176680022FF
:0477EF008F538D54D3
:1077F300AF531276C8EFC454F0FDAF541276C8EFFE
:09780300540FFFED2FF555AF55B0
:01780C002259
:106645008F679006B2E0FFEF122D4A665A0066BDCD
:1066550001000066F0900661E0FF900660EFF090A3
:106665000662E0FF900661EFF0900662E567F09044
:106675000660E0FF7E00EF64024E7079900662E0EE
:10668500FF7E00EF64114E706C9006BD7401F090B2
:1066950006B2E004F0900661E0FF9006B4EFF090DA
:1066A50006B4E0FF7E00C3EF9428EE64809480403A
:1066B500449006B2E4F0803D9006B3E0FF74632F8A
:1066C500F582E43406F583E567F09006B3E004F05F
:1066D5009006B4E0FFEF24FDFF9006B3E0FEEEC3A5
:1066E5009F40129006B2E004F0800A9006B2E4F0F2
:1066F5009006BDE4F09006B2E0FF7E00EF64024E26
:106705007039124A689006B2E4F09006B3E4F0904E
:10671500065AE0FF7E00EF64934E600D90065AE046
:10672500FF7E00EF64984E70069006BDE4F022905F
:0C67350006BD7402F09006B17402F02260
:104A680078DC760078DC760078DCE6FF7E00C3EF41
:104A78009404EE64809480502578DCE6FF74632FFC
:104A8800F582E43406F583E0FF78DCE6FE745A2EFE
:104A9800F582E43406F583EFF078DC0680CA9006E8
:104AA8005AE0FF7E00EF64924E6003024C059003CB
:104AB80073E0FFEF4404FF900373EFF090034EE0C0
:104AC800FEA3E0FFEF4E700E90002BE0FFEF541FA7
:104AD800FF90002BEFF078DC760078DCE6FF7E00B4
:104AE800C3EF9402EE64809480503D78DCE6FF7456
:104AF8005B2FF582E43406F583E0FF78DCE6FEEE12
:104B08005401FE78DCE6FDEDC313FDED25E0242C11
:104B1800F582E43400F583E5822EF582E43583F5E9
:104B280083EFF078DC0680B290065BE0FFEF540F6D
:104B3800FF7E00EF64034E601190065BE0FFEF54C8
:104B48000FFF7E00EF64044E7010900374E0FFEFD7
:104B58004404FF900374EFF0800E900374E0FFEFBD
:104B680054FBFF900374EFF078D2760090065BE078
:104B7800FFEFC4540FFFEF540FFFEF122D4A4BA362
:104B8800034BA3044BA3054BA3064BA3074BA30856
:104B980000004B9E800578D276012290065BE0FFEC
:104BA800EF540FFFEF122D4A4BCD014BCD024BCDE9
:104BB800034BCD044BCD054BCD0600004BC88005FB
:104BC80078D276012290065CE0FFEF122D4A4D92D2
:104BD800004D92044D92064D92454D92464D924796
:104BE8004D92484D92494D924A4D924B4D924C4DA3
:104BF800924D00004BFF2278D27601222290065A6D
:104C0800E0FF7E00EF64984E6003024C96900354D8
:104C1800E4F090038CE4F078DC760078DCE6FF7E44
:104C280000C3EF9429EE64809480502578DCE6FF79
:104C380074602FF582E43406F583E0FF78DCE6FE45
:104C480074882EF582E43406F583EFF078DC06806C
:104C5800CA900374E0FFEF4408FF900374EFF090EC
:104C68000689E0FF7E00EF2401FFEE3400FE7C00A1
:104C78007D07122AAE900017EEF0A3EFF0900353D1
:104C8800E4F090000BE4F09003567426F0229006AE
:104C98005AE0FF7E00EF64914E7075900376E0FE57
:104CA800A3E0FFEF4E704E7F007E007D007C0090F9
:104CB8000040E0F8A3E0F9A3E0FAA3E0FBC3122C5C
:104CC8008C703278D276009006BC7401F090065E43
:104CD800E0FF7E00C3EF9403EE648094805006905A
:104CE800065EE004F090065FE4F09003877403F03A
:104CF800A374E8F02278D276019006BC7402F09092
:104D080003877403F0A374E8F09006BA7401F022E4
:104D180090065AE0FF7E00EF64934E706990065B40
:104D2800E0FFEF122D4A4D44014D55024D66044DEA
:104D380077FA4D7EFB4D85FC00004D9290003D7446
:104D480008F090034E7403F0A374E8F02290003D3D
:104D58007404F090034E7403F0A374E8F0229000FA
:104D68003D7402F090034E7403F0A374E8F02290AF
:104D780006BA7401F0229006BA7402F0229006BABC
:0A4D88007403F022222278D2760193
:014D920022FE
:1070C4009006BDE0FF7E00EF64024E70219006B191
:1070D400E0FF7E00EF4E70169006BD7403F07B0057
:1070E4007A0079D07D031274809006BDE4F0900399
:1070F40054E0FF7E00EF64014E702090038CE0FFAB
:107104007E00EF4E70157B017A0379787D07127447
:0C71140080900354E4F090038CE4F0221F
:100026007BFF7A787990C003C002C0017B017A0613
:100036007947A801AC02AD03D001D002D0037E00FF
:100046007F0A122A0E7BFF7A78799AC003C002C013
:10005600017B017A067951A801AC02AD03D001D02B
:1000660002D0037E007F04122A0E900659E4F09017
:1000760003A1E0FFEF20E003020BA89003A1E0FF3D
:10008600EF54FEFF9003A1EFF090038EE0FFEF64C4
:1000960054600302011990038FE0FFEF644570730B
:1000A600900390E0FFEF64537069900391E0FFEFD7
:1000B6006454705F900392E0FFEF64297055787284
:1000C600E6FFEF4408FF7872A6077872E6FFEF5462
:1000D600FBFF7872A6077872E6FFEF54FDFF787291
:1000E600A607C2A5C2A6C2A4C291C290C29290039C
:1000F60066E4F0A3E4F090003EE4F0A3E4F090039D
:100106009DE4F07F031267417B017A0679517D04F5
:100116001274807872E6FFEF131313541FFFEF5427
:1001260001FF7E00EF64014E6003020BA890038E70
:10013600E0FFEF122D4A01B94502774608594B08F0
:10014600D750055D520155530B275700000BA89059
:10015600038FE0FFEF64296003020BA87872E6FFC5
:10016600EF1313543FFFEF5401FF7E00EF64014E7F
:100176007002C2A47872E6FFEF54FBFF7872A607FE
:100186007872E6FFEF54FDFF7872A607C2A3D2A2EB
:100196007F031267417B017A0579EB7D01125DE5EC
:1001A6007F001271C17B017A0679517D0412748039
:1001B600020BA890038FE0FFEF644E706C900390E3
:1001C600E0FFEF64447062900391E0FFEF642970F2
:1001D600587872E6FFEF54F7FF7872A6077872E652
:1001E600FFEF54FBFF7872A6077872E6FFEF54FD27
:1001F600FF7872A607C2A5C2A6C2A4C291C290C2C7
:1002060092900366E4F0A3E4F090003EE4F0A3E4E9
:10021600F090039DE4F07F031267417B017A067933
:10022600517D04127480020BA890038FE0FFEF64E7
:10023600486003020BA8900390E0FFEF6429600377
:10024600020BA8900376E4F0A3E4F01273C09000CA
:1002560040122D0D000000007F007E007D007C0016
:10026600126EC67B017A0679517D04127480020BE8
:10027600A890038FE0FFEF644D7061900390E0FF5C
:10028600EF642970577872E6FFEF1313543FFFEFC0
:100296005401FF7E00EF64014E7002C2A47872E63C
:1002A600FFEF54FBFF7872A6077872E6FFEF440271
:1002B600FF7872A607C2A3D2A27F031267417B0111
:1002C6007A0579EB7D01125DE57F011271C17B0133
:1002D6007A0679517D04127480020BA890038FE090
:1002E600FFEF6443705D900390E0FFEF643F70534F
:1002F600900391E0FFEF642970499006477428F057
:100306009006487446F09006497443F09005FCE068
:10031600FFEFC4540FFF12763990064AEFF09005AE
:10032600FCE0FFEF540FFF12763990064BEFF0908A
:10033600064C7429F07B017A0679477D0612748093
:10034600020BA890038FE0FFEF64436003020BA843
:10035600900392E0FFEF64296003020BA87872E62F
:10036600FFEFC313FFEF5401FF7E00EF64014E6001
:1003760003020BA87872E6FFEF54FBFF7872A6071C
:100386009003A5E0FF9003A6E0FD1277EF900659D3
:10039600EFF07F03126741C2A3D2A2900659E0FF95
:1003A6007E00D3EF940AEE648094804003020468D2
:1003B600900659E0FF9005FCEFF07B017A0579FC89
:1003C600751D00751E017FFA7E7F12580990065929
:1003D600E0FF7E96EF8EF0A4FFAEF0E4FCFDEF2486
:1003E600D8FFEE34B0FEED3494FDEC3419FC9006E3
:1003F600B5122CE89006B5E0FCA3E0FDA3E0FEA351
:10040600E0FF7B017A0579EB1250A57B017A05792D
:10041600EB7D01125DE5900659E0FF7E96EF8EF0CA
:10042600A4FFAEF0E4FCFDEF2430FFEE34B0FEEDA9
:10043600346FFDEC3419FC9006B5122CE89006B525
:10044600E0FCA3E0FDA3E0FEA3E0FF7B017A0579D3
:10045600D31250A57B017A0679517D04127480026D
:100466000555900659E0FF7E00C3740A9FEE64802E
:10047600F8E46480984003020555900659E0FF7E33
:1004860000D3EF9414EE64809480400302055590E7
:100496000659E0FF9005FCEFF07B017A0579FC75C3
:1004A6001D00751E017FFA7E7F125809900659E0DD
:1004B60024F6F0900659E0FF7E96EF8EF0A4FFAE8C
:1004C600F0AB07AA06E4F9F8C374D89BFF74B09A98
:1004D600FE749499FD741998FC9006B5122CE89058
:1004E60006B5E0FCA3E0FDA3E0FEA3E0FF7B017AF6
:1004F6000579EB1250A57B017A0579EB7D01125D3A
:10050600E5900659E0FF7E96EF8EF0A4FFAEF0ABC5
:1005160007AA06E4F9F8C374309BFF74B09AFE7418
:100526006F99FD741998FC9006B5122CE89006B5E3
:10053600E0FCA3E0FDA3E0FEA3E0FF7B017A0579E2
:10054600D31250A57B017A0679517D041274807FFF
:10055600011271C1020BA890038FE0FFEF64536094
:10056600030205FA900390E0FFEF6453600302056F
:10057600FA900391E0FFEF64497079900392E0FFEF
:10058600EF6429706F7872E6FFEF1313543FFFEFA5
:100596005401FF7E00EF64014E705990064774289F
:1005A600F09006487452F09006497453F090064A4B
:1005B6007453F090064B7449F090039DE0FFEF549E
:1005C600FFFFEFC4540FFF12763990064CEFF09000
:1005D600039DE0FFEF540FFF12763990064DEFF0C2
:1005E60090064E7429F07B017A0679477D081274CD
:1005F60080020BA890038FE0FFEF6453706D9003A9
:1006060090E0FFEF64297063C2A47872E6FFEF54AE
:10061600FDFF7872A607900366E4F0A3E4F090006D
:100626003EE4F0A3E4F090039DE4F0D2A3C2A27FDF
:1006360003126741900346122D0D196FB0307B01EE
:100646007A0579D37D01125DE51274007F06126783
:10065600417872E6FFEF4404FF7872A6077B017AC1
:100666000679517D04127480020BA890038FE0FF77
:10067600EF644E6003020718900390E0FFEF6429D1
:1006860060030207187F007E007D007C009000401A
:10069600E0F8A3E0F9A3E0FAA3E0FBC3122C8C6018
:1006A60012900376E0FEA3E0FFEF04FF900659EFF9
:1006B600F0800D900376E0FEA3E0FF900659EFF080
:1006C6009006477428F09006487452F090064974D4
:1006D6004EF0900659E0FFEF54FFFFEFC4540FFFB2
:1006E60012763990064AEFF0900659E0FFEF540F64
:1006F600FF12763990064BEFF090064C7429F09075
:100706000659E4F07B017A0679477D061274800269
:100716000BA890038FE0FFEF64476003020BA890DD
:100726000392E0FFEF64296003020BA8900390E0B8
:10073600FFEF64306003020BA8900391E0FFEF64C3
:10074600306003020BA8900655E4F0907FFBE4931B
:10075600FF900656EFF0907FFCE493FF900657EF6C
:10076600F0907FFDE493FF900658EFF07F007E0047
:100776007D007C00900655E0F8A3E0F9A3E0FAA31B
:10078600E0FBC3122C8C601C7FFF7EFF7DFF7C008C
:10079600900655E0F8A3E0F9A3E0FAA3E0FBC31244
:1007A6002C8C700C900040122D0D0000000080145F
:1007B600900655E0FCA3E0FDA3E0FEA3E0FF900059
:1007C60040122CE89006477428F09006487452F0C0
:1007D6009006497447F0900656E0FFEFC4540FFFA9
:1007E60012763990064AEFF0900656E0FFEF540F66
:1007F600FF12763990064BEFF0900657E0FFEFC4F4
:10080600540FFF12763990064CEFF0900657E0FF32
:10081600EF540FFF12763990064DEFF0900658E030
:10082600FFEFC4540FFF12763990064EEFF0900694
:1008360058E0FFEF540FFF12763990064FEFF09015
:1008460006507429F07B017A0679477D0A12748076
:10085600020BA890038FE0FFEF64596003020BA818
:10086600900390E0FFEF64296003020BA89006470F
:100876007428F0900648744BF09006497459F0902D
:10088600064EE4F0A2A1E433FF90064EE0FEEF4EE2
:10089600FF90064EEFF090064EE0FFEF54FFFFEF9D
:1008A600C4540FFF12763990064AEFF090064EE0D8
:1008B600FFEF540FFF12763990064BEFF090064C7F
:1008C6007429F07B017A0679477D06127480020B43
:1008D600A890038FE0FFEF644860030209FF9003CE
:1008E60093E0FFEF642960030209FF900390E0FFA5
:1008F600EFB44222900391E0FFEFB43019900392D7
:10090600E0FFEFB43110D2A57B017A0679517D0460
:10091600127480020BA8900390E0FFEFB44222907D
:100926000391E0FFEFB43019900392E0FFEFB43289
:1009360010D2A67B017A0679517D04127480020BCF
:10094600A8900390E0FFEFB44222900391E0FFEFFE
:10095600B43019900392E0FFEFB43310D2A47B01B8
:100966007A0679517D04127480020BA8900390E0F8
:10097600FFEFB44422900391E0FFEFB430199003E7
:1009860092E0FFEFB43110D2917B017A0679517D66
:1009960004127480020BA8900390E0FFEFB4442287
:1009A600900391E0FFEFB43019900392E0FFEFB4AB
:1009B6003210D2907B017A0679517D04127480023E
:1009C6000BA8900390E0FFEF64446003020BA8902D
:1009D6000391E0FFEF64306003020BA8900392E0FE
:1009E600FFEF64336003020BA8D2927B017A06798B
:1009F600517D04127480020BA890038FE0FFEF6410
:100A06004C6003020BA8900393E0FFEF6429600398
:100A1600020BA8900390E0FFEFB44222900391E00E
:100A2600FFEFB43019900392E0FFEFB43110C2A586
:100A36007B017A0679517D04127480020BA890031B
:100A460090E0FFEFB44222900391E0FFEFB430193B
:100A5600900392E0FFEFB43210C2A67B017A0679CA
:100A6600517D04127480020BA8900390E0FFEFB44E
:100A76004222900391E0FFEFB43019900392E0FF19
:100A8600EFB43310C2A47B017A0679517D04127447
:100A960080020BA8900390E0FFEFB44422900391EC
:100AA600E0FFEFB43019900392E0FFEFB43110C2CB
:100AB600917B017A0679517D04127480020BA8900D
:100AC6000390E0FFEFB44422900391E0FFEFB430CF
:100AD60019900392E0FFEFB43210C2907B017A06C0
:100AE60079517D04127480020BA8900390E0FFEF09
:100AF60064446003020BA8900391E0FFEF6430604A
:100B060003020BA8900392E0FFEF64336003020B2D
:100B1600A8C2927B017A0679517D04127480020B79
:100B2600A890038FE0FFEF64477077900396E0FF8D
:100B3600EF6429706D900655E4F09003A5E0FF90F0
:100B460003A6E0FD1277EF900656EFF09003A7E0BC
:100B5600FF9003A8E0FD1277EF900657EFF09003A1
:100B6600A9E0FF9003AAE0FD1277EF900658EFF098
:100B76007B017A067956751D00751E037FFB7E7F05
:100B8600125809900655E0FCA3E0FDA3E0FEA3E0A1
:100B9600FF900040122CE87B017A0679517D041201
:100BA60074807872E6FFEF1313543FFFEF5401FF92
:0B0BB6007E00EF64014E7003126E4FD2
:010BC1002211
:0F788100000000000000000000000000000000F8
:0B789E0075BF0B7D7C7F031276F52286
:0476F5008F5F8D60B6
:1076F900A2AF9202C2AF75E300855FE48560E275CF
:10770900E50475E78075E64675E6B90075E5007527
:06771900E700A20292AF9E
:01771F002247
:027748008F6848
:10774A00A2AF92038568E375E400C2AF75E50375DD
:10775A00E78075E64675E6B90075E50075E700A2AB
:03776A000392AFD8
:01776D0022F9
:0A5809008E188F198B1A8A1B891C58
:10581300A2AF9204C2AF9005B7E4F0E51854FEFEC0
:105823007F009005B8EEF0A3EFF09005B5E4F0A388
:10583300E4F09005B5E0FEA3E0FFC3EE94025056FA
:105843009005B8E0FF8FE39005B9E0FF8FE475E5BD
:105853000175E78075E64675E6B975E50075E700FD
:105863009005B9E004F070069005B8E004F09005E7
:10587300B5E0FEA3E0FF74B52FF58274033EF58314
:10588300E5E2F012000E9005B6E004F07006900514
:10589300B5E004F0809CE5185401FEAF199005B5FE
:1058A300EEF0A3EFF0E51E451D6041AB1AAA1BA95C
:1058B3001C122A34FF9005B5E0FCA3E0FD74B52D5E
:1058C300F58274033CF583EFF07401251CF51CE4A9
:1058D300351BF51B9005B6E004F070069005B5E0A6
:1058E30004F0E51E151E7002151D80B9E51854FE5F
:1058F300FE7F009005B8EEF0A3EFF09005B8E0FF4F
:105903008FE375E40075E50375E78075E64675E694
:10591300B90075E50075E7009005B5E4F0A3E4F080
:105923009005B5E0FEA3E0FFC3EE94025058900546
:10593300B5E0FEA3E0FF74B52FF58274033EF58353
:10594300E0FF8FE29005B8E0FF8FE39005B9E0FF39
:105953008FE475E50275E78075E64675E6B900756F
:10596300E50075E7009005B9E004F070069005B80E
:10597300E004F012000E9005B6E004F07006900506
:10598300B5E004F0809AE51854FEFE7F009005B858
:10599300EEF0A3EFF09005B5E4F0A3E4F09005B5C5
:1059A300E0FEA3E0FFC3EE940250789005B8E0FF59
:1059B3008FE39005B9E0FF8FE475E50175E7807526
:1059C300E64675E6B975E50075E7009005B9E004AC
:1059D300F070069005B8E004F012000E9005B5E0F3
:1059E300FEA3E0FF74B52FF58274033EF583E0FF59
:1059F300EF65E2601D9005B7E004F09005B7E0FFA6
:105A03007E00C3EF9403EE64809480501B0258EF32
:105A130080169005B6E004F070069005B5E004F03A
:105A23000259A09005B7E4F0A20492AF9005B7E045
:015A3300FF73
:015A3400224F
:06756C008E568F578D586A
:10757200A2AF9205C2AF8558E2E556FF7E00EF54F6
:10758200FFF5E3AF57EF54FFF5E475E50275E780C9
:1075920075E64675E6B90075E50075E700A2059245
:0175A200AF39
:0175A30022C5
:106C36009005BAE4F07BFF7A787981C003C002C080
:106C4600017B017A0579BBA801AC02AD03D001D066
:106C560002D0037E007F03122A0E907FFAE493FF90
:106C66009005BAEFF0907FFBE493FF9005BBEFF041
:106C7600907FFCE493FF9005BCEFF0907FFDE493DA
:106C8600FF9005BDEFF07F7C12774812000E7F7EE5
:106C960012774812000E9005BAE0FD7FFA7E7F1249
:106CA600756C9005BBE0FD7FFB7E7F12756C9005D1
:106CB600BCE0FD7FFC7E7F12756C9005BDE0FD7F1C
:066CC600FD7E7F12756CDB
:016CCC0022A5
:1038D90078B376007BFF7A787984C003C002C0018F
:1038E9007B007A0079BAA801AC02AD03D001D002FD
:1038F900D0037E007F03122A0E907FFBE493FF78AA
:10390900BAA607907FFCE493FF78BBA607907FFDDA
:10391900E493FF78BCA60778BD760078BAE6FF780D
:10392900BEA60778BBE6FF78BFA60778BCE6FF7896
:10393900C0A6077F007E007D007C0078BD122CCFD9
:10394900C3122C8C60137FFF7EFF7DFF7C0078BD46
:10395900122CCFC3122C8C700C900040122D0D002C
:10396900000000800B78BD122CC3900040122CE897
:10397900907FFEE493FF78BAA607907FFFE493FF58
:1039890078BBA60778BAE6FF7E00EF7F00FE78BB1A
:10399900E6FD7C00EF2DFFEE3CFE900376EEF0A3F2
:1039A900EFF0900376E0FEA3E0FFEFB4FF0EEEB474
:1039B900FF0A900376E4F0A3E4F0801A900376E01E
:1039C900FEA3E0FFD3EF94FFEE9400400990037645
:1039D900E4F0A374FFF0900376E0FEA3E0FF78B66D
:1039E900A60608A60778B8760008760078B47600A7
:1039F90008760078B6E6FE08E6FF78B4E6FC08E645
:103A0900FDC3ED9FEC9E4003023B4978B4E6FE08F6
:103A1900E6FF907C0075F003EF122D3EEE75F00382
:103A2900A42583F583E493FF78BAA60778B4E6FE64
:103A390008E6FF907C0175F003EF122D3EEE75F05C
:103A490003A42583F583E493FF78BBA60778B4E63E
:103A5900FE08E6FF907C0275F003EF122D3EEE752D
:103A6900F003A42583F583E493FF78BCA60778BD0A
:103A7900760078BAE6FF78BEA60778BBE6FF78BF7E
:103A8900A60778BCE6FF78C0A6077F007E007D0008
:103A99007C0078BD122CCFC3122C8C60137FFF7E63
:103AA900FF7DFF7C0078BD122CCFC3122C8C700ACD
:103AB90078B706E618700106802078BEE6FF78B868
:103AC900E6FC08E6FD90004475F003ED122D3EEC8E
:103AD90075F003A42583F583EFF078BFE6FF78B886
:103AE900E6FC08E6FD90004575F003ED122D3EEC6D
:103AF90075F003A42583F583EFF078C0E6FF78B865
:103B0900E6FC08E6FD90004675F003ED122D3EEC4B
:103B190075F003A42583F583EFF078B906E61870EC
:103B2900010678B6E6FE08E6FFD3EF9404EE9401A9
:103B3900500E12000E78B506E6187001060239FC1F
:103B4900907FFAE493FF78B3A60778B3E6FF7E0087
:103B5900C3E49FEE6480F8E46480984003023CB8B3
:103B690078B3E6FF7E00D3EF940AEE648094804038
:103B790003023CB878B3E6FF9005FCEFF078B3E6B2
:103B8900FF7E96EF8EF0A4FFAEF0E4FCFDEF247803
:103B9900FFEE3463FEED3465FDEC3419FC90034609
:103BA900122CE8900346E0FCA3E0FDA3E0FEA3E0AD
:103BB900FF7B017A0579DB1250A578B3E6FF7E9683
:103BC900EF8EF0A4FFAEF0E4FCFDEF2430FFEE34FD
:103BD900B0FEED346FFDEC3419FC900346122CE86D
:103BE900900346E0FCA3E0FDA3E0FEA3E0FF7B0118
:103BF9007A0579D31250A578B3E6FF7E96EF8EF059
:103C0900A4FFAEF0E4FCFDEF24D8FFEE34B0FEEDE6
:103C19003494FDEC3419FC900346122CE8900346C9
:103C2900E0FCA3E0FDA3E0FEA3E0FF7B017A0579B8
:103C3900EB1250A578B3E6FF7E96EF8EF0A4FFAEA7
:103C4900F0E4FCFDEF2470FFEE345CFEED3497FDEB
:103C5900EC3419FC900346122CE8900346E0FCA3CF
:103C6900E0FDA3E0FEA3E0FF7B017A0579CB1250CA
:103C7900A578B3E6FF7E96EF8EF0A4FFAEF0E4FCE4
:103C8900FDEF24B0FFEE3469FEED349AFDEC3419F2
:103C9900FC900346122CE8900346E0FCA3E0FDA348
:103CA900E0FEA3E0FF7B017A0579E31250A52278B3
:103CB900B3E6FF7E00C3740A9FEE6480F8E4648073
:103CC900984003023E3C78B3E6FF7E00D3EF94149C
:103CD900EE648094804003023E3C78B3E6FF900591
:103CE900FCEFF078B374F626F678B3E6FF7E96EF2C
:103CF9008EF0A4FFAEF0AB07AA06E4F9F8C3747816
:103D09009BFF74639AFE746599FD741998FC90037E
:103D190046122CE8900346E0FCA3E0FDA3E0FEA3D5
:103D2900E0FF7B017A0579DB1250A578B3E6FF7EC7
:103D390096EF8EF0A4FFAEF0AB07AA06E4F9F8C33C
:103D490074309BFF74B09AFE746F99FD741998FCD6
:103D5900900346122CE8900346E0FCA3E0FDA3E0A3
:103D6900FEA3E0FF7B017A0579D31250A578B3E66B
:103D7900FF7E96EF8EF0A4FFAEF0AB07AA06E4F93A
:103D8900F8C374D89BFF74B09AFE749499FD7419A2
:103D990098FC900346122CE8900346E0FCA3E0FD52
:103DA900A3E0FEA3E0FF7B017A0579EB1250A57829
:103DB900B3E6FF7E96EF8EF0A4FFAEF0AB07AA063E
:103DC900E4F9F8C374709BFF745C9AFE749799FDCB
:103DD900741998FC900346122CE8900346E0FCA362
:103DE900E0FDA3E0FEA3E0FF7B017A0579CB125049
:103DF900A578B3E6FF7E96EF8EF0A4FFAEF0AB0791
:103E0900AA06E4F9F8C374B09BFF74699AFE749A20
:103E190099FD741998FC900346122CE8900346E02A
:103E2900FCA3E0FDA3E0FEA3E0FF7B017A0579E3B3
:033E39001250A57F
:013E3C002263
:105327007BFF7A787987C003C002C0017B007A00CF
:105337007993A801AC02AD03D001D002D0037E005F
:105347007F03122A0E900377E004F070069003762D
:10535700E004F0900376E0FEA3E0FFEEFF7E007826
:1053670093A607900376E0FEA3E0FF7E007894A65D
:10537700077B007A007993751D00751E027FFE7EFC
:105387007F12580990000DE0FCA3E0FDA3E0FEA307
:10539700E0FF7810122C9DEF54FFFFEE5400FEED56
:1053A7005400FDEC5400FC900376E0FCA3E0FD9074
:1053B700004175F003ED122D3EEC75F003A4258333
:1053C700F583EFF090000DE0FCA3E0FDA3E0FEA362
:1053D700E0FF7808122C9DEF54FFFFEE5400FEED1E
:1053E7005400FDEC5400FC900376E0FCA3E0FD9034
:1053F700004275F003ED122D3EEC75F003A42583F2
:10540700F583EFF090000DE0FCA3E0FDA3E0FEA321
:10541700E0FFEF54FFFFEE5400FEED5400FDEC54A7
:1054270000FC900376E0FCA3E0FD90004375F003D9
:10543700ED122D3EEC75F003A42583F583EFF09074
:10544700000DE0FCA3E0FDA3E0FEA3E0FF789C12C3
:105457002CDC789676000876007896E6FE08E6FF5C
:10546700C3EE9401400302552C7896E6FE08E6FF4A
:105477007C007D03122AAE7898A60608A6077898BE
:10548700E6FE08E6FFE42FF582747C3EF583E4939D
:10549700FF7893A607789906E6187001067898E6CC
:1054A700FE08E6FFE42FF582747C3EF583E493FF64
:1054B7007894A607789906E6187001067898E6FEAC
:1054C70008E6FFE42FF582747C3EF583E493FF78CA
:1054D70095A60778A076007893E6FF78A1A60778C7
:1054E70094E6FF78A2A6077895E6FF78A3A6077F3C
:1054F700007E007D007C0078A0122CCFC3122C8C7C
:1055070060237FFF7EFF7DFF7C0078A0122CCFC336
:10551700122C8C7002800E12000E789706E6187017
:105527000106025460789DE6FF7893A607789EE609
:10553700FF7894A607789FE6FF7895A6077898E600
:10554700FE08E6FFEF24FEFFEE34FFFE789AA6067C
:1055570008A607789AE6FE08E6FFEF2400FFEE3478
:105567007CFE7B007A007993751D00751E03125827
:1055770009900376E0FEA3E0FFC3EF94FFEE9400EB
:1055870040111269F490003DE4F0900350E4F0A359
:03559700746EF03F
:01559A0022EE
:1069F400900370E0FFEFC4540FFFEF5401FF7E00DB
:106A0400EF64014E70237D847C037F2C7E01126928
:106A14001D7D847C037F2C7E0112691D7D017C0019
:106A24007F087E0712691D802E900370E0FFEFC47B
:106A340013135403FFEF5401FF7E00EF64014E7003
:106A4400167D847C037F2C7E0112691D7D017C00F0
:106A54007F087E0712691D120006900372E0FFEFA3
:106A64004402FF900372EFF0900370E0FFEF547F55
:106A7400FF900370EFF0900372E0FFEF54FBFF9080
:106A84000372EFF0900370E0FFEF54BFFF900370C8
:106A9400EFF0900370E0FFEF54EFFF900370EFF01E
:106AA400900373E0FFEF54FEFF900373EFF0C2A571
:066AB40090000CE4F0224A
:086EC6008F3E8E3D8D3C8C3B9C
:106ECE007BFF7A78798AC003C002C0017B007A000A
:106EDE0079C9A801AC02AD03D001D002D0037E0067
:106EEE007F03122A0EAF3EAE3DAD3CAC3B78CC12CA
:106EFE002CDCAF3EAE3DAD3CAC3B900040122CE8DE
:106F0E0078CDE6FF78C9A60778CEE6FF78CAA60741
:106F1E0078CFE6FF78CBA6077B007A0079C9751D7E
:0B6F2E0000751E037FFB7E7F125809D8
:016F39002235
:08559B008F428E418D408C3FD0
:1055A30078AA76000876007BFF7A78798DC003C0ED
:1055B30002C0017B007A0079ACA801AC02AD03D034
:1055C30001D002D0037E007F03122A0E900376E0FF
:1055D300FEA3E0FF78AAA60608A60778A47600082B
:1055E3007600900376E0FEA3E0FF78A4E6FC08E6ED
:1055F300FDC3ED9FEC9E400302575478A4E6FE08DA
:10560300E6FF126F3AAB42AA41A940A83FC3122C4E
:105613008C60030257467FFE7EFF7DFF7C00AB421A
:10562300AA41A940A83FC3122C8C70030257467F9E
:10563300007E007D007C00AB42AA41A940A83FC385
:10564300122C8C700302574678A4E6FE08E6FF7816
:10565300A6A60608A607900376E0FEA3E0FF78A6B9
:10566300E6FC08E6FDC3ED9FEC9E40030257287855
:10567300A6E6FE08E6FF90004775F003EF122D3E05
:10568300EE75F003A42583F583E0FF78A6E6FC0816
:10569300E6FD90004475F003ED122D3EEC75F0032A
:1056A300A42583F583EFF078A6E6FE08E6FF9000D5
:1056B3004875F003EF122D3EEE75F003A42583F534
:1056C30083E0FF78A6E6FC08E6FD90004575F0034D
:1056D300ED122D3EEC75F003A42583F583EFF078EE
:1056E300A6E6FE08E6FF90004975F003EF122D3E93
:1056F300EE75F003A42583F583E0FF78A6E6FC08A6
:10570300E6FD90004675F003ED122D3EEC75F003B7
:10571300A42583F583EFF012000E78A706E6187030
:105723000106025659900377E024FFF0900376E0D8
:1057330034FFF0900376E0FEA3E0FFEF4E70041217
:1057430073C02212000E78A506E6187001060255F2
:10575300E5900376E0FEA3E0FFEEFF7E0078ACA6C3
:1057630007900376E0FEA3E0FF7E0078ADA6077BFB
:10577300007A0079AC751D00751E027FFE7E7F12D4
:10578300580978A4760008760078AAE6FE08E6FFB2
:1057930078A4E6FC08E6FDC3ED9FEC9E506778A471
:1057A300E6FE08E6FF126F3A78AF122CDC78B0E61B
:1057B300FF78ACA60778B1E6FF78ADA60778B2E626
:1057C300FF78AEA60778A4E6FE08E6FF7C007D031B
:1057D300122AAE78A8A60608A60778A8E6FE08E669
:1057E300FFEF2400FFEE347CFE7B007A0079AC757A
:1057F3001D00751E0312580912000E78A506E6183F
:05580300700106808425
:01580800227D
:1073C000900376E4F0A3E4F078D5760008760078B0
:1073D000D5E6FE08E6FFC3EE9403502078D5E6FE1E
:1073E00008E6FF74442FF58274003EF583E4F01242
:0F73F000000E78D606E61870010680D3126C36B0
:0173FF00226B
:101E3C00900372E0FFEF20E7030225E0900372E0CD
:101E4C00FFEF547FFF900372EFF0900387E0FEA347
:101E5C00E0FFEF4E6010900388E024FFF0900387C2
:101E6C00E034FFF080059006BCE4F090038CE0FFBA
:101E7C00EF600690038CE014F0900017E0FEA3E0F6
:101E8C00FFEF4E600E900018E024FFF0900017E07A
:101E9C0034FFF0900356E0FFEF6006900356E01419
:101EAC00F090001CE0FEA3E0FFEF4E600E90001DD2
:101EBC00E024FFF090001CE034FFF0900011E0FEF5
:101ECC00A3E0FFEF4E600E900012E024FFF09000B4
:101EDC0011E034FFF090036CE0FEA3E0FFEF4E60E6
:101EEC000E90036DE024FFF090036CE034FFF09053
:101EFC0003B2E0FFEF60069003B2E014F0900385AC
:101F0C00E0FEA3E0FFEF4E600E900386E024FFF0AE
:101F1C00900385E034FFF0900015E0FEA3E0FFEFA6
:101F2C004E600E900016E024FFF0900015E034FF98
:101F3C00F0900019E0FEA3E0FFEF4E600E90001A47
:101F4C00E024FFF0900019E034FFF0900350E0FE25
:101F5C00A3E0FFEF4E600E900351E024FFF09003DE
:101F6C0050E034FFF0900008E0FEA3E0FFEF4E607D
:101F7C0010900009E024FFF0900008E034FFF0809E
:101F8C004E900370E0FFEFC4540FFFEF5401FF7E3F
:101F9C0000EF64014E6038900370E0FFEFC4131340
:101FAC005403FFEF5401FF7E00EF64014E6020905C
:101FBC000373E0FFEF5401FF7E00EF64014E7002EB
:101FCC00800D90034CE4F0A3E4F090000CE4F030AE
:101FDC00A103022109900373E0FFEF5401FF7E007F
:101FEC00EF64014E600E90034DE004F07006900318
:101FFC004CE004F09000087401F0A3745EF09000C3
:10200C000CE0FF7E00C3EF9402EE64809480407B72
:10201C00900370E0FFEFC4540FFFEF5401FF7E00FC
:10202C00EF4E7067900370E0FFEFC413135403FF7F
:10203C00EF5401FF7E00EF4E7051900376E0FEA34B
:10204C00E0FFC3EF94FFEE94005040900370E0FF6C
:10205C00EF4440FF900370EFF07D847C037F087E9B
:10206C000712691D7D017C007F2C7E0112691D9079
:10207C00000CE004F090036E7415F0A37404F0905F
:10208C0000157401F0A374F4F08072900370E0FFFB
:10209C00EFC4540FFFEF5401FF7E00EF64014E704C
:1020AC001290000CE0FF7E00C3EF9401EE6480946C
:1020BC0080503B900373E0FFEF5401FF7E00EF6410
:1020CC00014E602A900370E0FFEFC413135403FF1A
:1020DC00EF5401FF7E00EF64014E702190000CE084
:1020EC00FF7E00C3EF9403EE64809480400F900059
:1020FC0015E0FEA3E0FFEF4E70031269F430A15916
:10210C0090034CE0FEA3E0FFD3EF9403EE94004069
:10211C001890000CE0FF7E00C3EF940AEE648094EC
:10212C0080500690000CE004F0900372E0FFEFC3C7
:10213C0013FFEF5401FF7E00EF64014E7013900308
:10214C0072E0FFEF54FDFF900372EFF090000CE48F
:10215C00F090034CE4F0A3E4F090034CE0FEA3E019
:10216C00FFC3EF94C2EE9401405A900373E0FFEF6B
:10217C004401FF900373EFF0900370E0FFEF54EF16
:10218C00FF900370EFF090034CE4F0A3E4F0120026
:10219C0006900373E0FFEF54FDFF900373EFF09094
:1021AC000028E4F0A37482F090036E7415F0A3740D
:1021BC0004F090000CE4F09000157401F0A374F49A
:1021CC00F002225B90034CE0FEA3E0FFC3EF94FA15
:1021DC00EE9400407A900370E0FFEFC4540FFFEFD1
:1021EC005401FF7E00EF4E7066900373E0FFEF54D6
:1021FC0001FF7E00EF4E7057900370E0FFEF44102C
:10220C00FF900370EFF0900370E0FFEF4420FF901D
:10221C000370EFF07D847C037F087E0712691D7DBF
:10222C00847C037F2C7E0112691D7D017C007F2C38
:10223C007E0112691D90000CE004F090036E741581
:10224C00F0A37404F09000157401F0A374F4F090F2
:10225C000373E0FFEF5401FF7E00EF64014E706BDF
:10226C00900028E0FEA3E0FFEF4E705F900373E058
:10227C00FFEFC313FFEF5401FF7E00EF4E701D9074
:10228C000373E0FFEF4402FF900373EFF09000281C
:10229C007401F0A37486F0120006802F900373E093
:1022AC00FFEFC313FFEF5401FF7E00EF64014E708C
:1022BC001A900373E0FFEF54FDFF900373EFF0905F
:1022CC000028E4F0A37482F01278D5900370E0FF3C
:1022DC00EFC4540FFFEF5401FF7E00EF64014E601A
:1022EC002C900370E0FFEFC413135403FFEF540161
:1022FC00FF7E00EF64014E6014900373E0FFEF5417
:10230C0001FF7E00EF64014E60030225E090036242
:10231C00E004F07006900361E004F0900361E0FECD
:10232C00A3E0FFC3EF942EEE9400401F900361E4F2
:10233C00F0A3E4F0900385E0FEA3E0FFD3EF94005C
:10234C00EE94004004D2A58002B2A5900370E0FF89
:10235C00EFC41313135401FFEF5401FF7E00EF641D
:10236C00014E60030225C2900372E0FFEF13135479
:10237C003FFFEF5401FF7E00EF4E60030225C27F4A
:10238C00FE7EFF7DFF7C0090000DE0F8A3E0F9A33A
:10239C00E0FAA3E0FBC3122C8C7024900370E0FFD6
:1023AC00EFC4540FFFEF5401FF7E00EF64014E7039
:1023BC000E900372E0FFEF4404FF900372EFF09075
:1023CC000370E0FFEF547FFF900370EFF090037306
:1023DC00E0FFEF5401FF7E00EF64014E6003022426
:1023EC0076900373E0FFEF54FEFF900373EFF090D1
:1023FC000373E0FFEF54FDFF900373EFF090037055
:10240C00E0FFEF54BFFF900370EFF0900370E0FF1C
:10241C00EF54EFFF900370EFF012772090000DE077
:10242C00FCA3E0FDA3E0FEA3E0FF126EC6900370D8
:10243C00E0FFEF131313541FFFEF5401FF7E00EF67
:10244C0064014E701F900370E0FFEF54F7FF900390
:10245C0070EFF0900040E0FCA3E0FDA3E0FEA3E0F1
:10246C00FF12559B1269F40225C2900370E0FFEF36
:10247C00131313541FFFEF5401FF7E00EF64014E42
:10248C007011900370E0FFEF54F7FF900370EFF0C2
:10249C000225C212772090036E7415F0A37404F019
:1024AC00900370E0FFEFC413135403FFEF5401FFCC
:1024BC007E00EF64014E70527FFE7EFF7DFF7C003C
:1024CC0090000DE0F8A3E0F9A3E0FAA3E0FBC3123F
:1024DC002C8C60367F007E007D007C00900040E0FC
:1024EC00F8A3E0F9A3E0FAA3E0FBC3122C8C701460
:1024FC0090000DE0FCA3E0FDA3E0FEA3E0FF126E54
:10250C00C60225C21253270225C2900370E0FFEFCA
:10251C00C4540FFFEF5401FF7E00EF64014E6003C3
:10252C000225C2900370E0FFEFC4135407FFEF5471
:10253C0001FF7E00EF64014E705D900370E0FFEFD1
:10254C0054DFFF900370EFF0900376E4F0A3E4F017
:10255C001273C0900040122D0D000000007F007E11
:10256C00007D007C00126EC67FFE7EFF7DFF7C002E
:10257C0090000DE0F8A3E0F9A3E0FAA3E0FBC3128E
:10258C002C8C603290000DE0FCA3E0FDA3E0FEA3D8
:10259C00E0FF126EC6801F7FFE7EFF7DFF7C0090E9
:1025AC00000DE0F8A3E0F9A3E0FAA3E0FBC3122CC2
:1025BC008C600312532790036EE0FEA3E0FFEF4EF6
:1025CC00600F90036FE024FFF090036EE034FFF097
:0525DC00221269F42247
:10776E00438540438590E58554FCFFEF4401F58544
:10777E007584005385F75385DF5385FB53A2DFD203
:02778E00942243
:1077B0008F69E58420E5FB856986E5845480FF7E3A
:1077C00000EF4E60F5438480E58420E4FBAF862221
:107608008F618D627F01127843C2947F01127843A3
:10761800E56125E0FFEF4401F561AF611277B0AF96
:10762800621277B07F01127843D2947F01127843B7
:01763800222F
:0274F9008F6A98
:1074FB009006E4E4F07F01127843C2947F01127886
:10750B0043E56A25E0F56AAF6A1277B07FFF127721
:10751B00B09006E4EFF07F01127843D2947F011212
:07752B0078439006E4E0FF45
:017532002236
:086DD8008F288B298A2A892BE0
:106DE0009006E5E4F07F01127843C2947F011278A7
:106DF00043E52825E0FFEF4401F528AF281277B0DE
:106E0000AB29AA2AA92B122A34FF1277B09006E5E3
:106E10007401F09006E5E0FFEFC3952C50247F024B
:106E2000127843AB29AA2AA92B9006E5E0FF8F82AE
:106E3000758300122A4DFF1277B09006E5E004F04A
:0E6E400080D17F01127843D2947F01127843F3
:016E4E002221
:087001008F2D8B2E8A2F8930A0
:107009009006E6E4F07F01127843C2947F0112787A
:1070190043E52D25E0F52DAF2D1277B09006E6E476
:10702900F09006E6E0FFEFC3953150217FFF12771C
:10703900B0AB2EAA2FA9309006E6E0FE8E827583AA
:1070490000EF122A8C9006E6E004F080D47F01124A
:097059007843D2947F01127843C0
:01706200220B
:1033C100017100017200410352034103A100410355
:1033D1007000410372004103600041037300410327
:1033E10074001C7795555555555556559555565557
:1033F100955555559555555595555555955555557C
:10340100420366000042003E000041039D0042036A
:103411004A0000410027005003A200000000000004
:103421000000000000000000000050038D000000BB
:103431000000000000000000000000000041000A40
:1034410000420389000001760042034E000042035E
:10345100B300000274000042034400004200110066
:103461000042036C00006300004400000000000003
:10347100000000000000000000000000000000004B
:10348100000000000000000000000000000000003B
:10349100000000000000000000000000000000002B
:1034A100000000000000000000000000000000001B
:1037610000000000000000000000440040000000D4
:103771000042037600004403680000000041003D60
:10378100004103750044000D0000000042000800E4
:103791000041000C0042034C000042036E00004255
:1037A1000361000042002800004103B2004203858A
:1037B10000004200150000420019000042035000C1
:1037C10000420387000042037F00004203640000BF
:1037D1004403810000000041038B00440346196546
:1037E1006378017301410363004200130000420347
:1037F1009F00004103550041002A0042001C0000C7
:103801004103710041001B00C10641038C004703C5
:1038110078020711980952464103560042001700E9
:10382100004103530041000B0041035400480000D4
:0C383100000000000000000041039E00A9
:102D7000900370E0FFEF20E00302332D900370E03A
:102D8000FFEF54FEFF900370EFF09005FDE0FF7E33
:102D900000EF64014E70077F001246D98012900543
:102DA000FDE0FF7E00EF64024E70057F021246D9FF
:102DB000900370E0FFEFC313FFEF5401FF7E00EFBD
:102DC00064014E600302332D9005FDE0FF90064242
:102DD000EFF0125A35900370E0FFEFC4540FFFEF8D
:102DE0005401FF7E00EF64014E602C900370E0FF01
:102DF000EFC413135403FFEF5401FF7E00EF64018F
:102E00004E6014900373E0FFEF5401FF7E00EF6407
:102E1000014E6003022EF4900370E0FFEFC4131321
:102E2000135401FFEF5401FF7E00EF4E60030233A5
:102E30002D900375E0FF7E00EF64404E7003023377
:102E40002D7F007E007D007C00900368E0F8A3E009
:102E5000F9A3E0FAA3E0FBC3122C8C700302332D1C
:102E6000900642E0FF7E00EF64014E600302332DC6
:102E7000900370E0FFEFC4540FFFEF5401FF7E009A
:102E8000EF64014E604B900370E0FFEFC4131354E6
:102E900003FFEF5401FF7E00EF64014E60149003C6
:102EA00073E0FFEF5401FF7E00EF64014E60030208
:102EB000332D7FFE7EFF7DFF7C00900368E0F8A34A
:102EC000E0F9A3E0FAA3E0FBC3122C8C70030233F9
:102ED0002D900370E0FFEF4480FF900370EFF090BF
:102EE0000368E0FCA3E0FDA3E0FEA3E0FF90000D7B
:102EF000122CE822900370E0FFEF131313541FFF0E
:102F0000EF5401FF7E00EF64014E601F7FFE7EFFE5
:102F10007DFF7C00900368E0F8A3E0F9A3E0FAA34A
:102F2000E0FBC3122C8C600302332D900370E0FF92
:102F3000EF54F7FF900370EFF0900642E0FF7E0041
:102F4000EF64014E600302320C7FFE7EFF7DFF7C4A
:102F500000900368E0F8A3E0F9A3E0FAA3E0FBC364
:102F6000122C8C700A900375E0FF90003DEFF090FA
:102F7000062AE0FCA3E0FDA3E0FEA3E0FFEF54FF80
:102F8000FFEE54FFFEED5400FDEC5400FC7B567A3E
:102F90005579007800C3122C8C60030230EAD20607
:102FA0007F011246D9900370E0FFEFC313FFEF5487
:102FB00001FF7E00EF64014E600302332D125A358B
:102FC000900375E0FF7E00EF64FF4E705690037033
:102FD000E0FFEF131313541FFFEF5401FF7E00EFC8
:102FE00064014E700F900370E0FFEF54F7FF900301
:102FF00070EFF022900376E0FEA3E0FFC3EF94FFB2
:10300000EE9400400302332D127720900368E0FC19
:10301000A3E0FDA3E0FEA3E0FF90000D122CE81258
:1030200053272290003DE0FF7E00EF4E6003023305
:103030002D900370E0FFEF131313541FFFEF5401A3
:10304000FF7E00EF64014E600302332D900370E0B9
:10305000FFEF54F7FF900370EFF0127720900368B2
:10306000E0FCA3E0FDA3E0FEA3E0FF900040E0F859
:10307000A3E0F9A3E0FAA3E0FBC3122C8C705990F3
:103080000040122D0D000000007F007E007D007CBE
:1030900000126EC67F00126F3A7B007A00790078CA
:1030A00000C3122C8C700302332D7F00126F3A90F4
:1030B0000040122CE8900040E0FCA3E0FDA3E0FEFD
:1030C000A3E0FF126EC6900040E0FCA3E0FDA3E089
:1030D000FEA3E0FF12559B22900368E0FCA3E0FDF5
:1030E000A3E0FEA3E0FF12559B22C20690003DE044
:1030F000FF7E00EF64404E7059900019E0FEA3E09F
:10310000FFEF4E704D9003A1E0FFEF4420FF9003CE
:10311000A1EFF09000117403F0A3747AF09003A172
:10312000E0FFEFC41313135401FFEF5401FF7E00BF
:10313000EF4E60030231F39003A1E0FFEF4480FF04
:103140009003A1EFF090034E740BF0A374B8F0025B
:1031500031F390003DE0FF7E00EF64404E700302CB
:1031600031F39003A1E0FFEF54FDFF9003A1EFF0D6
:1031700090036CE4F0A3E4F09003A1E0FFEF54EFC0
:10318000FF9003A1EFF09003A1E0FFEFC4135407F9
:10319000FFEF5401FF7E00EF64014E700A900019AA
:1031A000746AF0A37440F090003DE0FFEF5414FF08
:1031B0007E00EF64144E701890034EE0FEA3E0FF13
:1031C000EF4E702F90034E740EF0A374BAF080236C
:1031D0009006BCE0FF7E00EF64014E700C90034E41
:1031E0007402F0A37458F0800A90034E7403F0A3A5
:1031F00074E8F09003B37402F0A37458F09003A144
:10320000E0FFEF4440FF9003A1EFF022900642E080
:10321000FF7E00EF64024E600302332D90003DE418
:10322000F0900034E0FFEFC4135407FFEF5407FFA2
:10323000900363EFF0900034E0FFEF541FFF7E0037
:10324000EF64014E700A900035E0FF90003DEFF012
:1032500090003DE0FFEF54A0FF7E00EF64204E6041
:103260001190003DE0FFEF54C0FF7E00EF64404E40
:10327000700D90034E7401F0A374F4F002330890C3
:10328000003DE0FFEF54DFFF7E00D3EF9480EE645B
:10329000809480406990003DE0FFEF5420FF7E0065
:1032A000EF4E705A90034E7403F0A374E8F0900050
:1032B0003DE0FFEF54DFFF7E00C3EF94C0EE64807B
:1032C0009480501D90003DE0FFEF541FFF7E00EF03
:1032D0002404FFEE3400FE900013EEF0A3EFF08024
:1032E0002790003DE0FFEF541FFF7E00EF2404FF16
:1032F000EE3400FE90039FEEF0A3EFF0800A9003FF
:103300004E7403F0A374E8F0900373E0FFEF4440C1
:10331000FF900373EFF09003B3E4F0A37464F090B4
:0E33200003A1E0FFEF4440FF9003A1EFF02275
:0246D9008F6BE5
:1046DB00AF6B7E00EF4E600AAF6B7E00EF64014E56
:1046EB0070089006D47403F08010AF6B7E00EF64FB
:1046FB00024E70069006D47407F09006D2E4F09048
:10470B0006D4E0FF9006D2E0FEEEC39F40030248C2
:10471B0041AF6B7E00EF4E600AAF6B7E00EF640221
:10472B004E70269006D2E0FFEF25E025E02426F51B
:10473B0082E43406F583E0FCA3E0FDA3E0FEA3E0F6
:10474B00FF9006BE122CE880249006D2E0FFEF25E6
:10475B00E025E02432F582E43406F583E0FCA3E0A7
:10476B00FDA3E0FEA3E0FF9006BE122CE89006C26C
:10477B00E4F0A3E4F09006BEE0FCA3E0FDA3E0FEB2
:10478B00A3E0FF7801122C9D9006BE122CE8900638
:10479B00D3E4F09006D3E0FF7E00C3EF9410EE64F9
:1047AB00809480506A9006C2E0FEA3E0FFEF25E004
:1047BB00FFEE33FE9006C2EEF0A3EFF09006BEE0E4
:1047CB00FCA3E0FDA3E0FEA3E0FFEF5401FFEE54DA
:1047DB0000FEED5400FDEC5400FCEC4D4E4F600E12
:1047EB009006C3E004F070069006C2E004F0900659
:1047FB00BEE0FCA3E0FDA3E0FEA3E0FF7802122CD9
:10480B009D9006BE122CE89006D3E004F0808490B5
:10481B0006C2E0FEA3E0FF9006D2E0FDED25E0240A
:10482B00C4F582E43406F583EEF0A3EFF09006D2E4
:10483B00E004F002470AAF6B7E00EF4E600DAF6BEA
:10484B007E00EF64014E60030249179006C6E0FE3E
:10485B00A3E0FF9006C4E0FCA3E0FDED2FFFEC3ED0
:10486B00FE9006C8E0FCA3E0FDEF6D7002EE6C60FD
:10487B0003024908900370E0FFEF4402FF900370BE
:10488B00EFF09006C6E0FEA3E0FF7E00E4FCFD7BAC
:10489B00007A0079017800122B61A804A905AA06F9
:1048AB00AB079006C4E0FEA3E0FFE4FCFDEB2FFF9B
:1048BB00EA3EFEE93DFDE83CFC900368122CE87FE4
:1048CB00007E007D007C00900368E0F8A3E0F9A374
:1048DB00E0FAA3E0FBC3122C8C700E900370E0FF88
:1048EB00EF54FDFF900370EFF09006C6E0FEA3E0DF
:1048FB00FF7F00EEFF7E00900375EFF022900370B8
:10490B00E0FFEF54FDFF900370EFF022AF6B7E00E2
:10491B00EF64024E6003024A679006C6E0FEA3E016
:10492B00FF9006C4E0FCA3E0FDED2FFFEC3EFE90F4
:10493B0006C8E0FCA3E0FDEF2DFFEE3CFE9006CA9F
:10494B00E0FCA3E0FDEF2DFFEE3CFE9006CCE0FC7F
:10495B00A3E0FDEF2DFFEE3CFE9006CEE0FCA3E0C6
:10496B00FDEF2DFFEE3CFE9006D0E0FCA3E0FDEF4B
:10497B006D7002EE6C6003024A59900370E0FFEF1A
:10498B004402FF900370EFF09006C6E0FEA3E0FF39
:10499B007E00E4FCFD7B007A0079017800122B612C
:1049AB00A804A905AA06AB079006C4E0FEA3E0FF86
:1049BB00E4FCFDEB2FFFEA3EFEE93DFDE83CFC90FD
:1049CB000368122CE87F007E007D007C009003685A
:1049DB00E0F8A3E0F9A3E0FAA3E0FBC3122C8C7080
:1049EB000E900370E0FFEF54FDFF900370EFF0901B
:1049FB0006C6E0FEA3E0FF7F00EEFF7E00900357AC
:104A0B00EFF09006D2E4F09006D2E0FF7E00C3EF09
:104A1B009404EE6480948050439006D2E0FFEF251F
:104A2B00E024C8F582E43406F583E0FEA3E0FF90B2
:104A3B0006D2E0FDED25E02458F582E43403F5833E
:104A4B00EEF0A3EFF09006D2E004F080BA229003D0
:0C4A5B0070E0FFEF54FDFF900370EFF0DF
:014A6700222C
:105A35009006BCE0FF7E00EF64014E701890037085
:105A4500E0FFEF4408FF900370EFF0900375E0FF6F
:105A550090003DEFF0900642E0FF7E00EF64014EBE
:105A65006003025BC49006D5E4F0A3E4F09006D58C
:105A7500E0FEA3E0FF126F3A900368E0F8A3E0F9B7
:105A8500A3E0FAA3E0FBC3122C8C706B900376E0C5
:105A9500FEA3E0FF9006D5EEF0A3EFF0900370E0D3
:105AA500FFEF4408FF900370EFF0900642E0FF7EA1
:105AB50000EF64014E700C900375E0FF90003DEF20
:105AC500F0807E900642E0FF7E00EF64024E70712A
:105AD5007B017A037957C003C002C0017B017A00BC
:105AE5007934A801AC02AD03D001D002D0037E0009
:105AF5007F09122A0E804A900040E0FCA3E0FDA336
:105B0500E0FEA3E0FF900368E0F8A3E0F9A3E0FA64
:105B1500A3E0FBC3122C8C7028900376E0FEA3E073
:105B2500FF9006D5EEF0A3EFF0900370E0FFEF4491
:105B350008FF900370EFF0900375E0FF90003DEFD4
:105B4500F0900370E0FFEFC4540FFFEF5401FF7EA8
:105B550000EF64014E703F900370E0FFEFC41354F3
:105B650007FFEF5401FF7E00EF64014E702890039C
:105B750076E0FEA3E0FF9006D5EEF0A3EFF09003EC
:105B850070E0FFEF54F7FF900370EFF0900375E0BE
:105B9500FF90003DEFF09006D6E004F07006900609
:105BA500D5E004F0900376E0FEA3E0FF9006D5E093
:105BB500FCA3E0FDC3ED9FEC9E5003025A722290B8
:105BC5000642E0FF7E00EF64024E7055900040E013
:105BD500FCA3E0FDA3E0FEA3E0FF900368E0F8A3CB
:105BE500E0F9A3E0FAA3E0FBC3122C8C7033900319
:105BF50070E0FFEF4408FF900370EFF07B017A033C
:105C05007957C003C002C0017B017A007934A8012D
:105C1500AC02AD03D001D002D0037E007F09122A69
:015C25000E70
:015C2600225B
:08691D008E438F448C458D462A
:1069250078D7760008760078D7E6FE08E6FFC3EF4D
:106935009544EE95435051900372E0FFEF13131306
:10694500541FFFEF5401FF7E00EF4E701F9003723E
:10695500E0FFEF4408FF900372EFF0900372E0FF51
:10696500EF54EFFF900372EFF01278D57F50127855
:10697500437F501278437F5012784312000E78D827
:1069850006E618700106809F78D7760008760078AD
:10699500D7E6FE08E6FFC3EF9546EE9545504F90C6
:1069A5000372E0FFEFC4540FFFEF5401FF7E00EFC9
:1069B5004E701F900372E0FFEF4410FF900372EFDB
:1069C500F0900372E0FFEF54F7FF900372EFF012BF
:1069D50000067F501278437F501278437F5012781B
:0E69E5004312000E78D806E61870010680A155
:0169F3002281
:10772000D2A57D007C007FFC7E0812691D9003724B
:10773000E0FFEF54F7FF900372EFF01200069003A2
:0877400085E4F0A374B9F02206
:1072AC00900372E0FFEF5401FF7E00EF4E703A90B6
:1072BC000372E0FFEF4401FF900372EFF078D97690
:1072CC000008760078D9E6FE08E6FFC3EF9403EEDB
:1072DC00940050157D1A7C047F1A7E0412691D7867
:0972EC00DA06E61870010680DBE9
:0172F5002276
:107171009006BAE0FF7E00EF64014E700C7D017C49
:10718100007F2C7E0112691D229006BAE0FF7E006D
:10719100EF64024E70177D847C037F2C7E0112699F
:1071A1001D7D017C007F2C7E0112691D229006BA93
:1071B100E0FF7E00EF64034E70059006BAE4F02212
:100BC20090003DE0FFEF54FFFF9006D7EFF0900357
:100BD2004EE0FEA3E0FFEF4E70030213C89006BC86
:100BE200E0FF7E00EF64014E60109006BCE0FF7EE5
:100BF20000EF64024E6003020C8490065FE0FF7E09
:100C020000EF4E600302167A9006BCE0FF7E00EF12
:100C120064014E600302167A9006D7E0FFEF122DB0
:100C22004A0C64020C4A040C30080000167AD2A561
:100C320078D276A17B007A0079D07D0312748090FD
:100C4200065F7401F002167AD2A578D276A27B00F2
:100C52007A0079D07D0312748090065F7401F002ED
:100C6200167AD2A578D276A47B007A0079D07D0359
:100C720012748090065F7401F002167A02167A02EC
:100C8200167A9006D7E0FFEF122D4A0DEA010E5BAD
:100C9200021042030E8F040F6A060EC308100F09DA
:100CA2000FDD0A0EF70C0CB2140D04400000107395
:100CB200D2A5900344E4F0A374FAF0900372E0FF2B
:100CC200EFC4135407FFEF13929190034EE0FEA37B
:100CD200E0FFC3EF94DEEE940D4003021073900325
:100CE20072E0FFEFC4135407FFEF13929290037266
:100CF200E0FFEFC4135407FFEF1392901272AC029D
:100D020010739003A1E0FFEFC313FFEF5401FF7EC6
:100D120000EF4E6003021073900019E0FEA3E0FFA3
:100D2200EF4E6003021073900642E0FF7E00EF6414
:100D3200014E6003021073D2A5900344E4F0A3E4D1
:100D4200F0900372E0FFEFC413135403FFEF13920A
:100D52009090034EE0FEA3E0FFD3EF94D0EE940711
:100D62004022900372E0FFEFC4135407FFEF139287
:100D720091900372E0FFEFC413135403FFEF139239
:100D82009202107390034EE0FEA3E0FFD3EF94E8CB
:100D9200EE94034023900372E0FFEFC41313540355
:100DA200FFEF139291900372E0FFEFC41313540309
:100DB200FFEF1392920210739003A1E0FFEF441031
:100DC200FF9003A1EFF0900372E0FFEFC4131354FE
:100DD20003FFEF139291900372E0FFEFC4135407E5
:100DE200FFEF139292021073D2A59005C9E0FF7E25
:100DF20000EF4E7031900372E0FFEFC413135403FF
:100E0200FFEF139291900372E0FFEFC4135407FFB8
:100E1200EF139292900372E0FFEFC4135407FFEFB7
:100E2200139290021073900372E0FFEFC4131354F5
:100E320003FFEF139291900372E0FFEFC413135478
:100E420003FFEF139292900372E0FFEFC413135467
:100E520003FFEF139290021073D2A5900372E0FF8A
:100E6200EFC413135403FFEF139292900372E0FF47
:100E7200EFC413135403FFEF139291900372E0FF38
:100E8200EFC4135407FFEF139290021073D2A59090
:100E92000372E0FFEFC413135403FFEF1392929017
:100EA2000372E0FFEFC413135403FFEF1392909009
:100EB2000372E0FFEFC4135407FFEF139291021085
:100EC20073D2A5900372E0FFEFC413135403FFEF34
:100ED200139291900372E0FFEFC413135403FFEFD8
:100EE200139290900372E0FFEFC4135407FFEF13C5
:100EF2009292021073D2A5900344E4F0A374FAF024
:100F0200900372E0FFEFC413135403FFEF139290A8
:100F1200900372E0FFEFC4135407FFEF1392919016
:100F220003A1E0FFEF1313543FFFEF5401FF7E00D4
:100F3200EF4E70149003A1E0FFEF4404FF9003A171
:100F4200EFF09003B27419F09003B2E0FF7E00EF6D
:100F52004E6003021073900372E0FFEFC413540754
:100F6200FFEF139292021073D2A5900344E4F0A310
:100F720074FAF0900372E0FFEFC413135403FFEF0F
:100F8200139292900372E0FFEFC4135407FFEF1322
:100F920092919003A1E0FFEF1313543FFFEF54012E
:100FA200FF7E00EF4E70149003A1E0FFEF4404FFB8
:100FB2009003A1EFF09003B27419F09003B2E0FF36
:100FC2007E00EF4E6003021073900372E0FFEFC4E5
:100FD200135407FFEF139290021073D2A59003727D
:100FE200E0FFEFC413135403FFEF139291900372C7
:100FF200E0FFEFC4135407FFEF139292900372E0E5
:10100200FFEFC4135407FFEF1392908064D2A590B0
:101012000372E0FFEFC413135403FFEF1392919096
:101022000372E0FFEFC413135403FFEF1392909087
:101032000372E0FFEFC4135407FFEF139292803163
:10104200D2A5900372E0FFEFC413135403FFEF1312
:101052009291900372E0FFEFC413135403FFEF1356
:101062009292900372E0FFEFC4135407FFEF1392C2
:1010720090900642E0FF7E00EF64024E600302128F
:101082000590003DE0FFEF54DFFF7E00D3EF948038
:10109200EE64809480500302119890003DE0FFEFCF
:1010A2005420FF7E00EF4E600302119890003DE055
:1010B200FFEF54DFFF7E00C3EF94C0EE64809480A4
:1010C200506B9003557401F090002AE4F0D2A59081
:1010D2000372E0FFEFC413135403FFEF13929190D6
:1010E2000372E0FFEFC413135403FFEF13929090C7
:1010F2000372E0FFEFC4135407FFEF1392929000C4
:1011020013E0FEA3E0FFEF2401FFEE3400FE7C03B8
:101112007DE8122AAE7C007D6B122AC07C007D64C1
:10112200122AAE900344EEF0A3EFF08069900355CB
:10113200E4F090002A7401F0D2A5900372E0FFEF70
:10114200C413135403FFEF139291900372E0FFEF65
:10115200C4135407FFEF139290900372E0FFEFC4A1
:1011620013135403FFEF13929290039FE0FEA3E048
:10117200FFEF2401FFEE3400FE7C037DE8122AAE6D
:101182007C007D6B122AC07C007D64122AAE900323
:1011920044EEF0A3EFF090003DE0FF7E00EF647FAD
:1011A2004E7060900374E0FFEF5401FF7E00EF4E3B
:1011B2007051900374E0FFEF1313543FFFEF54019B
:1011C200FF7E00EF4E703C900374E0FFEF4401FF9E
:1011D200900374EFF0900374E0FFEF54F7FF900375
:1011E20074EFF07B017A0379787D071274809003A3
:1011F200547401F090038C7411F0900017E4F0A382
:101202007464F0900355E0FF7E00EF64014E6010BD
:1012120090002AE0FF7E00EF64014E60030212C6D6
:1012220090003DE0FF7E00EF64024E70030212B4B4
:1012320090003DE0FF7E00EF64044E607590003D3B
:10124200E0FF7E00EF64084E606890003DE0FF7EA4
:1012520000EF64014E605B90003DE0FF7E00EF64B2
:10126200204E604E90003DE0FF7E00EF64404E60F5
:101272004190003DE0FF7E00EF64094E6034900033
:101282003DE0FF7E00EF64034E602790003DE0FFEB
:101292007E00EF640C4E601A90003DE0FF7E00EF8E
:1012A20064064E600D90003DE0FF7E00EF640A4E42
:1012B2007012900355E4F090002AE4F0900344E4A5
:1012C200F0A3E4F090003DE0FF7E00EF4E606B90F3
:1012D200003DE0FF7E00EF64024E605E90003DE064
:1012E200FF7E00EF64044E605190003DE0FF7E00FF
:1012F200EF64084E604490003DE0FF7E00EF640121
:101302004E603790003DE0FF7E00EF64204E602A81
:1013120090003DE0FF7E00EF64404E601D9003555B
:10132200E0FF7E00EF64014E601090002AE0FF7E35
:1013320000EF64014E600302167A900373E0FFEF40
:10134200131313541FFFEF5401FF7E00EF4E60038F
:1013520002167A900642E0FF7E00EF64024E6003BE
:1013620002167A900373E0FFEFC4540FFFEF5401AB
:10137200FF7E00EF4E600302167A900373E0FFEFE8
:10138200C413135403FFEF5401FF7E00EF64014EB8
:10139200600302167A900373E0FFEF4408FF9003A4
:1013A20073EFF090003DE0FF7E00EF4E700C900076
:1013B2001CE4F0A37423F002167A90001CE4F0A35C
:1013C2007423F002167A9003A1E0FFEFC313FFEF3C
:1013D2005401FF7E00EF64014E7026900011E0FE82
:1013E200A3E0FFEF4E701A9003A1E0FFEF54FDFF60
:1013F2009003A1EFF090036C7401F0A3740EF0D28D
:10140200A590036CE0FEA3E0FFEF4E700302149878
:1014120090036CE0FEA3E0FFD3EF94B4EE9400409F
:1014220021900372E0FFEFC4135407FFEF13929170
:10143200900372E0FFEFC413135403FFEF13929073
:10144200807290036CE0FEA3E0FFD3EF945AEE9417
:10145200004022900372E0FFEFC413135403FFEF26
:10146200139291900372E0FFEFC413135403FFEF42
:10147200139290803F900372E0FFEFC41313540362
:10148200FFEF139291900372E0FFEFC4135407FF32
:10149200EF139290801E9003A1E0FFEF54DFFF90C4
:1014A20003A1EFF0900372E0FFEFC413135403FFA4
:1014B200EF1392909003A1E0FFEF547FFF9003A1FE
:1014C200EFF0900372E0FFEF54FEFF900372EFF033
:1014D200900372E0FFEFC413135403FFEF139292D1
:1014E200900370E0FFEFC4540FFFEF5401FF7E0042
:1014F200EF64014E605A900370E0FFEFC41313547F
:1015020003FFEF5401FF7E00EF64014E604290033F
:101512006CE0FEA3E0FFEF4E7036900373E0FFEF46
:101522005401FF7E00EF64014E7002802390038518
:10153200E0FEA3E0FFD3EF9400EE94004004D2A5B6
:10154200800E90037FE0FEA3E0FFEF4E7002C2A583
:10155200900355E0FF7E00EF64014E600D90002A7B
:10156200E0FF7E00EF64014E705D900344E0FEA355
:10157200E0FFC3EF94E8EE94035024900344E0FEAE
:10158200A3E0FFD3EF9400EE94004013900372E0C7
:10159200FFEFC4135407FFEF139291D2A5805E9020
:1015A2000344E0FEA3E0FFEF4E7052900372E0FFAF
:1015B200EFC413135403FFEF139291900355E4F019
:1015C20090002AE4F08036900344E0FEA3E0FFEFAF
:1015D2004E702A90036CE0FEA3E0FFEF4E701E9067
:1015E2000372E0FFEFC413135403FFEF13929190C1
:1015F20003A1E0FFEF54FBFF9003A1EFF09003A1E2
:10160200E0FFEFC4540FFFEF5401FF7E00EF6401CF
:101612004E702A9003A1E0FFEF547FFF9003A1EFE9
:10162200F09003A1E0FFEF4402FF9003A1EFF090DE
:1016320003A1E0FFEF54EFFF9003A1EFF09003440A
:10164200E0FEA3E0FFEF4E702A90036CE0FEA3E001
:10165200FFEF4E701E900372E0FFEFC413135403AA
:10166200FFEF1392919003A1E0FFEF54FBFF900371
:10167200A1EFF090065FE4F09003B3E0FEA3E0FF79
:10168200EF4E700E9003A1E0FFEF54BFFF9003A155
:02169200EFF077
:011694002233
:026F3A008F6C5A
:106F3C0078C1122CF40000000078C57600AF6C7597
:106F4C00F003EFA42444F582E5F03400F583E0FF70
:106F5C0078C6A607AF6C75F003EFA42445F582E55F
:106F6C00F03400F583E0FF78C7A607AF6C75F0032B
:106F7C00EFA42446F582E5F03400F583E0FF78C8F1
:106F8C00A60778C5122CC378C1122CDC78C1122C40
:016F9C00C331
:016F9D0022D1
:10383D004805DB23081999230791114805CB230C63
:10384D007777230BEEEF4805E3230CBBBC230C333A
:10385D00334805D323090000230877774805EB2368
:10386D000C3BBC230BB333410643004105C900603B
:10387D002805FE0000000000000000000000000010
:10388D00000000000000000000000000000000002B
:10389D0000000000000000000000004105FD014196
:1038AD0005CA00410642014105C8004105FB004122
:1038BD0005C7004105FC004805F3000000000000AD
:0B38CD000000015900015A00015B00DF
:10430A008B328A3389348D351278B37F0D1274F962
:10431A007E00EF30E0F5800280F17D117F00127699
:10432A00087DFF7F011276087D9F7F021276087D45
:10433A00C37F031276087D037F041276087D107FFF
:10434A00051276087D007F061276087D157F071212
:10435A0076087D007F081276087D007F09127608AC
:10436A007D187F0A1276087D887F0B1276087D00F9
:10437A007F0C1276087D087F0D1276087D007F0E6D
:10438A001276087D007F0F1276087D007F10127664
:10439A00087D007F111276087D007F121276087D53
:1043AA00007F131276087D007F141276087D007F45
:1043BA00151276087D007F161276087D007F171287
:1043CA0076087D007F181276087D007F191276081C
:1043DA007D007F1A1276087D067F2D1276087D05EC
:1043EA007F3F1276087D8B7F411276087D007F42DF
:1043FA001276087D347F431276087D087F4512764F
:10440A00087D007F4E1276087D007F4F1276087D68
:10441A00007F501276087D007F511276087D147F46
:10442A00541276087D067F601276087D887F6312B3
:10443A0076087D167F671276087D107F68127608E7
:10444A007D037F691276087D5B7F6E1276087D0098
:10445A007F7A1276087D0C7F7B1276087D007F7D3D
:10446A00127608AD367F7E1276087D227F0012769C
:10447A00087D077F021276087DD07F031276087DB9
:10448A00007F041276087D507F051276087D277F0B
:10449A00111276087D0C7F131276087D027F1A129C
:1044AA007608AB32AA33A934122A34FD7F1B12765E
:1044BA0008AB32AA33A934758201758300122A4DDA
:1044CA00FD7F1C127608AB32AA33A93475820275B5
:1044DA008300122A4DFD7F1D127608AB32AA33A93A
:1044EA0034758203758300122A4DFD7F1E127608E9
:1044FA00AB32AA33A934122A34FD7F1F127608ABD5
:10450A0032AA33A934758201758300122A4DFD7FC0
:10451A0020127608AB32AA33A93475820275830059
:10452A00122A4DFD7F21127608AB32AA33A93475BF
:10453A008203758300122A4DFD7F221276087D08B8
:10454A007F231276087D887F241276087D087F25CE
:10455A001276087D0F7F261276087D007F27127655
:10456A00087D007F281276087D007F29127608AD23
:10457A00357F2A1276087D087F2F1276087D007F04
:10458A00301276087DAE7F31127608AB32AA33A993
:10459A0034758204758300122A4DFD7F4D12760808
:1045AA00AB32AA33A934758205758300122A4DFDF0
:1045BA007F4E127608AB32AA33A934758206758308
:1045CA0000122A4DFD7F4F127608AB32AA33A93466
:1045DA00758207758300122A4DFD7F501276087D79
:1045EA00047F511276087D5A7F521276087D667FC3
:1045FA00531276087D157F5C1276087D1B7F5D124B
:10460A0076087D057F5E1276087D677F5F127608E1
:10461A007D0C7F601276081275D67D447F00127673
:10462A00087D0F7F2A1276087D447F001276087D66
:10463A00007F4F1276087D887F001276087D3F7FC3
:10464A002F1276087D417F0C1276087D337F0D127A
:10465A0076087D547F0E1276087D107F1412760834
:10466A007D037F241276087D007F7E1276087F7094
:10467A007E5C7D977C19900346E0F8A3E0F9A3E0FD
:10468A00FAA3E0FBC3122C8C601C7FB07E697D9A72
:10469A007C19900346E0F8A3E0F9A3E0FAA3E0FB53
:1046AA00C3122C8C7005126ABA8003126B7F7D11BB
:1046BA007F001276087D017F6F1276087F0D1274D3
:0F46CA00F97E00EF30E1F5800280F112780D22C9
:107400007D227F001276087D007F0E1276087D882F
:107410007F001276087D337F0D1276087D117F0084
:107420001276087D407F0C1276087D807F4D1276A3
:10743000087D057F4E1276087D047F511276082262
:106D5900E559122D4A6D6B006D8A016DC80200005C
:106D69006DD7E55A25E0F55A30B502055AAF5A7E76
:106D790000EF64554E7057755901755B00755A00DF
:106D890022A2B5E433FFEF655B600E90003FE0049B
:106D9900F0700690003EE004F0900367E004F070A4
:106DA90006900366E004F0635B01900366E0FEA3CE
:106DB900E0FFC3EF94E8EE94034013755902229063
:0E6DC9000366E0FEA3E0FFEF4E700375590075
:016DD7002299
:1071C1008F6D7D117F00127608E56D122D4A71DFFA
:1071D1000071E80171F10271FA03000072037D216F
:1071E1007F7612760880227D117F761276088019CB
:1071F1007D097F7612760880107D057F76127608EC
:0F72010080077D037F761276087F09126741228E
:10712000900366E0FEA3E0FFC3EF94E8EE94034013
:107130003190003EE0FEA3E0FFC3EF9432EE9400F6
:107140004004C2A48002D2A490003EE4F0A3E4F084
:10715000900366E4F0A3E4F090034A7404F0A3748F
:10716000E2F090034AE0FEA3E0FFEF4E7002C2A4FB
:0171700022FC
:106E4F00900366E0FEA3E0FFC3EF94E8EE940340E7
:106E5F005790003EE0FEA3E0FFD3EF94FFEE9400C7
:106E6F00400890039D74FFF0800D90003EE0FEA35C
:106E7F00E0FF90039DEFF090003EE0FEA3E0FFC324
:106E8F00EF9432EE94004004C2A48002D2A490008A
:106E9F003EE4F0A3E4F0900366E4F0A3E4F0900383
:106EAF004A7404F0A374E2F090034AE0FEA3E0FFFB
:076EBF00EF4E7002C2A42295
:101695009005BF7402F09005C0E4F020E8259003A2
:1016A50073E0FFEFC41313135401FFEF5401FF7EE2
:1016B50000EF4E700E900373E0FFEF4480FF900340
:1016C50073EFF0900017E0FEA3E0FFEF4E702D9052
:1016D5000374E0FFEF5401FF7E00EF64014E701CC0
:1016E500900374E0FFEF54FEFF900374EFF0900356
:1016F50074E0FFEF54F7FF900374EFF07871E6FFA5
:10170500EFC313FFEF5401FF7E00EF4E6003021994
:10171500187F707E5C7D977C19900346E0F8A3E006
:10172500F9A3E0FAA3E0FBC3122C8C601F7FB07E07
:10173500697D9A7C19900346E0F8A3E0F9A3E0FAE5
:10174500A3E0FBC3122C8C6003021918900374E00C
:10175500FFEF131313541FFFEF5401FF7E00EF64D7
:10176500014E6003021918900374E0FFEF5401FF66
:101775007E00EF64014E6003021918900356E0FFE6
:101785007E00EF4E6003021918900370E0FFEF131F
:1017950013543FFFEF5401FF7E00EF64014E601AC2
:1017A500900373E0FFEFC4135407FFEF5401FF7E6E
:1017B50000EF64014E6003021918900642E0FF7EB7
:1017C50000EF64024E60030219189005C0E4F09022
:1017D50005C0E0FF7E00C3EF9408EE64809480505E
:1017E500329005C0E0FFEF5401FF9005C0E0FEEE2A
:1017F500C313FEEE25E0241FF582E43400F583E5EE
:10180500822FF582E43583F583E4F09005C0E0048A
:10181500F080BC90001EE0FFEF441FFF90001EEF1C
:10182500F090001F7498F090000BE004F090000B0E
:10183500E0FF900020EFF0900689E0FFEF24FCFF29
:10184500900353E0FEEEC39F5058900353E0FF749E
:101855008C2FF582E43406F583E0FF9005BFE0FEAA
:10186500EE5401FE9005BFE0FDEDC313FDED25E04F
:10187500241FF582E43400F583E5822EF582E435F4
:1018850083F583EFF0900353E004F09005BFE00487
:10189500F09005BFE0FF7E00EF64084E709980026E
:1018A5008095900689E0FFEF24FCFF900353E0FE4E
:1018B500EFB5062A900020E0FFEF4480FF9000205E
:1018C500EFF0900374E0FFEF54F7FF900374EFF02F
:1018D500900374E0FFEF54FEFF900374EFF0900364
:1018E500527403F0900373E0FFEF4410FF9003730D
:1018F500EFF0900370E0FFEF54FBFF900370EFF003
:101905009005C8E4F09005FB7401F09005C7E4F07C
:10191500021B2C7871E6FFEFC313FFEF5401FF7E26
:1019250000EF4E6003021B2C7F707E5C7D977C1957
:10193500900346E0F8A3E0F9A3E0FAA3E0FBC312A5
:101945002C8C601F7FB07E697D9A7C19900346E0E0
:10195500F8A3E0F9A3E0FAA3E0FBC3122C8C600323
:10196500021B2C900373E0FFEF131313541FFFEFBB
:101975005401FF7E00EF64014E700C90001CE0FEE8
:10198500A3E0FFEF4E606B900373E0FFEFC413130A
:10199500135401FFEF5401FF7E00EF64014E6052C6
:1019A500900373E0FFEF1313543FFFEF5401FF7EE5
:1019B50000EF64014E6003021B2C90001CE0FEA3A7
:1019C500E0FFEF4E700D900642E0FF7E00EF6402EF
:1019D5004E601F9003B3E0FEA3E0FFEF4E600302ED
:1019E5001B2C900642E0FF7E00EF64014E6003026F
:1019F5001B2C900373E0FFEF54FBFF900373EFF094
:101A0500900373E0FFEF547FFF900373EFF07B01CA
:101A15007A00792BC003C002C0017B017A00791ED0
:101A2500A801AC02AD03D001D002D0037E007F092E
:101A3500122A0E90001EE0FFEF54E0FFEF4401FF75
:101A450090001EEFF0900364E0FEA3E0FFEF240199
:101A5500FFEE34FFFE7C007D03122B15EF24CDFF36
:101A65009005BEEFF09005BEE0FFEFF404FF900592
:101A7500BEEFF0900642E0FF7E00EF64024E700E6E
:101A85009005BEE0FFEF4480FF9005BEEFF09005A6
:101A9500BEE0FF900021EFF0900373E0FFEF13131A
:101AA50013541FFFEF5401FF7E00EF64014E7020B9
:101AB500900363E0FFEF5407FFEFC43354E0FF905A
:101AC500001EE0FEEE541FFEEE4FFF90001EEFF0ED
:101AD500900373E0FFEF54F7FF900373EFF090006E
:101AE5001CE4F0A3E4F09003527403F0900373E058
:101AF500FFEF4410FF900373EFF0900370E0FFEFEA
:101B050054FBFF900370EFF09005C8E4F09005FBDF
:101B15007401F09005C7E4F090038BE4F090038125
:101B2500122D0D00000000900373E0FFEFC4540F69
:101B3500FFEF5401FF7E00EF64014E6003021CEDD0
:101B45009005FBE0FF7E00EF64014E70069005FBFB
:101B55007402F09005FBE0FF7E00EF64024E600327
:101B6500021CED9005C8E0FF7E00EF4E6003021CED
:101B7500157871E6FFEF4420FF7871A60778747633
:101B85000108762CD2A6900040E0FCA3E0FDA3E07E
:101B9500FEA3E0FFC004C005C006C0077B017A00B4
:101BA500791EC003C002C0017B007A00790CA80130
:101BB500AC02AD03D001D002D0037E007F09122A0A
:101BC5000E7B007A0079778B158A168917D007D096
:101BD50006D005D004123E3D7F031267417D227F6A
:101BE500001276087D157F2A1276087D117F001276
:101BF50076081278BD7B007A0079777D1C127440D7
:101C050078D376000876649005C87401F0021CED5F
:101C1500900352E0FF9005C8E0FEEEC39F5049785F
:101C250071E6FFEFC413135403FFEF5401FF7E0069
:101C3500EF64014E7032900371E0FF7E00EF4E704D
:101C4500277871E6FFEF54BFFF7871A6077B007A0E
:101C55000079777D1C12744078D3760008766490FD
:101C650005C8E004F0021CED900352E0FF9005C8A2
:101C7500E0FEEE6F70727871E6FFEFC41313540344
:101C8500FFEF5401FF7E00EF64014E705B9003711E
:101C9500E0FF7E00EF4E70507871E6FFEF54BFFF16
:101CA5007871A6079005C8E004F0900373E0FFEF94
:101CB5004420FF900373EFF0900373E0FFEF54EFC0
:101CC500FF900373EFF090001B7401F0C2A6900320
:101CD50073E0FFEF54BFFF900373EFF07871E6FFF9
:101CE500EF54DFFF7871A607900373E0FFEFC4138D
:101CF5005407FFEF5401FF7E00EF64014E703E90E4
:101D0500001BE0FF7E00EF4E7033900374E0FFEFA1
:101D1500131313541FFFEF5401FF7E00EF4E701D88
:101D2500900373E0FFEF54DFFF900373EFF0900330
:101D350070E0FFEF4404FF900370EFF0227871E646
:101D4500FFEFC4135407FFEF5401FF7E00EF64015A
:101D55004E6003021E3B78D3E6FE08E6FFEF4E60B9
:101D650003021E3B7871E6FFEFC413135403FFEF24
:101D75005401FF7E00EF4E6003021E3B900373E0AB
:101D8500FFEFC4135407FFEF5401FF7E00EF4E60D1
:101D950003021E3B7F707E5C7D977C19900346E0B5
:101DA500F8A3E0F9A3E0FAA3E0FBC3122C8C7010B2
:101DB5007B017A0579CB75361C7D1512430A802A7D
:101DC5007FB07E697D9A7C19900346E0F8A3E0F91F
:101DD500A3E0FAA3E0FBC3122C8C700E7B017A05FD
:101DE50079E375361C7D1512430A1278BD7B007A9E
:101DF5000079777D1C12744078D37600087664905C
:101E0500039EE004F090039EE0FF7E00C3EF940381
:101E1500EE64809480401F90039EE4F07871E6FFA5
:101E2500EF54DFFF7871A607900370E0FFEF4404DD
:061E3500FF900370EFF0C6
:011E3B002284
:104D9300D2A57872E6FFEF54FEFF7872A607787209
:104DA300E6FFEF54F7FF7872A6073093030250191A
:104DB3007872E6FFEF5401FF7E00EF4E700DC2A53F
:104DC3007D017C007FF47E0112691D7872E6FFEF9E
:104DD3004401FF7872A60712000E7872E6FFEF1304
:104DE3001313541FFFEF5401FF7E00EF4E600302C5
:104DF300501320E91220E80790000AE4F08019908C
:104E0300000A7401F0801120E80890000A7402F08F
:104E1300800690000A7403F090000AE0FF7E00EF22
:104E23004E601090000AE0FF7E00EF64014E6003C5
:104E3300024F3FC2A3D2A2900360E0FFEF547FFF73
:104E4300900360EFF0C2A4900360E0FFEF54EFFF24
:104E5300900360EFF07872E6FFEF54FBFF7872A6E1
:104E630007900346122D0D1994B0D890000AE0FF65
:104E73007E00EF4E705CD2A6900360E0FFEF54DF3C
:104E8300FF900360EFF0900360E0FFEF54FDFF90AD
:104E93000360EFF0900360E0FFEF131313541FFF61
:104EA300EF5401FF7E00EF4E6003024F3F9003601B
:104EB300E0FFEF4408FF900360EFF07F03126741C8
:104EC3007B017A0579EB7D01125DE57F001271C1EB
:104ED300806A90034EE0FEA3E0FFEF4E700C900358
:104EE3004E7401F0A374F4F0B2A6900360E0FFEFF8
:104EF3004420FF900360EFF0900360E0FFEF54F76E
:104F0300FF900360EFF0900360E0FFEFC313FFEF48
:104F13005401FF7E00EF4E7023900360E0FFEF44E7
:104F230002FF900360EFF07F031267417B017A0574
:104F330079EB7D01125DE57F011271C190000AE0FA
:104F4300FF7E00EF64024E601090000AE0FF7E00D7
:104F5300EF64034E6003025013D2A3C2A290036016
:104F6300E0FFEF4480FF900360EFF0C2A690036080
:104F7300E0FFEF54DFFF900360EFF0900360E0FF8A
:104F8300EF54F7FF900360EFF0900360E0FFEF54FE
:104F9300FDFF900360EFF0900360E0FFEFC4540F58
:104FA300FFEF5401FF7E00EF4E7030900360E0FF8F
:104FB300EF4410FF900360EFF07F0312674190030B
:104FC30046122D0D196FB0307B017A0579D37D011F
:104FD300125DE51274007F0612674190000AE0FF3C
:104FE3007E00EF64024E701890034EE0FEA3E0FFD4
